{
  "contractName": "CryptoGuns",
  "abi": [
    {
      "anonymous": false,
      "inputs": [
        {
          "indexed": true,
          "internalType": "address",
          "name": "owner",
          "type": "address"
        },
        {
          "indexed": true,
          "internalType": "address",
          "name": "approved",
          "type": "address"
        },
        {
          "indexed": true,
          "internalType": "uint256",
          "name": "tokenId",
          "type": "uint256"
        }
      ],
      "name": "Approval",
      "type": "event"
    },
    {
      "anonymous": false,
      "inputs": [
        {
          "indexed": true,
          "internalType": "address",
          "name": "owner",
          "type": "address"
        },
        {
          "indexed": true,
          "internalType": "address",
          "name": "operator",
          "type": "address"
        },
        {
          "indexed": false,
          "internalType": "bool",
          "name": "approved",
          "type": "bool"
        }
      ],
      "name": "ApprovalForAll",
      "type": "event"
    },
    {
      "anonymous": false,
      "inputs": [
        {
          "indexed": true,
          "internalType": "address",
          "name": "_player",
          "type": "address"
        },
        {
          "indexed": false,
          "internalType": "uint256",
          "name": "_swatId",
          "type": "uint256"
        }
      ],
      "name": "Burn",
      "type": "event"
    },
    {
      "anonymous": false,
      "inputs": [
        {
          "indexed": true,
          "internalType": "address",
          "name": "_receivingPlayer",
          "type": "address"
        },
        {
          "indexed": false,
          "internalType": "string",
          "name": "_name",
          "type": "string"
        },
        {
          "indexed": false,
          "internalType": "string",
          "name": "_rarity",
          "type": "string"
        }
      ],
      "name": "NewSpecificSwat",
      "type": "event"
    },
    {
      "anonymous": false,
      "inputs": [
        {
          "indexed": true,
          "internalType": "address",
          "name": "_player",
          "type": "address"
        },
        {
          "indexed": false,
          "internalType": "uint256",
          "name": "_swatId",
          "type": "uint256"
        },
        {
          "indexed": false,
          "internalType": "string",
          "name": "_name",
          "type": "string"
        }
      ],
      "name": "NewSwat",
      "type": "event"
    },
    {
      "anonymous": false,
      "inputs": [
        {
          "indexed": true,
          "internalType": "address",
          "name": "_receivingPlayer",
          "type": "address"
        }
      ],
      "name": "Purchased",
      "type": "event"
    },
    {
      "anonymous": false,
      "inputs": [
        {
          "indexed": true,
          "internalType": "bytes32",
          "name": "role",
          "type": "bytes32"
        },
        {
          "indexed": true,
          "internalType": "bytes32",
          "name": "previousAdminRole",
          "type": "bytes32"
        },
        {
          "indexed": true,
          "internalType": "bytes32",
          "name": "newAdminRole",
          "type": "bytes32"
        }
      ],
      "name": "RoleAdminChanged",
      "type": "event"
    },
    {
      "anonymous": false,
      "inputs": [
        {
          "indexed": true,
          "internalType": "bytes32",
          "name": "role",
          "type": "bytes32"
        },
        {
          "indexed": true,
          "internalType": "address",
          "name": "account",
          "type": "address"
        },
        {
          "indexed": true,
          "internalType": "address",
          "name": "sender",
          "type": "address"
        }
      ],
      "name": "RoleGranted",
      "type": "event"
    },
    {
      "anonymous": false,
      "inputs": [
        {
          "indexed": true,
          "internalType": "bytes32",
          "name": "role",
          "type": "bytes32"
        },
        {
          "indexed": true,
          "internalType": "address",
          "name": "account",
          "type": "address"
        },
        {
          "indexed": true,
          "internalType": "address",
          "name": "sender",
          "type": "address"
        }
      ],
      "name": "RoleRevoked",
      "type": "event"
    },
    {
      "anonymous": false,
      "inputs": [
        {
          "indexed": false,
          "internalType": "uint256",
          "name": "newPrice",
          "type": "uint256"
        }
      ],
      "name": "SwatPriceSet",
      "type": "event"
    },
    {
      "anonymous": false,
      "inputs": [
        {
          "indexed": false,
          "internalType": "uint256",
          "name": "_amount",
          "type": "uint256"
        }
      ],
      "name": "TokenWithdrawal",
      "type": "event"
    },
    {
      "anonymous": false,
      "inputs": [
        {
          "indexed": true,
          "internalType": "address",
          "name": "from",
          "type": "address"
        },
        {
          "indexed": true,
          "internalType": "address",
          "name": "to",
          "type": "address"
        },
        {
          "indexed": true,
          "internalType": "uint256",
          "name": "tokenId",
          "type": "uint256"
        }
      ],
      "name": "Transfer",
      "type": "event"
    },
    {
      "inputs": [],
      "name": "BURNER_ROLE",
      "outputs": [
        {
          "internalType": "bytes32",
          "name": "",
          "type": "bytes32"
        }
      ],
      "stateMutability": "view",
      "type": "function",
      "constant": true
    },
    {
      "inputs": [],
      "name": "DEFAULT_ADMIN_ROLE",
      "outputs": [
        {
          "internalType": "bytes32",
          "name": "",
          "type": "bytes32"
        }
      ],
      "stateMutability": "view",
      "type": "function",
      "constant": true
    },
    {
      "inputs": [],
      "name": "MINTER_ROLE",
      "outputs": [
        {
          "internalType": "bytes32",
          "name": "",
          "type": "bytes32"
        }
      ],
      "stateMutability": "view",
      "type": "function",
      "constant": true
    },
    {
      "inputs": [],
      "name": "_acceptedToken",
      "outputs": [
        {
          "internalType": "address",
          "name": "",
          "type": "address"
        }
      ],
      "stateMutability": "view",
      "type": "function",
      "constant": true
    },
    {
      "inputs": [],
      "name": "acceptedToken",
      "outputs": [
        {
          "internalType": "contract ERC20Interface",
          "name": "",
          "type": "address"
        }
      ],
      "stateMutability": "view",
      "type": "function",
      "constant": true
    },
    {
      "inputs": [
        {
          "internalType": "address",
          "name": "to",
          "type": "address"
        },
        {
          "internalType": "uint256",
          "name": "tokenId",
          "type": "uint256"
        }
      ],
      "name": "approve",
      "outputs": [],
      "stateMutability": "nonpayable",
      "type": "function"
    },
    {
      "inputs": [
        {
          "internalType": "address",
          "name": "owner",
          "type": "address"
        }
      ],
      "name": "balanceOf",
      "outputs": [
        {
          "internalType": "uint256",
          "name": "",
          "type": "uint256"
        }
      ],
      "stateMutability": "view",
      "type": "function",
      "constant": true
    },
    {
      "inputs": [],
      "name": "cooldownTime",
      "outputs": [
        {
          "internalType": "uint256",
          "name": "",
          "type": "uint256"
        }
      ],
      "stateMutability": "view",
      "type": "function",
      "constant": true
    },
    {
      "inputs": [
        {
          "internalType": "uint256",
          "name": "tokenId",
          "type": "uint256"
        }
      ],
      "name": "getApproved",
      "outputs": [
        {
          "internalType": "address",
          "name": "",
          "type": "address"
        }
      ],
      "stateMutability": "view",
      "type": "function",
      "constant": true
    },
    {
      "inputs": [
        {
          "internalType": "bytes32",
          "name": "role",
          "type": "bytes32"
        }
      ],
      "name": "getRoleAdmin",
      "outputs": [
        {
          "internalType": "bytes32",
          "name": "",
          "type": "bytes32"
        }
      ],
      "stateMutability": "view",
      "type": "function",
      "constant": true
    },
    {
      "inputs": [
        {
          "internalType": "bytes32",
          "name": "role",
          "type": "bytes32"
        },
        {
          "internalType": "address",
          "name": "account",
          "type": "address"
        }
      ],
      "name": "grantRole",
      "outputs": [],
      "stateMutability": "nonpayable",
      "type": "function"
    },
    {
      "inputs": [
        {
          "internalType": "bytes32",
          "name": "role",
          "type": "bytes32"
        },
        {
          "internalType": "address",
          "name": "account",
          "type": "address"
        }
      ],
      "name": "hasRole",
      "outputs": [
        {
          "internalType": "bool",
          "name": "",
          "type": "bool"
        }
      ],
      "stateMutability": "view",
      "type": "function",
      "constant": true
    },
    {
      "inputs": [
        {
          "internalType": "address",
          "name": "owner",
          "type": "address"
        },
        {
          "internalType": "address",
          "name": "operator",
          "type": "address"
        }
      ],
      "name": "isApprovedForAll",
      "outputs": [
        {
          "internalType": "bool",
          "name": "",
          "type": "bool"
        }
      ],
      "stateMutability": "view",
      "type": "function",
      "constant": true
    },
    {
      "inputs": [],
      "name": "name",
      "outputs": [
        {
          "internalType": "string",
          "name": "",
          "type": "string"
        }
      ],
      "stateMutability": "view",
      "type": "function",
      "constant": true
    },
    {
      "inputs": [
        {
          "internalType": "uint256",
          "name": "tokenId",
          "type": "uint256"
        }
      ],
      "name": "ownerOf",
      "outputs": [
        {
          "internalType": "address",
          "name": "",
          "type": "address"
        }
      ],
      "stateMutability": "view",
      "type": "function",
      "constant": true
    },
    {
      "inputs": [
        {
          "internalType": "address",
          "name": "",
          "type": "address"
        }
      ],
      "name": "ownerSwatCount",
      "outputs": [
        {
          "internalType": "uint256",
          "name": "",
          "type": "uint256"
        }
      ],
      "stateMutability": "view",
      "type": "function",
      "constant": true
    },
    {
      "inputs": [
        {
          "internalType": "bytes32",
          "name": "role",
          "type": "bytes32"
        },
        {
          "internalType": "address",
          "name": "account",
          "type": "address"
        }
      ],
      "name": "renounceRole",
      "outputs": [],
      "stateMutability": "nonpayable",
      "type": "function"
    },
    {
      "inputs": [
        {
          "internalType": "bytes32",
          "name": "role",
          "type": "bytes32"
        },
        {
          "internalType": "address",
          "name": "account",
          "type": "address"
        }
      ],
      "name": "revokeRole",
      "outputs": [],
      "stateMutability": "nonpayable",
      "type": "function"
    },
    {
      "inputs": [
        {
          "internalType": "address",
          "name": "from",
          "type": "address"
        },
        {
          "internalType": "address",
          "name": "to",
          "type": "address"
        },
        {
          "internalType": "uint256",
          "name": "tokenId",
          "type": "uint256"
        }
      ],
      "name": "safeTransferFrom",
      "outputs": [],
      "stateMutability": "nonpayable",
      "type": "function"
    },
    {
      "inputs": [
        {
          "internalType": "address",
          "name": "from",
          "type": "address"
        },
        {
          "internalType": "address",
          "name": "to",
          "type": "address"
        },
        {
          "internalType": "uint256",
          "name": "tokenId",
          "type": "uint256"
        },
        {
          "internalType": "bytes",
          "name": "_data",
          "type": "bytes"
        }
      ],
      "name": "safeTransferFrom",
      "outputs": [],
      "stateMutability": "nonpayable",
      "type": "function"
    },
    {
      "inputs": [
        {
          "internalType": "address",
          "name": "operator",
          "type": "address"
        },
        {
          "internalType": "bool",
          "name": "approved",
          "type": "bool"
        }
      ],
      "name": "setApprovalForAll",
      "outputs": [],
      "stateMutability": "nonpayable",
      "type": "function"
    },
    {
      "inputs": [
        {
          "internalType": "uint256",
          "name": "",
          "type": "uint256"
        }
      ],
      "name": "swatIsAtIndex",
      "outputs": [
        {
          "internalType": "uint256",
          "name": "",
          "type": "uint256"
        }
      ],
      "stateMutability": "view",
      "type": "function",
      "constant": true
    },
    {
      "inputs": [],
      "name": "swatPrice",
      "outputs": [
        {
          "internalType": "uint256",
          "name": "",
          "type": "uint256"
        }
      ],
      "stateMutability": "view",
      "type": "function",
      "constant": true
    },
    {
      "inputs": [
        {
          "internalType": "uint256",
          "name": "",
          "type": "uint256"
        }
      ],
      "name": "swats",
      "outputs": [
        {
          "internalType": "string",
          "name": "name",
          "type": "string"
        },
        {
          "internalType": "string",
          "name": "rarity",
          "type": "string"
        },
        {
          "internalType": "bool",
          "name": "upgraded",
          "type": "bool"
        },
        {
          "internalType": "uint32",
          "name": "readyTime",
          "type": "uint32"
        }
      ],
      "stateMutability": "view",
      "type": "function",
      "constant": true
    },
    {
      "inputs": [],
      "name": "symbol",
      "outputs": [
        {
          "internalType": "string",
          "name": "",
          "type": "string"
        }
      ],
      "stateMutability": "view",
      "type": "function",
      "constant": true
    },
    {
      "inputs": [
        {
          "internalType": "address",
          "name": "from",
          "type": "address"
        },
        {
          "internalType": "address",
          "name": "to",
          "type": "address"
        },
        {
          "internalType": "uint256",
          "name": "tokenId",
          "type": "uint256"
        }
      ],
      "name": "transferFrom",
      "outputs": [],
      "stateMutability": "nonpayable",
      "type": "function"
    },
    {
      "inputs": [
        {
          "internalType": "address",
          "name": "",
          "type": "address"
        },
        {
          "internalType": "uint256",
          "name": "",
          "type": "uint256"
        }
      ],
      "name": "userOwnedSwats",
      "outputs": [
        {
          "internalType": "uint256",
          "name": "",
          "type": "uint256"
        }
      ],
      "stateMutability": "view",
      "type": "function",
      "constant": true
    },
    {
      "inputs": [],
      "name": "initialize",
      "outputs": [],
      "stateMutability": "nonpayable",
      "type": "function"
    },
    {
      "inputs": [
        {
          "internalType": "address",
          "name": "account",
          "type": "address"
        }
      ],
      "name": "addAdmin",
      "outputs": [],
      "stateMutability": "nonpayable",
      "type": "function"
    },
    {
      "inputs": [
        {
          "internalType": "address",
          "name": "account",
          "type": "address"
        }
      ],
      "name": "addMinter",
      "outputs": [],
      "stateMutability": "nonpayable",
      "type": "function"
    },
    {
      "inputs": [
        {
          "internalType": "address",
          "name": "_owner",
          "type": "address"
        },
        {
          "internalType": "string",
          "name": "_name",
          "type": "string"
        },
        {
          "internalType": "string",
          "name": "_rarity",
          "type": "string"
        }
      ],
      "name": "mintSpecificSwat",
      "outputs": [],
      "stateMutability": "nonpayable",
      "type": "function"
    },
    {
      "inputs": [
        {
          "internalType": "uint256",
          "name": "_swatId",
          "type": "uint256"
        },
        {
          "internalType": "uint256",
          "name": "_targetId",
          "type": "uint256"
        }
      ],
      "name": "duplicateUpgrade",
      "outputs": [],
      "stateMutability": "nonpayable",
      "type": "function"
    },
    {
      "inputs": [
        {
          "internalType": "bytes4",
          "name": "interfaceId",
          "type": "bytes4"
        }
      ],
      "name": "supportsInterface",
      "outputs": [
        {
          "internalType": "bool",
          "name": "",
          "type": "bool"
        }
      ],
      "stateMutability": "view",
      "type": "function",
      "constant": true
    },
    {
      "inputs": [
        {
          "internalType": "uint256",
          "name": "tokenId",
          "type": "uint256"
        }
      ],
      "name": "tokenURI",
      "outputs": [
        {
          "internalType": "string",
          "name": "",
          "type": "string"
        }
      ],
      "stateMutability": "view",
      "type": "function",
      "constant": true
    },
    {
      "inputs": [
        {
          "internalType": "uint256",
          "name": "_swatId",
          "type": "uint256"
        }
      ],
      "name": "getSwatName",
      "outputs": [
        {
          "internalType": "string",
          "name": "",
          "type": "string"
        }
      ],
      "stateMutability": "view",
      "type": "function",
      "constant": true
    },
    {
      "inputs": [
        {
          "internalType": "uint256",
          "name": "_swatId",
          "type": "uint256"
        }
      ],
      "name": "getRarity",
      "outputs": [
        {
          "internalType": "string",
          "name": "",
          "type": "string"
        }
      ],
      "stateMutability": "view",
      "type": "function",
      "constant": true
    },
    {
      "inputs": [
        {
          "internalType": "uint256",
          "name": "_swatId",
          "type": "uint256"
        }
      ],
      "name": "getReadyTime",
      "outputs": [
        {
          "internalType": "uint256",
          "name": "",
          "type": "uint256"
        }
      ],
      "stateMutability": "view",
      "type": "function",
      "constant": true
    },
    {
      "inputs": [
        {
          "internalType": "uint256",
          "name": "_swatId",
          "type": "uint256"
        }
      ],
      "name": "getUpgraded",
      "outputs": [
        {
          "internalType": "bool",
          "name": "",
          "type": "bool"
        }
      ],
      "stateMutability": "view",
      "type": "function",
      "constant": true
    },
    {
      "inputs": [
        {
          "components": [
            {
              "internalType": "string",
              "name": "name",
              "type": "string"
            },
            {
              "internalType": "string",
              "name": "rarity",
              "type": "string"
            },
            {
              "internalType": "bool",
              "name": "upgraded",
              "type": "bool"
            },
            {
              "internalType": "uint32",
              "name": "readyTime",
              "type": "uint32"
            }
          ],
          "internalType": "struct CryptoGuns.Swat",
          "name": "_swat",
          "type": "tuple"
        }
      ],
      "name": "_isReady",
      "outputs": [
        {
          "internalType": "bool",
          "name": "",
          "type": "bool"
        }
      ],
      "stateMutability": "view",
      "type": "function",
      "constant": true
    },
    {
      "inputs": [
        {
          "internalType": "address",
          "name": "_buyer",
          "type": "address"
        }
      ],
      "name": "buyNFT",
      "outputs": [],
      "stateMutability": "nonpayable",
      "type": "function"
    },
    {
      "inputs": [
        {
          "internalType": "uint256",
          "name": "_price",
          "type": "uint256"
        }
      ],
      "name": "setSwatPrice",
      "outputs": [],
      "stateMutability": "nonpayable",
      "type": "function"
    },
    {
      "inputs": [],
      "name": "getSwatPrice",
      "outputs": [
        {
          "internalType": "uint256",
          "name": "",
          "type": "uint256"
        }
      ],
      "stateMutability": "view",
      "type": "function",
      "constant": true
    },
    {
      "inputs": [
        {
          "internalType": "address",
          "name": "newAcceptedToken",
          "type": "address"
        }
      ],
      "name": "setAcceptedToken",
      "outputs": [],
      "stateMutability": "nonpayable",
      "type": "function"
    },
    {
      "inputs": [
        {
          "internalType": "uint256",
          "name": "_amount",
          "type": "uint256"
        }
      ],
      "name": "withdrawToken",
      "outputs": [],
      "stateMutability": "nonpayable",
      "type": "function"
    }
  ],
  "bytecode": "0x608060405234801561001057600080fd5b5061593980620000216000396000f3fe608060405234801561001057600080fd5b50600436106102f45760003560e01c80636c30f94e11610191578063a22cb465116100e3578063c87b56dd11610097578063e985e9c511610071578063e985e9c5146105da578063ed49bc3c146105ed578063f25ac4e714610600576102f4565b8063c87b56dd146105ac578063d5391393146105bf578063d547741f146105c7576102f4565b8063b88d4fde116100c8578063b88d4fde1461057e578063ba79b56414610591578063c1b037d5146105a4576102f4565b8063a22cb46514610563578063b319c6b714610576576102f4565b806381597d121161014557806395d89b411161011f57806395d89b4114610540578063983b2d5614610548578063a217fddf1461055b576102f4565b806381597d12146104f75780638429c57a1461050a57806391d148541461052d576102f4565b806370a082311161017657806370a08231146104c95780637487f528146104dc5780638129fc1c146104ef576102f4565b80636c30f94e146104a357806370480275146104b6576102f4565b80633255ef2e1161024a578063475b0dd5116101fe57806350baa622116101d857806350baa6221461046a5780635ea673961461047d5780636352211e14610490576102f4565b8063475b0dd51461043c578063487586971461044f5780634e5b3c7c14610462576102f4565b806342842e0e1161022f57806342842e0e1461040e57806344ac676614610421578063451c3d8014610434576102f4565b80633255ef2e146103e857806336568abe146103fb576102f4565b8063095ea7b3116102ac578063248a9ca311610286578063248a9ca3146103ba578063282c51f3146103cd5780632f2ff15d146103d5576102f4565b8063095ea7b31461037f5780630baf140d1461039457806323b872dd146103a7576102f4565b806306fdde03116102dd57806306fdde0314610337578063081812fc1461034c57806308a720e81461036c576102f4565b806301ffc9a7146102f957806305fced2a14610322575b600080fd5b61030c610307366004614834565b610613565b6040516103199190614b63565b60405180910390f35b61032a610626565b6040516103199190614b6e565b61033f61062c565b6040516103199190614b77565b61035f61035a3660046147fa565b6106be565b6040516103199190614aa2565b61032a61037a36600461460e565b610731565b61039261038d3660046147b5565b610743565b005b6103926103a23660046147fa565b610843565b6103926103b536600461465a565b610900565b61032a6103c83660046147fa565b610952565b61032a610967565b6103926103e3366004614812565b61098b565b6103926103f6366004614744565b6109af565b610392610409366004614812565b610a71565b61039261041c36600461465a565b610aeb565b61039261042f366004614930565b610b06565b61035f610d8e565b61033f61044a3660046147fa565b610dab565b61033f61045d3660046147fa565b610e88565b61035f610ee0565b6103926104783660046147fa565b610efd565b61032a61048b3660046147fa565b611116565b61035f61049e3660046147fa565b611177565b61030c6104b13660046147fa565b6111d3565b6103926104c436600461460e565b61122c565b61032a6104d736600461460e565b61127d565b6103926104ea36600461460e565b6112f5565b6103926113d5565b61032a6105053660046147b5565b611621565b61051d6105183660046147fa565b611652565b6040516103199493929190614bb8565b61030c61053b366004614812565b6117ad565b61033f6117e5565b61039261055636600461460e565b6117f4565b61032a611861565b61039261057136600461470e565b611866565b61032a6119a0565b61039261058c366004614695565b6119a7565b61039261059f36600461460e565b611a00565b61032a611b8a565b61033f6105ba3660046147fa565b611b90565b61032a611b9b565b6103926105d5366004614812565b611bbf565b61030c6105e8366004614628565b611bde565b61030c6105fb36600461486c565b611c19565b61032a61060e3660046147fa565b611c2b565b600061061e82611c3d565b90505b919050565b60ff5481565b60606065805461063b90615799565b80601f016020809104026020016040519081016040528092919081815260200182805461066790615799565b80156106b45780601f10610689576101008083540402835291602001916106b4565b820191906000526020600020905b81548152906001019060200180831161069757829003601f168201915b5050505050905090565b60006106c982611c93565b610708576040517f08c379a00000000000000000000000000000000000000000000000000000000081526004016106ff90615349565b60405180910390fd5b5060009081526069602052604090205473ffffffffffffffffffffffffffffffffffffffff1690565b60fd6020526000908152604090205481565b600061074e82611177565b90508073ffffffffffffffffffffffffffffffffffffffff168373ffffffffffffffffffffffffffffffffffffffff1614156107b6576040517f08c379a00000000000000000000000000000000000000000000000000000000081526004016106ff90615460565b8073ffffffffffffffffffffffffffffffffffffffff166107d5611cbd565b73ffffffffffffffffffffffffffffffffffffffff1614806107fe57506107fe816105e8611cbd565b610834576040517f08c379a00000000000000000000000000000000000000000000000000000000081526004016106ff9061501b565b61083e8383611cc1565b505050565b610850600061053b611cbd565b610886576040517f08c379a00000000000000000000000000000000000000000000000000000000081526004016106ff90615078565b600181116108c0576040517f08c379a00000000000000000000000000000000000000000000000000000000081526004016106ff906152b5565b80601414156108fb576040517f08c379a00000000000000000000000000000000000000000000000000000000081526004016106ff90614c8e565b60ff55565b61091161090b611cbd565b82611d61565b610947576040517f08c379a00000000000000000000000000000000000000000000000000000000081526004016106ff9061552b565b61083e838383611e34565b60009081526097602052604090206001015490565b7f3c11d16cbaffd01df69ce1c404f6340ee057498f5f00246190ea54220576a84881565b61099482610952565b6109a5816109a0611cbd565b611ffb565b61083e83836120a4565b6109db7f9f2df0fed2c77648de5860a4cc508cd0818c85b8b8a1ab4ceeef8d981c8956a661053b611cbd565b610a11576040517f08c379a00000000000000000000000000000000000000000000000000000000081526004016106ff90615078565b610a1c828285612170565b8273ffffffffffffffffffffffffffffffffffffffff167f91839fce961c0ebd219c69759f4eb94da33daa65affddc3ce8c48e1c657459078383604051610a64929190614b8a565b60405180910390a2505050565b610a79611cbd565b73ffffffffffffffffffffffffffffffffffffffff168173ffffffffffffffffffffffffffffffffffffffff1614610add576040517f08c379a00000000000000000000000000000000000000000000000000000000081526004016106ff90615642565b610ae78282612811565b5050565b61083e838383604051806020016040528060008152506119a7565b610b0f82611c93565b610b45576040517f08c379a00000000000000000000000000000000000000000000000000000000081526004016106ff906154bd565b610b4e81611c93565b610b84576040517f08c379a00000000000000000000000000000000000000000000000000000000081526004016106ff906154bd565b610b8c611cbd565b73ffffffffffffffffffffffffffffffffffffffff16610bab83611177565b73ffffffffffffffffffffffffffffffffffffffff1614610bf8576040517f08c379a00000000000000000000000000000000000000000000000000000000081526004016106ff90615588565b610c00611cbd565b73ffffffffffffffffffffffffffffffffffffffff16610c1f82611177565b73ffffffffffffffffffffffffffffffffffffffff1614610c6c576040517f08c379a00000000000000000000000000000000000000000000000000000000081526004016106ff90614db6565b600060fe8381548110610ca8577f4e487b7100000000000000000000000000000000000000000000000000000000600052603260045260246000fd5b60009182526020909120600390910201600281015490915060ff1615610cfa576040517f08c379a00000000000000000000000000000000000000000000000000000000081526004016106ff90615258565b6002810180547fffffffffffffffffffffffffffffffffffffffffffffffffffffffffffffff00166001179055610d30826128db565b610d38611cbd565b73ffffffffffffffffffffffffffffffffffffffff167fcc16f5dbb4873280815c1ee09dbd06736cffcc184412cf7a71a0fdb75d397ca583604051610d7d9190614b6e565b60405180910390a261083e816128e4565b6101025473ffffffffffffffffffffffffffffffffffffffff1681565b606060fe8281548110610de7577f4e487b7100000000000000000000000000000000000000000000000000000000600052603260045260246000fd5b90600052602060002090600302016000018054610e0390615799565b80601f0160208091040260200160405190810160405280929190818152602001828054610e2f90615799565b8015610e7c5780601f10610e5157610100808354040283529160200191610e7c565b820191906000526020600020905b815481529060010190602001808311610e5f57829003601f168201915b50505050509050919050565b606060fe8281548110610ec4577f4e487b7100000000000000000000000000000000000000000000000000000000600052603260045260246000fd5b90600052602060002090600302016001018054610e0390615799565b6101035473ffffffffffffffffffffffffffffffffffffffff1681565b610f0a600061053b611cbd565b610f40576040517f08c379a00000000000000000000000000000000000000000000000000000000081526004016106ff90614f61565b6101025473ffffffffffffffffffffffffffffffffffffffff1663095ea7b3610f67611cbd565b836040518363ffffffff1660e01b8152600401610f85929190614b3d565b602060405180830381600087803b158015610f9f57600080fd5b505af1158015610fb3573d6000803e3d6000fd5b505050506040513d601f19601f82011682018060405250810190610fd791906147de565b61100d576040517f08c379a00000000000000000000000000000000000000000000000000000000081526004016106ff906154f4565b6101025473ffffffffffffffffffffffffffffffffffffffff166323b872dd30611035611cbd565b846040518463ffffffff1660e01b815260040161105493929190614ac3565b602060405180830381600087803b15801561106e57600080fd5b505af1158015611082573d6000803e3d6000fd5b505050506040513d601f19601f820116820180604052508101906110a691906147de565b6110dc576040517f08c379a00000000000000000000000000000000000000000000000000000000081526004016106ff906155e5565b7f0e266e8f38544aa1480d73762386eb10df55b1b8453d935762e891c44b69a1e68160405161110b9190614b6e565b60405180910390a150565b600060fe8281548110611152577f4e487b7100000000000000000000000000000000000000000000000000000000600052603260045260246000fd5b6000918252602090912060039091020160020154610100900463ffffffff1692915050565b60008181526067602052604081205473ffffffffffffffffffffffffffffffffffffffff168061061e576040517f08c379a00000000000000000000000000000000000000000000000000000000081526004016106ff9061510c565b600060fe828154811061120f577f4e487b7100000000000000000000000000000000000000000000000000000000600052603260045260246000fd5b600091825260209091206003909102016002015460ff1692915050565b611239600061053b611cbd565b61126f576040517f08c379a00000000000000000000000000000000000000000000000000000000081526004016106ff90614f61565b61127a60008261098b565b50565b600073ffffffffffffffffffffffffffffffffffffffff82166112cc576040517f08c379a00000000000000000000000000000000000000000000000000000000081526004016106ff906150af565b5073ffffffffffffffffffffffffffffffffffffffff1660009081526068602052604090205490565b611302600061053b611cbd565b611338576040517f08c379a00000000000000000000000000000000000000000000000000000000081526004016106ff90614f61565b6113578173ffffffffffffffffffffffffffffffffffffffff16612917565b61138d576040517f08c379a00000000000000000000000000000000000000000000000000000000081526004016106ff90614c31565b61010380547fffffffffffffffffffffffff00000000000000000000000000000000000000001673ffffffffffffffffffffffffffffffffffffffff92909216919091179055565b600054610100900460ff16806113ee575060005460ff16155b611424576040517f08c379a00000000000000000000000000000000000000000000000000000000081526004016106ff906151c6565b600054610100900460ff1615801561148a57600080547fffffffffffffffffffffffffffffffffffffffffffffffffffffffffffffff007fffffffffffffffffffffffffffffffffffffffffffffffffffffffffffff00ff909116610100171660011790555b6114fe6040518060400160405280601881526020017f43727970746f47756e73205371756164204d656d6265727300000000000000008152506040518060400160405280600c81526020017f53717561644d656d62657273000000000000000000000000000000000000000081525061291d565b611506612a1f565b61150e612a1f565b611520600061151b611cbd565b612b1d565b61154c7f9f2df0fed2c77648de5860a4cc508cd0818c85b8b8a1ab4ceeef8d981c8956a661151b611cbd565b6115787f3c11d16cbaffd01df69ce1c404f6340ee057498f5f00246190ea54220576a84861151b611cbd565b61010380547fffffffffffffffffffffffff000000000000000000000000000000000000000090811673603c7f932ed1fc6575303d8fb018fdcbb0f39a9517918290556201518061010055600061010155610102805490911673ffffffffffffffffffffffffffffffffffffffff92909216919091179055801561127a57600080547fffffffffffffffffffffffffffffffffffffffffffffffffffffffffffff00ff16905550565b60fb602052816000526040600020818154811061163d57600080fd5b90600052602060002001600091509150505481565b60fe818154811061166257600080fd5b906000526020600020906003020160009150905080600001805461168590615799565b80601f01602080910402602001604051908101604052809291908181526020018280546116b190615799565b80156116fe5780601f106116d3576101008083540402835291602001916116fe565b820191906000526020600020905b8154815290600101906020018083116116e157829003601f168201915b50505050509080600101805461171390615799565b80601f016020809104026020016040519081016040528092919081815260200182805461173f90615799565b801561178c5780601f106117615761010080835404028352916020019161178c565b820191906000526020600020905b81548152906001019060200180831161176f57829003601f168201915b5050506002909301549192505060ff81169063ffffffff6101009091041684565b600091825260976020908152604080842073ffffffffffffffffffffffffffffffffffffffff93909316845291905290205460ff1690565b60606066805461063b90615799565b611801600061053b611cbd565b611837576040517f08c379a00000000000000000000000000000000000000000000000000000000081526004016106ff90614f61565b61127a7f9f2df0fed2c77648de5860a4cc508cd0818c85b8b8a1ab4ceeef8d981c8956a68261098b565b600081565b61186e611cbd565b73ffffffffffffffffffffffffffffffffffffffff168273ffffffffffffffffffffffffffffffffffffffff1614156118d3576040517f08c379a00000000000000000000000000000000000000000000000000000000081526004016106ff90614ecd565b80606a60006118e0611cbd565b73ffffffffffffffffffffffffffffffffffffffff90811682526020808301939093526040918201600090812091871680825291909352912080547fffffffffffffffffffffffffffffffffffffffffffffffffffffffffffffff00169215159290921790915561194f611cbd565b73ffffffffffffffffffffffffffffffffffffffff167f17307eab39ab6107e8899845ad3d59bd9653f200f220920489ca2b5937696c31836040516119949190614b63565b60405180910390a35050565b6101005481565b6119b86119b2611cbd565b83611d61565b6119ee576040517f08c379a00000000000000000000000000000000000000000000000000000000081526004016106ff9061552b565b6119fa84848484612b27565b50505050565b8073ffffffffffffffffffffffffffffffffffffffff16611a1f611cbd565b73ffffffffffffffffffffffffffffffffffffffff1614611a6c576040517f08c379a00000000000000000000000000000000000000000000000000000000081526004016106ff90614e13565b6101025473ffffffffffffffffffffffffffffffffffffffff166323b872dd611a93611cbd565b3060ff546040518463ffffffff1660e01b8152600401611ab593929190614ac3565b602060405180830381600087803b158015611acf57600080fd5b505af1158015611ae3573d6000803e3d6000fd5b505050506040513d601f19601f82011682018060405250810190611b0791906147de565b611b3d576040517f08c379a00000000000000000000000000000000000000000000000000000000081526004016106ff90614d59565b611b4681612b74565b60405173ffffffffffffffffffffffffffffffffffffffff8216907f4f5fce9dac7a4ad174ad4fc7735b35d728b96bbd367e690a1d69cf6fb1dc388f90600090a250565b60ff5490565b606061061e826135d4565b7f9f2df0fed2c77648de5860a4cc508cd0818c85b8b8a1ab4ceeef8d981c8956a681565b611bc882610952565b611bd4816109a0611cbd565b61083e8383612811565b73ffffffffffffffffffffffffffffffffffffffff9182166000908152606a6020908152604080832093909416825291909152205460ff1690565b606001514263ffffffff909116111590565b60fc6020526000908152604090205481565b60007fffffffff0000000000000000000000000000000000000000000000000000000082167f7965db0b00000000000000000000000000000000000000000000000000000000148061061e575061061e82613707565b60009081526067602052604090205473ffffffffffffffffffffffffffffffffffffffff16151590565b3390565b600081815260696020526040902080547fffffffffffffffffffffffff00000000000000000000000000000000000000001673ffffffffffffffffffffffffffffffffffffffff84169081179091558190611d1b82611177565b73ffffffffffffffffffffffffffffffffffffffff167f8c5be1e5ebec7d5bd14f71427d1e84f3dd0314c0f7b2291e5b200ac8c7c3b92560405160405180910390a45050565b6000611d6c82611c93565b611da2576040517f08c379a00000000000000000000000000000000000000000000000000000000081526004016106ff90614fbe565b6000611dad83611177565b90508073ffffffffffffffffffffffffffffffffffffffff168473ffffffffffffffffffffffffffffffffffffffff161480611e1c57508373ffffffffffffffffffffffffffffffffffffffff16611e04846106be565b73ffffffffffffffffffffffffffffffffffffffff16145b80611e2c5750611e2c8185611bde565b949350505050565b8273ffffffffffffffffffffffffffffffffffffffff16611e5482611177565b73ffffffffffffffffffffffffffffffffffffffff1614611ea1576040517f08c379a00000000000000000000000000000000000000000000000000000000081526004016106ff906153a6565b73ffffffffffffffffffffffffffffffffffffffff8216611eee576040517f08c379a00000000000000000000000000000000000000000000000000000000081526004016106ff90614e70565b611ef983838361083e565b611f04600082611cc1565b73ffffffffffffffffffffffffffffffffffffffff83166000908152606860205260408120805460019290611f3a908490615721565b909155505073ffffffffffffffffffffffffffffffffffffffff82166000908152606860205260408120805460019290611f759084906156b8565b909155505060008181526067602052604080822080547fffffffffffffffffffffffff00000000000000000000000000000000000000001673ffffffffffffffffffffffffffffffffffffffff86811691821790925591518493918716917fddf252ad1be2c89b69c2b068fc378daa952ba7f163c4a11628f55a4df523b3ef91a4505050565b61200582826117ad565b610ae75761202a8173ffffffffffffffffffffffffffffffffffffffff1660146137a9565b6120358360206137a9565b6040516020016120469291906149e6565b604080517fffffffffffffffffffffffffffffffffffffffffffffffffffffffffffffffe0818403018152908290527f08c379a00000000000000000000000000000000000000000000000000000000082526106ff91600401614b77565b6120ae82826117ad565b610ae757600082815260976020908152604080832073ffffffffffffffffffffffffffffffffffffffff85168452909152902080547fffffffffffffffffffffffffffffffffffffffffffffffffffffffffffffff00166001179055612112611cbd565b73ffffffffffffffffffffffffffffffffffffffff168173ffffffffffffffffffffffffffffffffffffffff16837f2f8788117e7eff1d82e926ec794901d17c78024a50270940304540a733656f0d60405160405180910390a45050565b60fe604051806080016040528085815260200184815260200160001515815260200161010054426121a191906156b8565b63ffffffff169052815460018101835560009283526020928390208251805193946003909302909101926121d8928492019061444d565b5060208281015180516121f1926001850192019061444d565b5060408201516002909101805460609093015163ffffffff16610100027fffffffffffffffffffffffffffffffffffffffffffffffffffffff00000000ff9215157fffffffffffffffffffffffffffffffffffffffffffffffffffffffffffffff00909416939093179190911691909117905560fe5460009061227690600190615721565b905060fd6000612284611cbd565b73ffffffffffffffffffffffffffffffffffffffff1681526020810191909152604001600020546122b69060016156b8565b60fd60006122c2611cbd565b73ffffffffffffffffffffffffffffffffffffffff1673ffffffffffffffffffffffffffffffffffffffff1681526020019081526020016000208190555060fb600061230c611cbd565b73ffffffffffffffffffffffffffffffffffffffff1681526020808201929092526040016000908120805460018101825590825291812090910182905560fb81612354611cbd565b73ffffffffffffffffffffffffffffffffffffffff1681526020810191909152604001600020549050612388600182615721565b600083815260fc60205260409020556123a18383613a86565b8273ffffffffffffffffffffffffffffffffffffffff167f76100589d24f116b2f78c318b15ec0467ffad044f08874847bcf803a92275e4c83876040516123e992919061569f565b60405180910390a2600085604051602001612404919061499b565b6040516020818303038152906040528051906020012090507fb5085a3cea164d12591f48051604fb6d1066acdee2e5155a1c7abd79ed8c8da08114156124535761244e8387613aa0565b612809565b7f9d3bf7124b61e82d689b373eb2aed8de9e41ba276be203dd1988ab3eb1048d608114156124855761244e8387613aa0565b7f80b5f3e5d0f36dabd4517a670e8057f64f1ae8b983a7083ba22d66e1e0385bd48114156124b75761244e8387613aa0565b7fd1c29cb2362f39ba94b762d92660109d3e3f9e284a77edbf7f4fc677b7e897be8114156124e95761244e8387613aa0565b7f08dfc263c9f31976ce2b0fb96af4b28cc9e205524c6d3fc0f8d6d0c4c8e93df681141561251b5761244e8387613aa0565b7f17697b5ac6233ad82fcaea85cde0449661dfb6a46fc90e9eb2bd9ede1f22239581141561254d5761244e8387613aa0565b7f2e20b925246d87c08ef56062ec5e5bbd3e08482af31d1301611de7031137a52581141561257f5761244e8387613aa0565b7f4e6d2957f40df34a7f1c697666e4eded550198566120df69be271a5bd1aae63f8114156125b15761244e8387613aa0565b7f28e7b4a4a8763ea53c43a807cd4f225ba29bc3791af442baf8317499f93ba92f8114156125e35761244e8387613aa0565b7f255e9aed028ea420cf34759a966e2bf2bb65cb34b55f813d20d908f97f14b6fc8114156126155761244e8387613aa0565b7f1578734913fa43b4a2ae0d5b00e23f40d01f19adb4ef4de7355e631933705fc38114156126475761244e8387613aa0565b7f84211f64f45951f1abd04d6da254ef593327bc081113d61185f2575c5bbda11e8114156126795761244e8387613aa0565b7fdfaabb4b545b074af3e76a9ba37721ec8aacdf88d39ed47997d18ebc72f96d738114156126ab5761244e8387613aa0565b7f15eef5bfea8da92e7e8fec353cef8b538633489b095e0b71a9d2a347f67036bd8114156126dd5761244e8387613aa0565b7f5b0082918b71b8b6d2ba97ae588314febc79a1233c8755a6d1086ae454e8d92781141561270f5761244e8387613aa0565b7fc2df6c4418b48daeff88f0a66ac5c8729ad66f0cd1532195d52f8e7a51c24b2c8114156127415761244e8387613aa0565b7f05611ac011f4c8af2adf5f5b850fe4359224029d343b8627d112910fc1943e188114156127735761244e8387613aa0565b7f0d8a0d0eff50bd638af0b084ca8c4b8ce2c9cabd8bc17c0a94b53fe5b6d34d638114156127a55761244e8387613aa0565b7f068216cf7f4d43effb14325a9dabdbdac4827e0c1cd74825ab4c4380812df4bf8114156127d75761244e8387613aa0565b7fb07a59ad74d8f488aad7c28c0525aa39a0bdd9cb110dd630981c3f9652dac3e7811415612809576128098387613aa0565b505050505050565b61281b82826117ad565b15610ae757600082815260976020908152604080832073ffffffffffffffffffffffffffffffffffffffff85168452909152902080547fffffffffffffffffffffffffffffffffffffffffffffffffffffffffffffff0016905561287d611cbd565b73ffffffffffffffffffffffffffffffffffffffff168173ffffffffffffffffffffffffffffffffffffffff16837ff6391f5c32d9c69d2a47ea670b442974b53935d1edc7fd64eb21e047a839171b60405160405180910390a45050565b61127a81613afe565b610100546128f290426156b8565b8160020160016101000a81548163ffffffff021916908363ffffffff16021790555050565b3b151590565b600054610100900460ff1680612936575060005460ff16155b61296c576040517f08c379a00000000000000000000000000000000000000000000000000000000081526004016106ff906151c6565b600054610100900460ff161580156129d257600080547fffffffffffffffffffffffffffffffffffffffffffffffffffffffffffffff007fffffffffffffffffffffffffffffffffffffffffffffffffffffffffffff00ff909116610100171660011790555b6129da613b3e565b6129e2613b3e565b6129ec8383613c23565b801561083e57600080547fffffffffffffffffffffffffffffffffffffffffffffffffffffffffffff00ff169055505050565b600054610100900460ff1680612a38575060005460ff16155b612a6e576040517f08c379a00000000000000000000000000000000000000000000000000000000081526004016106ff906151c6565b600054610100900460ff16158015612ad457600080547fffffffffffffffffffffffffffffffffffffffffffffffffffffffffffffff007fffffffffffffffffffffffffffffffffffffffffffffffffffffffffffff00ff909116610100171660011790555b612adc613b3e565b612ae4613b3e565b612aec613b3e565b801561127a57600080547fffffffffffffffffffffffffffffffffffffffffffffffffffffffffffff00ff16905550565b610ae782826120a4565b612b32848484611e34565b612b3e84848484613d33565b6119fa576040517f08c379a00000000000000000000000000000000000000000000000000000000081526004016106ff90614cc5565b6060808273ffffffffffffffffffffffffffffffffffffffff16612b96611cbd565b73ffffffffffffffffffffffffffffffffffffffff1614612be3576040517f08c379a00000000000000000000000000000000000000000000000000000000081526004016106ff90614f04565b6000612bed613ed1565b90506103e68110612c6d576040518060400160405280600981526020017f6a61736f6e6c616b65000000000000000000000000000000000000000000000081525092506040518060400160405280600681526020017f6d7974686963000000000000000000000000000000000000000000000000000081525091506135c9565b6103e48110612ceb576040518060400160405280600b81526020017f6469736369706c696e657200000000000000000000000000000000000000000081525092506040518060400160405280600681526020017f6d7974686963000000000000000000000000000000000000000000000000000081525091506135c9565b6103e2811115612d6a576040518060400160405280600981526020017f6e696768746d617265000000000000000000000000000000000000000000000081525092506040518060400160405280600681526020017f6d7974686963000000000000000000000000000000000000000000000000000081525091506135c9565b6103df811115612de9576040518060400160405280600581526020017f736172676500000000000000000000000000000000000000000000000000000081525092506040518060400160405280600981526020017f6c6567656e64617279000000000000000000000000000000000000000000000081525091506135c9565b6103db811115612e68576040518060400160405280600981526020017f6d6173746572736565000000000000000000000000000000000000000000000081525092506040518060400160405280600981526020017f6c6567656e64617279000000000000000000000000000000000000000000000081525091506135c9565b6103d8811115612ee7576040518060400160405280600481526020017f6c6f6b690000000000000000000000000000000000000000000000000000000081525092506040518060400160405280600981526020017f6c6567656e64617279000000000000000000000000000000000000000000000081525091506135c9565b6103b6811115612f66576040518060400160405280600681526020017f6a6167756172000000000000000000000000000000000000000000000000000081525092506040518060400160405280600481526020017f726172650000000000000000000000000000000000000000000000000000000081525091506135c9565b6103a2811115612fe5576040518060400160405280600a81526020017f706973746f6c706574650000000000000000000000000000000000000000000081525092506040518060400160405280600481526020017f726172650000000000000000000000000000000000000000000000000000000081525091506135c9565b61038e811115613064576040518060400160405280600581526020017f667265796100000000000000000000000000000000000000000000000000000081525092506040518060400160405280600481526020017f726172650000000000000000000000000000000000000000000000000000000081525091506135c9565b61037a8111156130e3576040518060400160405280600881526020017f6561676c6565796500000000000000000000000000000000000000000000000081525092506040518060400160405280600481526020017f726172650000000000000000000000000000000000000000000000000000000081525091506135c9565b610366811115613162576040518060400160405280600681526020017f72756d706c65000000000000000000000000000000000000000000000000000081525092506040518060400160405280600481526020017f726172650000000000000000000000000000000000000000000000000000000081525091506135c9565b6103528111156131e1576040518060400160405280600a81526020017f746572726f727269636b0000000000000000000000000000000000000000000081525092506040518060400160405280600481526020017f726172650000000000000000000000000000000000000000000000000000000081525091506135c9565b6102ee811115613260576040518060400160405280600481526020017f70756d700000000000000000000000000000000000000000000000000000000081525092506040518060400160405280600881526020017f556e636f6d6d6f6e00000000000000000000000000000000000000000000000081525091506135c9565b61028a8111156132df576040518060400160405280600681526020017f616374696f6e000000000000000000000000000000000000000000000000000081525092506040518060400160405280600881526020017f556e636f6d6d6f6e00000000000000000000000000000000000000000000000081525091506135c9565b6101f481111561335e576040518060400160405280600881526020017f6a696d72696d626f00000000000000000000000000000000000000000000000081525092506040518060400160405280600881526020017f556e636f6d6d6f6e00000000000000000000000000000000000000000000000081525091506135c9565b6101908111156133dd576040518060400160405280600a81526020017f6b65697468757262616e0000000000000000000000000000000000000000000081525092506040518060400160405280600681526020017f436f6d6d6f6e000000000000000000000000000000000000000000000000000081525091506135c9565b61012c81111561345c576040518060400160405280600581526020017f737465766500000000000000000000000000000000000000000000000000000081525092506040518060400160405280600681526020017f436f6d6d6f6e000000000000000000000000000000000000000000000000000081525091506135c9565b60c88111156134da576040518060400160405280600781526020017f776f6f647369650000000000000000000000000000000000000000000000000081525092506040518060400160405280600681526020017f436f6d6d6f6e000000000000000000000000000000000000000000000000000081525091506135c9565b6064811115613558576040518060400160405280600481526020017f7068696c0000000000000000000000000000000000000000000000000000000081525092506040518060400160405280600681526020017f436f6d6d6f6e000000000000000000000000000000000000000000000000000081525091506135c9565b6040518060400160405280600881526020017f6261736963626f6200000000000000000000000000000000000000000000000081525092506040518060400160405280600681526020017f436f6d6d6f6e000000000000000000000000000000000000000000000000000081525091505b6119fa838386612170565b60606135df82611c93565b613615576040517f08c379a00000000000000000000000000000000000000000000000000000000081526004016106ff906152ec565b600082815260c960205260408120805461362e90615799565b80601f016020809104026020016040519081016040528092919081815260200182805461365a90615799565b80156136a75780601f1061367c576101008083540402835291602001916136a7565b820191906000526020600020905b81548152906001019060200180831161368a57829003601f168201915b5050505050905060006136b8613f37565b90508051600014156136cc57509050610621565b8151156136fe5780826040516020016136e69291906149b7565b60405160208183030381529060405292505050610621565b611e2c84613f6e565b60007fffffffff0000000000000000000000000000000000000000000000000000000082167f80ac58cd00000000000000000000000000000000000000000000000000000000148061379a57507fffffffff0000000000000000000000000000000000000000000000000000000082167f5b5e139f00000000000000000000000000000000000000000000000000000000145b8061061e575061061e8261400a565b606060006137b88360026156e4565b6137c39060026156b8565b67ffffffffffffffff811115613802577f4e487b7100000000000000000000000000000000000000000000000000000000600052604160045260246000fd5b6040519080825280601f01601f19166020018201604052801561382c576020820181803683370190505b5090507f30000000000000000000000000000000000000000000000000000000000000008160008151811061388a577f4e487b7100000000000000000000000000000000000000000000000000000000600052603260045260246000fd5b60200101907effffffffffffffffffffffffffffffffffffffffffffffffffffffffffffff1916908160001a9053507f780000000000000000000000000000000000000000000000000000000000000081600181518110613914577f4e487b7100000000000000000000000000000000000000000000000000000000600052603260045260246000fd5b60200101907effffffffffffffffffffffffffffffffffffffffffffffffffffffffffffff1916908160001a90535060006139508460026156e4565b61395b9060016156b8565b90505b6001811115613a46577f303132333435363738396162636465660000000000000000000000000000000085600f16601081106139c3577f4e487b7100000000000000000000000000000000000000000000000000000000600052603260045260246000fd5b1a60f81b828281518110613a00577f4e487b7100000000000000000000000000000000000000000000000000000000600052603260045260246000fd5b60200101907effffffffffffffffffffffffffffffffffffffffffffffffffffffffffffff1916908160001a90535060049490941c93613a3f81615764565b905061395e565b508315613a7f576040517f08c379a00000000000000000000000000000000000000000000000000000000081526004016106ff90614bfc565b9392505050565b610ae7828260405180602001604052806000815250614054565b613aa982611c93565b613adf576040517f08c379a00000000000000000000000000000000000000000000000000000000081526004016106ff90615169565b600082815260c960209081526040909120825161083e9284019061444d565b613b07816140a1565b600081815260c9602052604090208054613b2090615799565b15905061127a57600081815260c96020526040812061127a916144d1565b600054610100900460ff1680613b57575060005460ff16155b613b8d576040517f08c379a00000000000000000000000000000000000000000000000000000000081526004016106ff906151c6565b600054610100900460ff16158015612aec57600080547fffffffffffffffffffffffffffffffffffffffffffffffffffffffffffffff007fffffffffffffffffffffffffffffffffffffffffffffffffffffffffffff00ff90911661010017166001179055801561127a57600080547fffffffffffffffffffffffffffffffffffffffffffffffffffffffffffff00ff16905550565b600054610100900460ff1680613c3c575060005460ff16155b613c72576040517f08c379a00000000000000000000000000000000000000000000000000000000081526004016106ff906151c6565b600054610100900460ff16158015613cd857600080547fffffffffffffffffffffffffffffffffffffffffffffffffffffffffffffff007fffffffffffffffffffffffffffffffffffffffffffffffffffffffffffff00ff909116610100171660011790555b8251613ceb90606590602086019061444d565b508151613cff90606690602085019061444d565b50801561083e57600080547fffffffffffffffffffffffffffffffffffffffffffffffffffffffffffff00ff169055505050565b6000613d548473ffffffffffffffffffffffffffffffffffffffff16612917565b15613ec6578373ffffffffffffffffffffffffffffffffffffffff1663150b7a02613d7d611cbd565b8786866040518563ffffffff1660e01b8152600401613d9f9493929190614af4565b602060405180830381600087803b158015613db957600080fd5b505af1925050508015613e07575060408051601f3d9081017fffffffffffffffffffffffffffffffffffffffffffffffffffffffffffffffe0168201909252613e0491810190614850565b60015b613e7b573d808015613e35576040519150601f19603f3d011682016040523d82523d6000602084013e613e3a565b606091505b508051613e73576040517f08c379a00000000000000000000000000000000000000000000000000000000081526004016106ff90614cc5565b805181602001fd5b7fffffffff00000000000000000000000000000000000000000000000000000000167f150b7a0200000000000000000000000000000000000000000000000000000000149050611e2c565b506001949350505050565b6000806103e842613ee0611cbd565b61010154604051602001613ef693929190614a67565b6040516020818303038152906040528051906020012060001c613f199190615826565b61010180549192506000613f2c836157ed565b909155509091505090565b60408051808201909152601f81527f68747470733a2f2f7777772e63727970746f67756e732e696f2f6a736f6e2f00602082015290565b6060613f7982611c93565b613faf576040517f08c379a00000000000000000000000000000000000000000000000000000000081526004016106ff90615403565b6000613fb9613f37565b90506000815111613fd95760405180602001604052806000815250613a7f565b80613fe38461417a565b604051602001613ff49291906149b7565b6040516020818303038152906040529392505050565b7fffffffff0000000000000000000000000000000000000000000000000000000081167f01ffc9a70000000000000000000000000000000000000000000000000000000014919050565b61405e83836142fb565b61406b6000848484613d33565b61083e576040517f08c379a00000000000000000000000000000000000000000000000000000000081526004016106ff90614cc5565b60006140ac82611177565b90506140ba8160008461083e565b6140c5600083611cc1565b73ffffffffffffffffffffffffffffffffffffffff811660009081526068602052604081208054600192906140fb908490615721565b909155505060008281526067602052604080822080547fffffffffffffffffffffffff00000000000000000000000000000000000000001690555183919073ffffffffffffffffffffffffffffffffffffffff8416907fddf252ad1be2c89b69c2b068fc378daa952ba7f163c4a11628f55a4df523b3ef908390a45050565b6060816141bb575060408051808201909152600181527f30000000000000000000000000000000000000000000000000000000000000006020820152610621565b8160005b81156141e557806141cf816157ed565b91506141de9050600a836156d0565b91506141bf565b60008167ffffffffffffffff811115614227577f4e487b7100000000000000000000000000000000000000000000000000000000600052604160045260246000fd5b6040519080825280601f01601f191660200182016040528015614251576020820181803683370190505b5090505b8415611e2c57614266600183615721565b9150614273600a86615826565b61427e9060306156b8565b60f81b8183815181106142ba577f4e487b7100000000000000000000000000000000000000000000000000000000600052603260045260246000fd5b60200101907effffffffffffffffffffffffffffffffffffffffffffffffffffffffffffff1916908160001a9053506142f4600a866156d0565b9450614255565b73ffffffffffffffffffffffffffffffffffffffff8216614348576040517f08c379a00000000000000000000000000000000000000000000000000000000081526004016106ff90615223565b61435181611c93565b15614388576040517f08c379a00000000000000000000000000000000000000000000000000000000081526004016106ff90614d22565b6143946000838361083e565b73ffffffffffffffffffffffffffffffffffffffff821660009081526068602052604081208054600192906143ca9084906156b8565b909155505060008181526067602052604080822080547fffffffffffffffffffffffff00000000000000000000000000000000000000001673ffffffffffffffffffffffffffffffffffffffff861690811790915590518392907fddf252ad1be2c89b69c2b068fc378daa952ba7f163c4a11628f55a4df523b3ef908290a45050565b82805461445990615799565b90600052602060002090601f01602090048101928261447b57600085556144c1565b82601f1061449457805160ff19168380011785556144c1565b828001600101855582156144c1579182015b828111156144c15782518255916020019190600101906144a6565b506144cd929150614509565b5090565b5080546144dd90615799565b6000825580601f106144ef575061127a565b601f01602090049060005260206000209081019061127a91905b5b808211156144cd576000815560010161450a565b600067ffffffffffffffff8084111561453957614539615898565b60405160207fffffffffffffffffffffffffffffffffffffffffffffffffffffffffffffffe0601f870116820101818110838211171561457b5761457b615898565b60405284815291508183850186101561459357600080fd5b8484602083013760006020868301015250509392505050565b803573ffffffffffffffffffffffffffffffffffffffff8116811461062157600080fd5b8035610621816158c7565b600082601f8301126145eb578081fd5b613a7f8383356020850161451e565b803563ffffffff8116811461062157600080fd5b60006020828403121561461f578081fd5b613a7f826145ac565b6000806040838503121561463a578081fd5b614643836145ac565b9150614651602084016145ac565b90509250929050565b60008060006060848603121561466e578081fd5b614677846145ac565b9250614685602085016145ac565b9150604084013590509250925092565b600080600080608085870312156146aa578081fd5b6146b3856145ac565b93506146c1602086016145ac565b925060408501359150606085013567ffffffffffffffff8111156146e3578182fd5b8501601f810187136146f3578182fd5b6147028782356020840161451e565b91505092959194509250565b60008060408385031215614720578182fd5b614729836145ac565b91506020830135614739816158c7565b809150509250929050565b600080600060608486031215614758578283fd5b614761846145ac565b9250602084013567ffffffffffffffff8082111561477d578384fd5b614789878388016145db565b9350604086013591508082111561479e578283fd5b506147ab868287016145db565b9150509250925092565b600080604083850312156147c7578182fd5b6147d0836145ac565b946020939093013593505050565b6000602082840312156147ef578081fd5b8151613a7f816158c7565b60006020828403121561480b578081fd5b5035919050565b60008060408385031215614824578182fd5b82359150614651602084016145ac565b600060208284031215614845578081fd5b8135613a7f816158d5565b600060208284031215614861578081fd5b8151613a7f816158d5565b60006020828403121561487d578081fd5b813567ffffffffffffffff80821115614894578283fd5b90830190608082860312156148a7578283fd5b6040516080810181811083821117156148c2576148c2615898565b6040528235828111156148d3578485fd5b6148df878286016145db565b8252506020830135828111156148f3578485fd5b6148ff878286016145db565b602083015250614911604084016145d0565b6040820152614922606084016145fa565b606082015295945050505050565b60008060408385031215614942578182fd5b50508035926020909101359150565b60008151808452614969816020860160208601615738565b601f017fffffffffffffffffffffffffffffffffffffffffffffffffffffffffffffffe0169290920160200192915050565b600082516149ad818460208701615738565b9190910192915050565b600083516149c9818460208801615738565b8351908301906149dd818360208801615738565b01949350505050565b60007f416363657373436f6e74726f6c3a206163636f756e742000000000000000000082528351614a1e816017850160208801615738565b7f206973206d697373696e6720726f6c65200000000000000000000000000000006017918401918201528351614a5b816028840160208801615738565b01602801949350505050565b92835260609190911b7fffffffffffffffffffffffffffffffffffffffff000000000000000000000000166020830152603482015260540190565b73ffffffffffffffffffffffffffffffffffffffff91909116815260200190565b73ffffffffffffffffffffffffffffffffffffffff9384168152919092166020820152604081019190915260600190565b600073ffffffffffffffffffffffffffffffffffffffff808716835280861660208401525083604083015260806060830152614b336080830184614951565b9695505050505050565b73ffffffffffffffffffffffffffffffffffffffff929092168252602082015260400190565b901515815260200190565b90815260200190565b600060208252613a7f6020830184614951565b600060408252614b9d6040830185614951565b8281036020840152614baf8185614951565b95945050505050565b600060808252614bcb6080830187614951565b8281036020840152614bdd8187614951565b9415156040840152505063ffffffff9190911660609091015292915050565b6020808252818101527f537472696e67733a20686578206c656e67746820696e73756666696369656e74604082015260600190565b60208082526036908201527f54686520616363657074656420746f6b656e2061646472657373206d7573742060408201527f62652061206465706c6f79656420636f6e747261637400000000000000000000606082015260800190565b6020808252601e908201527f50726963652063616e206e6f74206265206d6f7265207468616e203230730000604082015260600190565b60208082526032908201527f4552433732313a207472616e7366657220746f206e6f6e20455243373231526560408201527f63656976657220696d706c656d656e7465720000000000000000000000000000606082015260800190565b6020808252601c908201527f4552433732313a20746f6b656e20616c7265616479206d696e74656400000000604082015260600190565b60208082526023908201527f5472616e7366657272696e67207468652073616c6520616d6f756e742066616960408201527f6c65640000000000000000000000000000000000000000000000000000000000606082015260800190565b60208082526039908201527f596f75206d757374206f776e207468652063686172616374657220796f75206160408201527f726520747279696e6720746f2075706772616465207769746800000000000000606082015260800190565b60208082526035908201527f4120706c617965722063616e206f6e6c7920627579206368617261637465727360408201527f20666f72207468656972206f776e2077616c6c65740000000000000000000000606082015260800190565b60208082526024908201527f4552433732313a207472616e7366657220746f20746865207a65726f2061646460408201527f7265737300000000000000000000000000000000000000000000000000000000606082015260800190565b60208082526019908201527f4552433732313a20617070726f766520746f2063616c6c657200000000000000604082015260600190565b6020808252602b908201527f4120706c617965722063616e206f6e6c79206d696e7420746f2074686569722060408201527f6f776e2077616c6c65742e000000000000000000000000000000000000000000606082015260800190565b6020808252602e908201527f4d75737420686176652061646d696e20726f6c6520746f20706572666f726d2060408201527f74686973206f7065726174696f6e000000000000000000000000000000000000606082015260800190565b6020808252602c908201527f4552433732313a206f70657261746f7220717565727920666f72206e6f6e657860408201527f697374656e7420746f6b656e0000000000000000000000000000000000000000606082015260800190565b60208082526038908201527f4552433732313a20617070726f76652063616c6c6572206973206e6f74206f7760408201527f6e6572206e6f7220617070726f76656420666f7220616c6c0000000000000000606082015260800190565b6020808252601d908201527f5573657220646f6573206e6f7420686176652041646d696e20526f6c65000000604082015260600190565b6020808252602a908201527f4552433732313a2062616c616e636520717565727920666f7220746865207a6560408201527f726f206164647265737300000000000000000000000000000000000000000000606082015260800190565b60208082526029908201527f4552433732313a206f776e657220717565727920666f72206e6f6e657869737460408201527f656e7420746f6b656e0000000000000000000000000000000000000000000000606082015260800190565b6020808252602e908201527f45524337323155524953746f726167653a2055524920736574206f66206e6f6e60408201527f6578697374656e7420746f6b656e000000000000000000000000000000000000606082015260800190565b6020808252602e908201527f496e697469616c697a61626c653a20636f6e747261637420697320616c72656160408201527f647920696e697469616c697a6564000000000000000000000000000000000000606082015260800190565b6020808252818101527f4552433732313a206d696e7420746f20746865207a65726f2061646472657373604082015260600190565b60208082526022908201527f596f75722063686172616374657220697320616c72656164792075706772616460408201527f6564000000000000000000000000000000000000000000000000000000000000606082015260800190565b60208082526019908201527f50726963652063616e206e6f74206c657373207468616e203100000000000000604082015260600190565b60208082526031908201527f45524337323155524953746f726167653a2055524920717565727920666f722060408201527f6e6f6e6578697374656e7420746f6b656e000000000000000000000000000000606082015260800190565b6020808252602c908201527f4552433732313a20617070726f76656420717565727920666f72206e6f6e657860408201527f697374656e7420746f6b656e0000000000000000000000000000000000000000606082015260800190565b60208082526029908201527f4552433732313a207472616e73666572206f6620746f6b656e2074686174206960408201527f73206e6f74206f776e0000000000000000000000000000000000000000000000606082015260800190565b6020808252602f908201527f4552433732314d657461646174613a2055524920717565727920666f72206e6f60408201527f6e6578697374656e7420746f6b656e0000000000000000000000000000000000606082015260800190565b60208082526021908201527f4552433732313a20617070726f76616c20746f2063757272656e74206f776e6560408201527f7200000000000000000000000000000000000000000000000000000000000000606082015260800190565b60208082526016908201527f546f6b656e496420646f6573206e6f7420657869737400000000000000000000604082015260600190565b60208082526011908201527f417070726f76616c204465636c696e6564000000000000000000000000000000604082015260600190565b60208082526031908201527f4552433732313a207472616e736665722063616c6c6572206973206e6f74206f60408201527f776e6572206e6f7220617070726f766564000000000000000000000000000000606082015260800190565b60208082526034908201527f596f75206d757374206f776e207468652063686172616374657220796f75206160408201527f726520747279696e6720746f2075706772616465000000000000000000000000606082015260800190565b60208082526025908201527f5472616e7366657272696e67207468652064657369726520616d6f756e74206660408201527f61696c6564000000000000000000000000000000000000000000000000000000606082015260800190565b6020808252602f908201527f416363657373436f6e74726f6c3a2063616e206f6e6c792072656e6f756e636560408201527f20726f6c657320666f722073656c660000000000000000000000000000000000606082015260800190565b600083825260406020830152611e2c6040830184614951565b600082198211156156cb576156cb61583a565b500190565b6000826156df576156df615869565b500490565b6000817fffffffffffffffffffffffffffffffffffffffffffffffffffffffffffffffff048311821515161561571c5761571c61583a565b500290565b6000828210156157335761573361583a565b500390565b60005b8381101561575357818101518382015260200161573b565b838111156119fa5750506000910152565b6000816157735761577361583a565b507fffffffffffffffffffffffffffffffffffffffffffffffffffffffffffffffff0190565b6002810460018216806157ad57607f821691505b602082108114156157e7577f4e487b7100000000000000000000000000000000000000000000000000000000600052602260045260246000fd5b50919050565b60007fffffffffffffffffffffffffffffffffffffffffffffffffffffffffffffffff82141561581f5761581f61583a565b5060010190565b60008261583557615835615869565b500690565b7f4e487b7100000000000000000000000000000000000000000000000000000000600052601160045260246000fd5b7f4e487b7100000000000000000000000000000000000000000000000000000000600052601260045260246000fd5b7f4e487b7100000000000000000000000000000000000000000000000000000000600052604160045260246000fd5b801515811461127a57600080fd5b7fffffffff000000000000000000000000000000000000000000000000000000008116811461127a57600080fdfea264697066735822122076e8cc899db861a7a99f46f71e9f4dd934781de950f25b6c0fdb0791e68997b664736f6c63430008000033",
  "immutableReferences": {},
  "source": "// SPDX-License-Identifier: MIT\r\npragma solidity ^0.8.0;\r\n\r\nimport \"./safemath32.sol\";\r\nimport \"./ERC20Interface.sol\";\r\nimport \"@openzeppelin/contracts-upgradeable/proxy/utils/Initializable.sol\";\r\nimport \"@openzeppelin/contracts-upgradeable/token/ERC721/ERC721Upgradeable.sol\";\r\nimport \"@openzeppelin/contracts-upgradeable/access/AccessControlUpgradeable.sol\";\r\nimport \"@openzeppelin/contracts-upgradeable/token/ERC721/extensions/ERC721BurnableUpgradeable.sol\";\r\nimport \"@openzeppelin/contracts-upgradeable/token/ERC721/extensions/ERC721URIStorageUpgradeable.sol\";\r\n//import \"./VRFConsumerBaseUpgradeable.sol\";\r\n\r\n\r\ncontract CryptoGuns is ERC721Upgradeable, AccessControlUpgradeable, ERC721URIStorageUpgradeable{\r\n  using AddressUpgradeable for address;\r\n  using SafeMath32 for uint32;\r\n  using SafeMath16 for uint16;\r\n\r\n  struct Swat {\r\n    string name;\r\n    string rarity;\r\n    bool upgraded;\r\n    uint32 readyTime;\r\n  }\r\n\r\n//Events\r\nevent NewSwat(address indexed _player, uint _swatId, string _name);\r\nevent Burn(address indexed _player, uint256 _swatId);\r\nevent SwatPriceSet(uint newPrice);\r\nevent NewSpecificSwat(address indexed _receivingPlayer, string _name, string _rarity);\r\nevent Purchased(address indexed _receivingPlayer);\r\nevent TokenWithdrawal(uint _amount);\r\n\r\n\r\n//Mappings\r\nmapping(address => uint[]) public userOwnedSwats; //tokenID of swat units in wallet\r\nmapping(uint => uint) public swatIsAtIndex; // index of the tokenID in the wallet\r\nmapping (address => uint) public ownerSwatCount; //# of swat units in wallet\r\n//VRF MAPPINGS\r\n//mapping(bytes32 => address) requestToSender;\r\n//mapping(bytes32 => uint256) requestToTokenId;\r\n\r\n// Access Control Roles\r\nbytes32 public constant MINTER_ROLE = keccak256(\"MINTER_ROLE\");\r\nbytes32 public constant BURNER_ROLE = keccak256(\"BURNER_ROLE\");\r\n\r\n//Variables\r\nSwat[] public swats;\r\n\r\n//VRF VARIABLES\r\n//bytes32 internal keyHash;\r\n//uint256 internal fee;\r\n//uint256 public roll;\r\n//address public VRFCoordinator;\r\n// bsc testnet: 0xa555fC018435bef5A13C6c6870a9d4C11DEC329C\r\n//address public LinkToken;\r\n// bsc testnet: 0x84b9B910527Ad5C03A9Ca831909E21e236EA7b06\r\nuint public swatPrice; // in banana\r\nuint public cooldownTime;\r\nuint nonce;\r\nERC20Interface public acceptedToken;\r\naddress public _acceptedToken;\r\n\r\n //VRF FUNCTION\r\n // /**\r\n //     * initialize inherits VRFConsumerBase\r\n //     *\r\n //     * Network: Binance Smart Chain Testnet\r\n //     * Chainlink VRF Coordinator address: 0xa555fC018435bef5A13C6c6870a9d4C11DEC329C\r\n //     * LINK token address:                0x84b9B910527Ad5C03A9Ca831909E21e236EA7b06\r\n //     * Key Hash: 0xcaf3c3727e033261d383b315559476f48034c13b18f8cafed4d871abe5049186\r\n //     */\r\nfunction initialize() public initializer {\r\n  // VRF PARAMs address _VRFCoordinator, address _LinkToken,  bytes32 _keyhash\r\n     __ERC721_init(\"CryptoGuns Squad Members\", \"SquadMembers\");\r\n     __AccessControl_init();\r\n     __ERC721URIStorage_init();\r\n     // __VRFConsumerBase_init(_VRFCoordinator, _LinkToken);\r\n     _setupRole(DEFAULT_ADMIN_ROLE, _msgSender());\r\n     _setupRole(MINTER_ROLE, _msgSender());\r\n     _setupRole(BURNER_ROLE, _msgSender());\r\n         // for mainnet address bananaAdress = 0x603c7f932ed1fc6575303d8fb018fdcbb0f39a95;\r\n         // we made a test simple bep20token for testnet.\r\n     _acceptedToken = 0x603c7f932ED1fc6575303D8Fb018fDCBb0f39a95;\r\n\r\n      cooldownTime = 1 days;\r\n      nonce = 0;\r\n      acceptedToken = ERC20Interface(_acceptedToken);\r\n\r\n      // VRFCoordinator = _VRFCoordinator;\r\n      //  LinkToken = _LinkToken;\r\n      //  keyHash = _keyhash;\r\n      // fee = 0.1 * 10**18; // 0.1 LINK\r\n}\r\n  function _baseURI() internal pure override returns (string memory) {\r\n    return \"https://www.cryptoguns.io/json/\";\r\n  }\r\n\r\nfunction addAdmin(address account) public virtual {\r\n  require(hasRole(DEFAULT_ADMIN_ROLE, _msgSender()), \"Must have admin role to perform this operation\");\r\n  grantRole(DEFAULT_ADMIN_ROLE, account);\r\n }\r\n function addMinter(address account) public virtual {\r\n   require(hasRole(DEFAULT_ADMIN_ROLE, _msgSender()), \"Must have admin role to perform this operation\");\r\n   grantRole(MINTER_ROLE, account);\r\n  }\r\n\r\n\r\n //VRF FUNCTIONS\r\n //**\r\n //    * Requests randomness\r\n //    */\r\n //   function getRandomNumber() public returns (bytes32 requestId) {\r\n //       require(LINK.balanceOf(address(this)) >= fee, \"Not enough LINK - fill contract with faucet\");\r\n //       requestId = requestRandomness(keyHash, fee);\r\n //       requestToSender[requestId] = msg.sender;\r\n //       return requestRandomness(keyHash, fee);\r\n //   }\r\n\r\n\r\n\r\n   // function withdrawLink() external {} - Implement a withdraw function to avoid locking your LINK in the contract\r\n\r\n//assigns URI to swat based on name & rarity. Unity Engine reads the URI to pull character attributes for in-game stats.\r\n  function _mintSwat(string memory _name, string memory _rarity, address _owner) internal {\r\n\r\n    swats.push(Swat(_name, _rarity, false, uint32(block.timestamp + cooldownTime)));\r\n    uint id = swats.length - 1;\r\n    ownerSwatCount[_msgSender()] = ownerSwatCount[_msgSender()] + 1;\r\n    userOwnedSwats[_msgSender()].push(id);\r\n    uint ownedSwatLength = userOwnedSwats[_msgSender()].length;\r\n    swatIsAtIndex[id] = ownedSwatLength -1;\r\n    _safeMint(_owner, id);\r\n    emit NewSwat( _owner, id, _name);\r\n    //bytes32 rarity = keccak256(abi.encodePacked(_rarity));\r\n    bytes32 swatName = keccak256(abi.encodePacked(_name));\r\n    if(swatName == keccak256(\"jason\")){\r\n      _setTokenURI(id, _name);\r\n    }\r\n      else if(swatName == keccak256(\"discipliner\")){\r\n      _setTokenURI(id,_name);\r\n    }\r\n      else if(swatName == keccak256(\"nightmare\")){\r\n      _setTokenURI(id, _name);\r\n      }\r\n      else if(swatName == keccak256(\"sarge\")){\r\n         _setTokenURI(id, _name);\r\n       }\r\n       else if(swatName == keccak256(\"mastersee\")){\r\n         _setTokenURI(id, _name);\r\n       }\r\n       else if(swatName == keccak256(\"loki\")){\r\n         _setTokenURI(id, _name);\r\n       }\r\n          else if(swatName == keccak256(\"jaguar\")){\r\n        _setTokenURI(id, _name);\r\n      }\r\n      else if(swatName == keccak256(\"pistolpete.\")){\r\n        _setTokenURI(id, _name);\r\n      }\r\n      else if(swatName == keccak256(\"freya\")){\r\n        _setTokenURI(id, _name);\r\n      }\r\n      else if(swatName == keccak256(\"eagleeye\")){\r\n        _setTokenURI(id, _name);\r\n      }\r\n      else if(swatName == keccak256(\"rumple\")){\r\n        _setTokenURI(id, _name);\r\n      }\r\n      else if(swatName == keccak256(\"terrorrick\")){\r\n      _setTokenURI(id, _name);\r\n      }\r\n      else if(swatName == keccak256(\"pump\")){\r\n        _setTokenURI(id, _name);\r\n      }\r\n      else if(swatName == keccak256(\"action\")){\r\n        _setTokenURI(id, _name);\r\n      }\r\n        else if(swatName == keccak256(\"jimrimbo\")){\r\n        _setTokenURI(id, _name);\r\n      }\r\n      else if(swatName == keccak256(\"keithurban\")){\r\n        _setTokenURI(id, _name);\r\n      }\r\n      else if(swatName == keccak256(\"steve\")){\r\n        _setTokenURI(id, _name);\r\n      }\r\n      else if(swatName == keccak256(\"woodsie\")){\r\n        _setTokenURI(id, _name);\r\n      }\r\n      else if(swatName == keccak256(\"phil\")){\r\n        _setTokenURI(id, _name);\r\n      }\r\n      else if(swatName == keccak256(\"basicbob\")){\r\n        _setTokenURI(id, _name);\r\n     }\r\n    }\r\n\r\n  function _randomRoll() internal returns (uint) {\r\n    uint randomnumber = uint(keccak256(abi.encodePacked(block.timestamp, _msgSender(), nonce))) % 1000;\r\n    nonce++;\r\n    return randomnumber;\r\n  }\r\n//\r\n// VRF Function\r\n// function fulfillRandomness(bytes32 requestId, uint256 randomness) internal override {\r\n//     roll = (randomness % 1000) + 1;\r\n  function mintRandomSwat(address _owner) internal {\r\n    string memory randName;\r\n    string memory randRarity;\r\n require(_msgSender() == _owner, \"A player can only mint to their own wallet.\");\r\n    // .2% for mythic, .7% for legendary, 10% for rare, 35% uncommon, rest Common\r\n    uint roll = _randomRoll();\r\n    if(roll >= 998) {\r\n      randName = \"jasonlake\";\r\n      randRarity = \"mythic\";}\r\n    else if(roll >= 996)\r\n      {randName = \"discipliner\";\r\n      randRarity = \"mythic\";}\r\n    else if(roll > 994)\r\n      {randName = \"nightmare\";\r\n      randRarity = \"mythic\";}\r\n\r\n    else if(roll > 991){\r\n      randName = \"sarge\";\r\n      randRarity = \"legendary\";}\r\n    else if(roll > 987){\r\n      randName = \"mastersee\";\r\n      randRarity = \"legendary\";}\r\n    else if(roll > 984){\r\n      randName = \"loki\";\r\n      randRarity = \"legendary\";}\r\n\r\n    else if(roll > 950){\r\n      randName = \"jaguar\";\r\n      randRarity = \"rare\";}\r\n    else if(roll > 930){\r\n      randName = \"pistolpete\";\r\n      randRarity = \"rare\";}\r\n    else if(roll > 910){\r\n      randName = \"freya\";\r\n      randRarity = \"rare\";}\r\n    else if(roll > 890){\r\n      randName = \"eagleeye\";\r\n      randRarity = \"rare\";}\r\n    else if(roll > 870){\r\n      randName = \"rumple\";\r\n      randRarity = \"rare\";}\r\n    else if(roll > 850){\r\n      randName = \"terrorrick\";\r\n      randRarity = \"rare\"; }\r\n\r\n    else if(roll > 750)\r\n      {randName = \"pump\";\r\n      randRarity = \"Uncommon\"; }\r\n    else if(roll > 650)\r\n      {randName = \"action\";\r\n      randRarity = \"Uncommon\"; }\r\n    else if(roll > 500){\r\n      randName = \"jimrimbo\";\r\n      randRarity = \"Uncommon\"; }\r\n\r\n    else if(roll > 400){\r\n      randName = \"keithurban\";\r\n      randRarity = \"Common\"; }\r\n    else if(roll > 300){\r\n      randName = \"steve\";\r\n      randRarity = \"Common\"; }\r\n    else if(roll > 200){\r\n      randName = \"woodsie\";\r\n      randRarity = \"Common\"; }\r\n    else if(roll > 100){\r\n      randName = \"phil\";\r\n      randRarity = \"Common\"; }\r\n    else {\r\n      randName = \"basicbob\";\r\n      randRarity = \"Common\"; }\r\n  _mintSwat(randName, randRarity, _owner);\r\n}\r\n\r\n//for promotions/giveaways/in-game rewards\r\nfunction mintSpecificSwat(address _owner, string memory _name, string memory _rarity) public{\r\n  require(hasRole(MINTER_ROLE, _msgSender()), \"User does not have Admin Role\");\r\n _mintSwat(_name, _rarity, _owner);\r\n emit NewSpecificSwat(_owner, _name, _rarity);\r\n}\r\n\r\n\r\n//if owner has duplicates, can burn one to turn the first into \"upgraded\"\r\nfunction duplicateUpgrade(uint _swatId, uint _targetId) public{\r\n   require(_exists(_swatId), \"TokenId does not exist\");\r\n   require(_exists(_targetId), \"TokenId does not exist\");\r\n   require(ownerOf(_swatId) == _msgSender(), \"You must own the character you are trying to upgrade\");\r\n   require(ownerOf(_targetId) == _msgSender(), \"You must own the character you are trying to upgrade with\");\r\n  Swat storage mySwat = swats[_swatId];\r\n  require(mySwat.upgraded == false, \"Your character is already upgraded\");\r\n  mySwat.upgraded = true;\r\n  _burn(_targetId);\r\n  emit Burn(_msgSender(), _targetId);\r\n  _triggerCooldown(mySwat);\r\n\r\n}\r\n\r\n\r\n\r\n//overrides duplicate functions begins here\r\n  function supportsInterface(bytes4 interfaceId) public view virtual override(ERC721Upgradeable, AccessControlUpgradeable) returns (bool) {\r\n          return super.supportsInterface(interfaceId);\r\n\r\n        }\r\n\r\n  function  _burn(uint256 tokenId) internal virtual override(ERC721Upgradeable, ERC721URIStorageUpgradeable) {\r\n\r\n          // uint256 index = swatIsAtIndex[_targetId];\r\n          // ownerSwatCount[_msgSender()] = ownerSwatCount[_msgSender()] - 1;\r\n          //delete userOwnedSwats[msg.sender][index];\r\n          return super._burn(tokenId);\r\n  }\r\n\r\n\r\n  function tokenURI(uint256 tokenId) public view virtual override (ERC721Upgradeable, ERC721URIStorageUpgradeable) returns (string memory) {\r\n          return super.tokenURI(tokenId);\r\n  }\r\n\r\n// getters/setters\r\n  function getSwatName(uint _swatId) public view returns (string memory) {\r\n    return swats[_swatId].name;\r\n  }\r\n\r\n\r\n  function getRarity(uint _swatId) public view returns (string memory) {\r\n    return swats[_swatId].rarity;\r\n  }\r\n\r\n  function getReadyTime(uint _swatId) public view returns (uint) {\r\n    return swats[_swatId].readyTime;\r\n  }\r\n\r\n  function getUpgraded(uint _swatId) public view returns (bool) {\r\n    return swats[_swatId].upgraded;\r\n  }\r\n\r\n\r\n  function _triggerCooldown(Swat storage _swat) internal {\r\n    _swat.readyTime = uint32(block.timestamp + cooldownTime);\r\n  }\r\n\r\n  function _isReady(Swat memory _swat) public view returns (bool) {\r\n      return (_swat.readyTime <= block.timestamp);\r\n  }\r\n\r\n//  BuyNFT Functions\r\n//Use Approve function on token on front-end UI before running this.\r\n  function buyNFT(address _buyer) public {\r\n    require(_msgSender() == _buyer, \"A player can only buy characters for their own wallet\");\r\n     require(acceptedToken.transferFrom(_msgSender(), address(this), swatPrice), \"Transferring the sale amount failed\");\r\n         mintRandomSwat(_buyer);\r\n         emit Purchased(_buyer);\r\n      }\r\n\r\n\r\n     function setSwatPrice(uint256 _price) public {\r\n        require(hasRole(DEFAULT_ADMIN_ROLE, _msgSender()), \"User does not have Admin Role\");\r\n       require(_price > 1, \"Price can not less than 1\");\r\n       require(_price != 20, \"Price can not be more than 20s\");\r\n       swatPrice = _price;\r\n     }\r\n\r\n     function getSwatPrice() public view returns (uint256) {\r\n         return swatPrice;\r\n     }\r\n\r\n     function setAcceptedToken(address newAcceptedToken) public {\r\n       require(hasRole(DEFAULT_ADMIN_ROLE, _msgSender()), \"Must have admin role to perform this operation\");\r\n       require(newAcceptedToken.isContract(), \"The accepted token address must be a deployed contract\");\r\n         _acceptedToken = newAcceptedToken;\r\n     }\r\n\r\n     function withdrawToken (uint _amount) external{\r\n     require(hasRole(DEFAULT_ADMIN_ROLE, _msgSender()), \"Must have admin role to perform this operation\");\r\n     require(acceptedToken.approve(_msgSender(), _amount), \"Approval Declined\");\r\n     require(acceptedToken.transferFrom(address(this), _msgSender(), _amount), \"Transferring the desire amount failed\");\r\n     emit TokenWithdrawal(_amount);\r\n     }\r\n}\r\n",
  "sourcePath": "C:\\Users\\accoo\\Documents\\CGContractTest\\contracts\\CryptoGuns.sol",
  "compiler": {
    "name": "solc",
    "version": "0.8.0+commit.c7dfd78e.Emscripten.clang"
  },
  "schemaVersion": "3.4.2",
  "updatedAt": "2021-11-13T01:01:06.061Z",
  "networkType": "ethereum",
  "devdoc": {
    "kind": "dev",
    "methods": {
      "approve(address,uint256)": {
        "details": "See {IERC721-approve}."
      },
      "balanceOf(address)": {
        "details": "See {IERC721-balanceOf}."
      },
      "getApproved(uint256)": {
        "details": "See {IERC721-getApproved}."
      },
      "getRoleAdmin(bytes32)": {
        "details": "Returns the admin role that controls `role`. See {grantRole} and {revokeRole}. To change a role's admin, use {_setRoleAdmin}."
      },
      "grantRole(bytes32,address)": {
        "details": "Grants `role` to `account`. If `account` had not been already granted `role`, emits a {RoleGranted} event. Requirements: - the caller must have ``role``'s admin role."
      },
      "hasRole(bytes32,address)": {
        "details": "Returns `true` if `account` has been granted `role`."
      },
      "isApprovedForAll(address,address)": {
        "details": "See {IERC721-isApprovedForAll}."
      },
      "name()": {
        "details": "See {IERC721Metadata-name}."
      },
      "ownerOf(uint256)": {
        "details": "See {IERC721-ownerOf}."
      },
      "renounceRole(bytes32,address)": {
        "details": "Revokes `role` from the calling account. Roles are often managed via {grantRole} and {revokeRole}: this function's purpose is to provide a mechanism for accounts to lose their privileges if they are compromised (such as when a trusted device is misplaced). If the calling account had been granted `role`, emits a {RoleRevoked} event. Requirements: - the caller must be `account`."
      },
      "revokeRole(bytes32,address)": {
        "details": "Revokes `role` from `account`. If `account` had been granted `role`, emits a {RoleRevoked} event. Requirements: - the caller must have ``role``'s admin role."
      },
      "safeTransferFrom(address,address,uint256)": {
        "details": "See {IERC721-safeTransferFrom}."
      },
      "safeTransferFrom(address,address,uint256,bytes)": {
        "details": "See {IERC721-safeTransferFrom}."
      },
      "setApprovalForAll(address,bool)": {
        "details": "See {IERC721-setApprovalForAll}."
      },
      "symbol()": {
        "details": "See {IERC721Metadata-symbol}."
      },
      "transferFrom(address,address,uint256)": {
        "details": "See {IERC721-transferFrom}."
      }
    },
    "version": 1
  },
  "userdoc": {
    "kind": "user",
    "methods": {},
    "version": 1
  }
}