{
  "contractName": "CryptoGuns",
  "abi": [
    {
      "anonymous": false,
      "inputs": [
        {
          "indexed": true,
          "internalType": "address",
          "name": "owner",
          "type": "address"
        },
        {
          "indexed": true,
          "internalType": "address",
          "name": "approved",
          "type": "address"
        },
        {
          "indexed": true,
          "internalType": "uint256",
          "name": "tokenId",
          "type": "uint256"
        }
      ],
      "name": "Approval",
      "type": "event"
    },
    {
      "anonymous": false,
      "inputs": [
        {
          "indexed": true,
          "internalType": "address",
          "name": "owner",
          "type": "address"
        },
        {
          "indexed": true,
          "internalType": "address",
          "name": "operator",
          "type": "address"
        },
        {
          "indexed": false,
          "internalType": "bool",
          "name": "approved",
          "type": "bool"
        }
      ],
      "name": "ApprovalForAll",
      "type": "event"
    },
    {
      "anonymous": false,
      "inputs": [
        {
          "indexed": false,
          "internalType": "uint256",
          "name": "swatId",
          "type": "uint256"
        },
        {
          "indexed": false,
          "internalType": "string",
          "name": "name",
          "type": "string"
        },
        {
          "indexed": false,
          "internalType": "string",
          "name": "rarity",
          "type": "string"
        }
      ],
      "name": "NewSwat",
      "type": "event"
    },
    {
      "anonymous": false,
      "inputs": [
        {
          "indexed": true,
          "internalType": "address",
          "name": "previousOwner",
          "type": "address"
        },
        {
          "indexed": true,
          "internalType": "address",
          "name": "newOwner",
          "type": "address"
        }
      ],
      "name": "OwnershipTransferred",
      "type": "event"
    },
    {
      "anonymous": false,
      "inputs": [
        {
          "indexed": false,
          "internalType": "address",
          "name": "buyer",
          "type": "address"
        }
      ],
      "name": "Purchased",
      "type": "event"
    },
    {
      "anonymous": false,
      "inputs": [
        {
          "indexed": true,
          "internalType": "bytes32",
          "name": "role",
          "type": "bytes32"
        },
        {
          "indexed": true,
          "internalType": "bytes32",
          "name": "previousAdminRole",
          "type": "bytes32"
        },
        {
          "indexed": true,
          "internalType": "bytes32",
          "name": "newAdminRole",
          "type": "bytes32"
        }
      ],
      "name": "RoleAdminChanged",
      "type": "event"
    },
    {
      "anonymous": false,
      "inputs": [
        {
          "indexed": true,
          "internalType": "bytes32",
          "name": "role",
          "type": "bytes32"
        },
        {
          "indexed": true,
          "internalType": "address",
          "name": "account",
          "type": "address"
        },
        {
          "indexed": true,
          "internalType": "address",
          "name": "sender",
          "type": "address"
        }
      ],
      "name": "RoleGranted",
      "type": "event"
    },
    {
      "anonymous": false,
      "inputs": [
        {
          "indexed": true,
          "internalType": "bytes32",
          "name": "role",
          "type": "bytes32"
        },
        {
          "indexed": true,
          "internalType": "address",
          "name": "account",
          "type": "address"
        },
        {
          "indexed": true,
          "internalType": "address",
          "name": "sender",
          "type": "address"
        }
      ],
      "name": "RoleRevoked",
      "type": "event"
    },
    {
      "anonymous": false,
      "inputs": [
        {
          "indexed": true,
          "internalType": "address",
          "name": "from",
          "type": "address"
        },
        {
          "indexed": true,
          "internalType": "address",
          "name": "to",
          "type": "address"
        },
        {
          "indexed": true,
          "internalType": "uint256",
          "name": "tokenId",
          "type": "uint256"
        }
      ],
      "name": "Transfer",
      "type": "event"
    },
    {
      "inputs": [],
      "name": "DEFAULT_ADMIN_ROLE",
      "outputs": [
        {
          "internalType": "bytes32",
          "name": "",
          "type": "bytes32"
        }
      ],
      "stateMutability": "view",
      "type": "function",
      "constant": true
    },
    {
      "inputs": [],
      "name": "_acceptedToken",
      "outputs": [
        {
          "internalType": "address",
          "name": "",
          "type": "address"
        }
      ],
      "stateMutability": "view",
      "type": "function",
      "constant": true
    },
    {
      "inputs": [
        {
          "internalType": "address",
          "name": "to",
          "type": "address"
        },
        {
          "internalType": "uint256",
          "name": "tokenId",
          "type": "uint256"
        }
      ],
      "name": "approve",
      "outputs": [],
      "stateMutability": "nonpayable",
      "type": "function"
    },
    {
      "inputs": [
        {
          "internalType": "address",
          "name": "owner",
          "type": "address"
        }
      ],
      "name": "balanceOf",
      "outputs": [
        {
          "internalType": "uint256",
          "name": "",
          "type": "uint256"
        }
      ],
      "stateMutability": "view",
      "type": "function",
      "constant": true
    },
    {
      "inputs": [
        {
          "internalType": "uint256",
          "name": "tokenId",
          "type": "uint256"
        }
      ],
      "name": "getApproved",
      "outputs": [
        {
          "internalType": "address",
          "name": "",
          "type": "address"
        }
      ],
      "stateMutability": "view",
      "type": "function",
      "constant": true
    },
    {
      "inputs": [
        {
          "internalType": "bytes32",
          "name": "role",
          "type": "bytes32"
        }
      ],
      "name": "getRoleAdmin",
      "outputs": [
        {
          "internalType": "bytes32",
          "name": "",
          "type": "bytes32"
        }
      ],
      "stateMutability": "view",
      "type": "function",
      "constant": true
    },
    {
      "inputs": [
        {
          "internalType": "bytes32",
          "name": "role",
          "type": "bytes32"
        },
        {
          "internalType": "address",
          "name": "account",
          "type": "address"
        }
      ],
      "name": "grantRole",
      "outputs": [],
      "stateMutability": "nonpayable",
      "type": "function"
    },
    {
      "inputs": [
        {
          "internalType": "bytes32",
          "name": "role",
          "type": "bytes32"
        },
        {
          "internalType": "address",
          "name": "account",
          "type": "address"
        }
      ],
      "name": "hasRole",
      "outputs": [
        {
          "internalType": "bool",
          "name": "",
          "type": "bool"
        }
      ],
      "stateMutability": "view",
      "type": "function",
      "constant": true
    },
    {
      "inputs": [
        {
          "internalType": "address",
          "name": "owner",
          "type": "address"
        },
        {
          "internalType": "address",
          "name": "operator",
          "type": "address"
        }
      ],
      "name": "isApprovedForAll",
      "outputs": [
        {
          "internalType": "bool",
          "name": "",
          "type": "bool"
        }
      ],
      "stateMutability": "view",
      "type": "function",
      "constant": true
    },
    {
      "inputs": [],
      "name": "name",
      "outputs": [
        {
          "internalType": "string",
          "name": "",
          "type": "string"
        }
      ],
      "stateMutability": "view",
      "type": "function",
      "constant": true
    },
    {
      "inputs": [],
      "name": "owner",
      "outputs": [
        {
          "internalType": "address",
          "name": "",
          "type": "address"
        }
      ],
      "stateMutability": "view",
      "type": "function",
      "constant": true
    },
    {
      "inputs": [
        {
          "internalType": "uint256",
          "name": "tokenId",
          "type": "uint256"
        }
      ],
      "name": "ownerOf",
      "outputs": [
        {
          "internalType": "address",
          "name": "",
          "type": "address"
        }
      ],
      "stateMutability": "view",
      "type": "function",
      "constant": true
    },
    {
      "inputs": [
        {
          "internalType": "address",
          "name": "",
          "type": "address"
        }
      ],
      "name": "ownerSwatCount",
      "outputs": [
        {
          "internalType": "uint256",
          "name": "",
          "type": "uint256"
        }
      ],
      "stateMutability": "view",
      "type": "function",
      "constant": true
    },
    {
      "inputs": [],
      "name": "renounceOwnership",
      "outputs": [],
      "stateMutability": "nonpayable",
      "type": "function"
    },
    {
      "inputs": [
        {
          "internalType": "bytes32",
          "name": "role",
          "type": "bytes32"
        },
        {
          "internalType": "address",
          "name": "account",
          "type": "address"
        }
      ],
      "name": "renounceRole",
      "outputs": [],
      "stateMutability": "nonpayable",
      "type": "function"
    },
    {
      "inputs": [
        {
          "internalType": "bytes32",
          "name": "role",
          "type": "bytes32"
        },
        {
          "internalType": "address",
          "name": "account",
          "type": "address"
        }
      ],
      "name": "revokeRole",
      "outputs": [],
      "stateMutability": "nonpayable",
      "type": "function"
    },
    {
      "inputs": [
        {
          "internalType": "address",
          "name": "from",
          "type": "address"
        },
        {
          "internalType": "address",
          "name": "to",
          "type": "address"
        },
        {
          "internalType": "uint256",
          "name": "tokenId",
          "type": "uint256"
        }
      ],
      "name": "safeTransferFrom",
      "outputs": [],
      "stateMutability": "nonpayable",
      "type": "function"
    },
    {
      "inputs": [
        {
          "internalType": "address",
          "name": "from",
          "type": "address"
        },
        {
          "internalType": "address",
          "name": "to",
          "type": "address"
        },
        {
          "internalType": "uint256",
          "name": "tokenId",
          "type": "uint256"
        },
        {
          "internalType": "bytes",
          "name": "_data",
          "type": "bytes"
        }
      ],
      "name": "safeTransferFrom",
      "outputs": [],
      "stateMutability": "nonpayable",
      "type": "function"
    },
    {
      "inputs": [
        {
          "internalType": "address",
          "name": "operator",
          "type": "address"
        },
        {
          "internalType": "bool",
          "name": "approved",
          "type": "bool"
        }
      ],
      "name": "setApprovalForAll",
      "outputs": [],
      "stateMutability": "nonpayable",
      "type": "function"
    },
    {
      "inputs": [
        {
          "internalType": "uint256",
          "name": "",
          "type": "uint256"
        }
      ],
      "name": "swatIsAtIndex",
      "outputs": [
        {
          "internalType": "uint256",
          "name": "",
          "type": "uint256"
        }
      ],
      "stateMutability": "view",
      "type": "function",
      "constant": true
    },
    {
      "inputs": [
        {
          "internalType": "uint256",
          "name": "",
          "type": "uint256"
        }
      ],
      "name": "swatToOwner",
      "outputs": [
        {
          "internalType": "address",
          "name": "",
          "type": "address"
        }
      ],
      "stateMutability": "view",
      "type": "function",
      "constant": true
    },
    {
      "inputs": [
        {
          "internalType": "uint256",
          "name": "",
          "type": "uint256"
        }
      ],
      "name": "swats",
      "outputs": [
        {
          "internalType": "string",
          "name": "name",
          "type": "string"
        },
        {
          "internalType": "string",
          "name": "rarity",
          "type": "string"
        },
        {
          "internalType": "uint32",
          "name": "level",
          "type": "uint32"
        },
        {
          "internalType": "bool",
          "name": "upgraded",
          "type": "bool"
        },
        {
          "internalType": "uint32",
          "name": "readyTime",
          "type": "uint32"
        }
      ],
      "stateMutability": "view",
      "type": "function",
      "constant": true
    },
    {
      "inputs": [],
      "name": "symbol",
      "outputs": [
        {
          "internalType": "string",
          "name": "",
          "type": "string"
        }
      ],
      "stateMutability": "view",
      "type": "function",
      "constant": true
    },
    {
      "inputs": [
        {
          "internalType": "address",
          "name": "from",
          "type": "address"
        },
        {
          "internalType": "address",
          "name": "to",
          "type": "address"
        },
        {
          "internalType": "uint256",
          "name": "tokenId",
          "type": "uint256"
        }
      ],
      "name": "transferFrom",
      "outputs": [],
      "stateMutability": "nonpayable",
      "type": "function"
    },
    {
      "inputs": [
        {
          "internalType": "address",
          "name": "newOwner",
          "type": "address"
        }
      ],
      "name": "transferOwnership",
      "outputs": [],
      "stateMutability": "nonpayable",
      "type": "function"
    },
    {
      "inputs": [
        {
          "internalType": "address",
          "name": "",
          "type": "address"
        },
        {
          "internalType": "uint256",
          "name": "",
          "type": "uint256"
        }
      ],
      "name": "userOwnedSwats",
      "outputs": [
        {
          "internalType": "uint256",
          "name": "",
          "type": "uint256"
        }
      ],
      "stateMutability": "view",
      "type": "function",
      "constant": true
    },
    {
      "inputs": [],
      "name": "initialize",
      "outputs": [],
      "stateMutability": "nonpayable",
      "type": "function"
    },
    {
      "inputs": [
        {
          "internalType": "address",
          "name": "_owner",
          "type": "address"
        },
        {
          "internalType": "string",
          "name": "_name",
          "type": "string"
        },
        {
          "internalType": "string",
          "name": "_rarity",
          "type": "string"
        }
      ],
      "name": "mintSpecificSwat",
      "outputs": [],
      "stateMutability": "nonpayable",
      "type": "function"
    },
    {
      "inputs": [
        {
          "internalType": "uint256",
          "name": "_swatId",
          "type": "uint256"
        },
        {
          "internalType": "uint256",
          "name": "_targetId",
          "type": "uint256"
        }
      ],
      "name": "duplicateUpgrade",
      "outputs": [],
      "stateMutability": "nonpayable",
      "type": "function"
    },
    {
      "inputs": [
        {
          "internalType": "bytes4",
          "name": "interfaceId",
          "type": "bytes4"
        }
      ],
      "name": "supportsInterface",
      "outputs": [
        {
          "internalType": "bool",
          "name": "",
          "type": "bool"
        }
      ],
      "stateMutability": "view",
      "type": "function",
      "constant": true
    },
    {
      "inputs": [
        {
          "internalType": "uint256",
          "name": "tokenId",
          "type": "uint256"
        }
      ],
      "name": "tokenURI",
      "outputs": [
        {
          "internalType": "string",
          "name": "",
          "type": "string"
        }
      ],
      "stateMutability": "view",
      "type": "function",
      "constant": true
    },
    {
      "inputs": [
        {
          "internalType": "uint256",
          "name": "_swatId",
          "type": "uint256"
        }
      ],
      "name": "levelUp",
      "outputs": [],
      "stateMutability": "payable",
      "type": "function",
      "payable": true
    },
    {
      "inputs": [
        {
          "internalType": "uint256",
          "name": "_swatId",
          "type": "uint256"
        }
      ],
      "name": "getLevel",
      "outputs": [
        {
          "internalType": "uint256",
          "name": "",
          "type": "uint256"
        }
      ],
      "stateMutability": "view",
      "type": "function",
      "constant": true
    },
    {
      "inputs": [
        {
          "internalType": "uint256",
          "name": "_swatId",
          "type": "uint256"
        }
      ],
      "name": "getName",
      "outputs": [
        {
          "internalType": "string",
          "name": "",
          "type": "string"
        }
      ],
      "stateMutability": "view",
      "type": "function",
      "constant": true
    },
    {
      "inputs": [
        {
          "internalType": "uint256",
          "name": "_swatId",
          "type": "uint256"
        }
      ],
      "name": "getRarity",
      "outputs": [
        {
          "internalType": "string",
          "name": "",
          "type": "string"
        }
      ],
      "stateMutability": "view",
      "type": "function",
      "constant": true
    },
    {
      "inputs": [
        {
          "internalType": "uint256",
          "name": "_swatId",
          "type": "uint256"
        }
      ],
      "name": "getReadyTime",
      "outputs": [
        {
          "internalType": "uint256",
          "name": "",
          "type": "uint256"
        }
      ],
      "stateMutability": "view",
      "type": "function",
      "constant": true
    },
    {
      "inputs": [
        {
          "internalType": "uint256",
          "name": "_swatId",
          "type": "uint256"
        }
      ],
      "name": "getUpgraded",
      "outputs": [
        {
          "internalType": "bool",
          "name": "",
          "type": "bool"
        }
      ],
      "stateMutability": "view",
      "type": "function",
      "constant": true
    },
    {
      "inputs": [
        {
          "internalType": "address",
          "name": "addr",
          "type": "address"
        }
      ],
      "name": "setToken",
      "outputs": [],
      "stateMutability": "nonpayable",
      "type": "function"
    },
    {
      "inputs": [
        {
          "internalType": "uint256",
          "name": "tokenId",
          "type": "uint256"
        }
      ],
      "name": "getTokenPrice",
      "outputs": [
        {
          "internalType": "uint256",
          "name": "",
          "type": "uint256"
        }
      ],
      "stateMutability": "view",
      "type": "function",
      "constant": true
    },
    {
      "inputs": [
        {
          "internalType": "uint256",
          "name": "_price",
          "type": "uint256"
        }
      ],
      "name": "setSwatPrice",
      "outputs": [],
      "stateMutability": "nonpayable",
      "type": "function"
    },
    {
      "inputs": [
        {
          "internalType": "address",
          "name": "_buyer",
          "type": "address"
        }
      ],
      "name": "buyNFT",
      "outputs": [],
      "stateMutability": "payable",
      "type": "function",
      "payable": true
    }
  ],
  "bytecode": "0x608060405234801561001057600080fd5b50615a9580620000216000396000f3fe6080604052600436106102c65760003560e01c80636c30f94e1161017957806395d89b41116100d6578063c457fb371161008a578063e985e9c511610064578063e985e9c514610774578063f25ac4e714610794578063f2fde38b146107b4576102c6565b8063c457fb3714610714578063c87b56dd14610734578063d547741f14610754576102c6565b8063a22cb465116100bb578063a22cb465146106c1578063b88d4fde146106e1578063ba79b56414610701576102c6565b806395d89b4114610697578063a217fddf146106ac576102c6565b80638429c57a1161012d578063875bd33f11610112578063875bd33f146106425780638da5cb5b1461066257806391d1485414610677576102c6565b80638429c57a146105f157806386481d4014610622576102c6565b8063715018a61161015e578063715018a6146105a75780638129fc1c146105bc57806381597d12146105d1576102c6565b80636c30f94e1461056757806370a0823114610587576102c6565b80632f2ff15d1161022757806348758697116101db5780635ea67396116101c05780635ea67396146105075780636352211e146105275780636b8ff57414610547576102c6565b806348758697146104d25780634e5b3c7c146104f2576102c6565b806336568abe1161020c57806336568abe1461047257806342842e0e1461049257806344ac6766146104b2576102c6565b80632f2ff15d146104325780633255ef2e14610452576102c6565b80630baf140d1161027e578063144fa6d711610263578063144fa6d7146103d257806323b872dd146103f2578063248a9ca314610412576102c6565b80630baf140d1461039f5780630ce90ec2146103bf576102c6565b8063081812fc116102af578063081812fc1461032357806308a720e814610350578063095ea7b31461037d576102c6565b806301ffc9a7146102cb57806306fdde0314610301575b600080fd5b3480156102d757600080fd5b506102eb6102e6366004614aef565b6107d4565b6040516102f89190614cfb565b60405180910390f35b34801561030d57600080fd5b506103166107e7565b6040516102f89190614d0f565b34801561032f57600080fd5b5061034361033e366004614ab5565b610879565b6040516102f89190614c91565b34801561035c57600080fd5b5061037061036b3660046148e1565b6108ec565b6040516102f89190614d06565b34801561038957600080fd5b5061039d610398366004614a8c565b6108ff565b005b3480156103ab57600080fd5b5061039d6103ba366004614ab5565b6109ff565b61039d6103cd366004614ab5565b610a88565b3480156103de57600080fd5b5061039d6103ed3660046148e1565b610b96565b3480156103fe57600080fd5b5061039d61040d36600461492d565b610c51565b34801561041e57600080fd5b5061037061042d366004614ab5565b610ca3565b34801561043e57600080fd5b5061039d61044d366004614acd565b610cb8565b34801561045e57600080fd5b5061039d61046d366004614a1b565b610cdc565b34801561047e57600080fd5b5061039d61048d366004614acd565b610d5a565b34801561049e57600080fd5b5061039d6104ad36600461492d565b610dd4565b3480156104be57600080fd5b5061039d6104cd366004614b27565b610def565b3480156104de57600080fd5b506103166104ed366004614ab5565b610ef0565b3480156104fe57600080fd5b50610343611041565b34801561051357600080fd5b50610370610522366004614ab5565b61105e565b34801561053357600080fd5b50610343610542366004614ab5565b611137565b34801561055357600080fd5b50610316610562366004614ab5565b611193565b34801561057357600080fd5b506102eb610582366004614ab5565b61125f565b34801561059357600080fd5b506103706105a23660046148e1565b611334565b3480156105b357600080fd5b5061039d6113ac565b3480156105c857600080fd5b5061039d61142b565b3480156105dd57600080fd5b506103706105ec366004614a8c565b6115b8565b3480156105fd57600080fd5b5061061161060c366004614ab5565b6115ea565b6040516102f8959493929190614d22565b34801561062e57600080fd5b5061037061063d366004614ab5565b611755565b34801561064e57600080fd5b5061034361065d366004614ab5565b611825565b34801561066e57600080fd5b5061034361184e565b34801561068357600080fd5b506102eb610692366004614acd565b61186a565b3480156106a357600080fd5b506103166118a2565b3480156106b857600080fd5b506103706118b1565b3480156106cd57600080fd5b5061039d6106dc3660046149e1565b6118b6565b3480156106ed57600080fd5b5061039d6106fc366004614968565b6119f0565b61039d61070f3660046148e1565b611a49565b34801561072057600080fd5b5061037061072f366004614ab5565b611b03565b34801561074057600080fd5b5061031661074f366004614ab5565b611b16565b34801561076057600080fd5b5061039d61076f366004614acd565b611b21565b34801561078057600080fd5b506102eb61078f3660046148fb565b611b40565b3480156107a057600080fd5b506103706107af366004614ab5565b611b7b565b3480156107c057600080fd5b5061039d6107cf3660046148e1565b611b8e565b60006107df82611c57565b90505b919050565b6060606580546107f69061560b565b80601f01602080910402602001604051908101604052809291908181526020018280546108229061560b565b801561086f5780601f106108445761010080835404028352916020019161086f565b820191906000526020600020905b81548152906001019060200180831161085257829003601f168201915b5050505050905090565b600061088482611cad565b6108c3576040517f08c379a00000000000000000000000000000000000000000000000000000000081526004016108ba90615246565b60405180910390fd5b5060009081526069602052604090205473ffffffffffffffffffffffffffffffffffffffff1690565b6101336020526000908152604090205481565b600061090a82611137565b90508073ffffffffffffffffffffffffffffffffffffffff168373ffffffffffffffffffffffffffffffffffffffff161415610972576040517f08c379a00000000000000000000000000000000000000000000000000000000081526004016108ba906153c9565b8073ffffffffffffffffffffffffffffffffffffffff16610991611cd7565b73ffffffffffffffffffffffffffffffffffffffff1614806109ba57506109ba8161078f611cd7565b6109f0576040517f08c379a00000000000000000000000000000000000000000000000000000000081526004016108ba90614fe3565b6109fa8383611cdb565b505050565b610a07611cd7565b73ffffffffffffffffffffffffffffffffffffffff16610a2561184e565b73ffffffffffffffffffffffffffffffffffffffff1614610a72576040517f08c379a00000000000000000000000000000000000000000000000000000000081526004016108ba906152a3565b8061013154610a819190615556565b61012f5550565b610a9360003361186a565b610ac9576040517f08c379a00000000000000000000000000000000000000000000000000000000081526004016108ba90615392565b61012d8181548110610b04577f4e487b7100000000000000000000000000000000000000000000000000000000600052603260045260246000fd5b6000918252602090912060026003909202010154610b299063ffffffff166001615523565b61012d8281548110610b64577f4e487b7100000000000000000000000000000000000000000000000000000000600052603260045260246000fd5b906000526020600020906003020160020160006101000a81548163ffffffff021916908363ffffffff16021790555050565b610b9e611cd7565b73ffffffffffffffffffffffffffffffffffffffff16610bbc61184e565b73ffffffffffffffffffffffffffffffffffffffff1614610c09576040517f08c379a00000000000000000000000000000000000000000000000000000000081526004016108ba906152a3565b61012e80547fffffffffffffffffffffffff00000000000000000000000000000000000000001673ffffffffffffffffffffffffffffffffffffffff92909216919091179055565b610c62610c5c611cd7565b82611d7b565b610c98576040517f08c379a00000000000000000000000000000000000000000000000000000000081526004016108ba90615426565b6109fa838383611e4e565b600090815260c9602052604090206001015490565b610cc182610ca3565b610cd281610ccd611cd7565b612015565b6109fa83836120be565b610ce4611cd7565b73ffffffffffffffffffffffffffffffffffffffff16610d0261184e565b73ffffffffffffffffffffffffffffffffffffffff1614610d4f576040517f08c379a00000000000000000000000000000000000000000000000000000000081526004016108ba906152a3565b6109fa82828561218a565b610d62611cd7565b73ffffffffffffffffffffffffffffffffffffffff168173ffffffffffffffffffffffffffffffffffffffff1614610dc6576040517f08c379a00000000000000000000000000000000000000000000000000000000081526004016108ba90615483565b610dd0828261297d565b5050565b6109fa838383604051806020016040528060008152506119f0565b33610df983611137565b73ffffffffffffffffffffffffffffffffffffffff1614610e1957600080fd5b33610e2382611137565b73ffffffffffffffffffffffffffffffffffffffff1614610e4357600080fd5b600061012d8381548110610e80577f4e487b7100000000000000000000000000000000000000000000000000000000600052603260045260246000fd5b600091825260209091206003909102016002810154909150640100000000900460ff1615610ead57600080fd5b6002810180547fffffffffffffffffffffffffffffffffffffffffffffffffffffff00ffffffff16640100000000179055610ee782612a47565b6109fa81612a50565b6060610efa611cd7565b73ffffffffffffffffffffffffffffffffffffffff16610f1861184e565b73ffffffffffffffffffffffffffffffffffffffff1614610f65576040517f08c379a00000000000000000000000000000000000000000000000000000000081526004016108ba906152a3565b61012d8281548110610fa0577f4e487b7100000000000000000000000000000000000000000000000000000000600052603260045260246000fd5b90600052602060002090600302016001018054610fbc9061560b565b80601f0160208091040260200160405190810160405280929190818152602001828054610fe89061560b565b80156110355780601f1061100a57610100808354040283529160200191611035565b820191906000526020600020905b81548152906001019060200180831161101857829003601f168201915b50505050509050919050565b61012e5473ffffffffffffffffffffffffffffffffffffffff1681565b6000611068611cd7565b73ffffffffffffffffffffffffffffffffffffffff1661108661184e565b73ffffffffffffffffffffffffffffffffffffffff16146110d3576040517f08c379a00000000000000000000000000000000000000000000000000000000081526004016108ba906152a3565b61012d828154811061110e577f4e487b7100000000000000000000000000000000000000000000000000000000600052603260045260246000fd5b600091825260209091206003909102016002015465010000000000900463ffffffff1692915050565b60008181526067602052604081205473ffffffffffffffffffffffffffffffffffffffff16806107df576040517f08c379a00000000000000000000000000000000000000000000000000000000081526004016108ba9061509d565b606061119d611cd7565b73ffffffffffffffffffffffffffffffffffffffff166111bb61184e565b73ffffffffffffffffffffffffffffffffffffffff1614611208576040517f08c379a00000000000000000000000000000000000000000000000000000000081526004016108ba906152a3565b61012d8281548110611243577f4e487b7100000000000000000000000000000000000000000000000000000000600052603260045260246000fd5b90600052602060002090600302016000018054610fbc9061560b565b6000611269611cd7565b73ffffffffffffffffffffffffffffffffffffffff1661128761184e565b73ffffffffffffffffffffffffffffffffffffffff16146112d4576040517f08c379a00000000000000000000000000000000000000000000000000000000081526004016108ba906152a3565b61012d828154811061130f577f4e487b7100000000000000000000000000000000000000000000000000000000600052603260045260246000fd5b6000918252602090912060039091020160020154640100000000900460ff1692915050565b600073ffffffffffffffffffffffffffffffffffffffff8216611383576040517f08c379a00000000000000000000000000000000000000000000000000000000081526004016108ba90615040565b5073ffffffffffffffffffffffffffffffffffffffff1660009081526068602052604090205490565b6113b4611cd7565b73ffffffffffffffffffffffffffffffffffffffff166113d261184e565b73ffffffffffffffffffffffffffffffffffffffff161461141f576040517f08c379a00000000000000000000000000000000000000000000000000000000081526004016108ba906152a3565b6114296000612a83565b565b600054610100900460ff1680611444575060005460ff16155b61147a576040517f08c379a00000000000000000000000000000000000000000000000000000000081526004016108ba90615157565b600054610100900460ff161580156114e057600080547fffffffffffffffffffffffffffffffffffffffffffffffffffffffffffffff007fffffffffffffffffffffffffffffffffffffffffffffffffffffffffffff00ff909116610100171660011790555b6115546040518060400160405280601881526020017f43727970746f47756e73205371756164204d656d6265727300000000000000008152506040518060400160405280600c81526020017f53717561644d656d626572730000000000000000000000000000000000000000815250612afa565b61155c612bfc565b611564612cfa565b61156c612bfc565b61157e6000611579611cd7565b612dbf565b620151806101305580156115b557600080547fffffffffffffffffffffffffffffffffffffffffffffffffffffffffffff00ff1690555b50565b61013460205281600052604060002081815481106115d557600080fd5b90600052602060002001600091509150505481565b61012d81815481106115fb57600080fd5b906000526020600020906003020160009150905080600001805461161e9061560b565b80601f016020809104026020016040519081016040528092919081815260200182805461164a9061560b565b80156116975780601f1061166c57610100808354040283529160200191611697565b820191906000526020600020905b81548152906001019060200180831161167a57829003601f168201915b5050505050908060010180546116ac9061560b565b80601f01602080910402602001604051908101604052809291908181526020018280546116d89061560b565b80156117255780601f106116fa57610100808354040283529160200191611725565b820191906000526020600020905b81548152906001019060200180831161170857829003601f168201915b5050506002909301549192505063ffffffff8082169160ff64010000000082041691650100000000009091041685565b600061175f611cd7565b73ffffffffffffffffffffffffffffffffffffffff1661177d61184e565b73ffffffffffffffffffffffffffffffffffffffff16146117ca576040517f08c379a00000000000000000000000000000000000000000000000000000000081526004016108ba906152a3565b61012d8281548110611805577f4e487b7100000000000000000000000000000000000000000000000000000000600052603260045260246000fd5b600091825260209091206003909102016002015463ffffffff1692915050565b6101326020526000908152604090205473ffffffffffffffffffffffffffffffffffffffff1681565b60975473ffffffffffffffffffffffffffffffffffffffff1690565b600091825260c96020908152604080842073ffffffffffffffffffffffffffffffffffffffff93909316845291905290205460ff1690565b6060606680546107f69061560b565b600081565b6118be611cd7565b73ffffffffffffffffffffffffffffffffffffffff168273ffffffffffffffffffffffffffffffffffffffff161415611923576040517f08c379a00000000000000000000000000000000000000000000000000000000081526004016108ba90614ef2565b80606a6000611930611cd7565b73ffffffffffffffffffffffffffffffffffffffff90811682526020808301939093526040918201600090812091871680825291909352912080547fffffffffffffffffffffffffffffffffffffffffffffffffffffffffffffff00169215159290921790915561199f611cd7565b73ffffffffffffffffffffffffffffffffffffffff167f17307eab39ab6107e8899845ad3d59bd9653f200f220920489ca2b5937696c31836040516119e49190614cfb565b60405180910390a35050565b611a016119fb611cd7565b83611d7b565b611a37576040517f08c379a00000000000000000000000000000000000000000000000000000000081526004016108ba90615426565b611a4384848484612dc9565b50505050565b3373ffffffffffffffffffffffffffffffffffffffff821614611a6b57600080fd5b33611a7557600080fd5b61012f54341015611ab2576040517f08c379a00000000000000000000000000000000000000000000000000000000081526004016108ba90614f29565b611ac0333061012f54610dd4565b611ac933612e16565b7f4f5fce9dac7a4ad174ad4fc7735b35d728b96bbd367e690a1d69cf6fb1dc388f33604051611af89190614c91565b60405180910390a150565b6000908152610136602052604090205490565b60606107df82613844565b611b2a82610ca3565b611b3681610ccd611cd7565b6109fa838361297d565b73ffffffffffffffffffffffffffffffffffffffff9182166000908152606a6020908152604080832093909416825291909152205460ff1690565b6101356020526000908152604090205481565b611b96611cd7565b73ffffffffffffffffffffffffffffffffffffffff16611bb461184e565b73ffffffffffffffffffffffffffffffffffffffff1614611c01576040517f08c379a00000000000000000000000000000000000000000000000000000000081526004016108ba906152a3565b73ffffffffffffffffffffffffffffffffffffffff8116611c4e576040517f08c379a00000000000000000000000000000000000000000000000000000000081526004016108ba90614e01565b6115b581612a83565b60007fffffffff0000000000000000000000000000000000000000000000000000000082167f7965db0b0000000000000000000000000000000000000000000000000000000014806107df57506107df82613977565b60009081526067602052604090205473ffffffffffffffffffffffffffffffffffffffff16151590565b3390565b600081815260696020526040902080547fffffffffffffffffffffffff00000000000000000000000000000000000000001673ffffffffffffffffffffffffffffffffffffffff84169081179091558190611d3582611137565b73ffffffffffffffffffffffffffffffffffffffff167f8c5be1e5ebec7d5bd14f71427d1e84f3dd0314c0f7b2291e5b200ac8c7c3b92560405160405180910390a45050565b6000611d8682611cad565b611dbc576040517f08c379a00000000000000000000000000000000000000000000000000000000081526004016108ba90614f86565b6000611dc783611137565b90508073ffffffffffffffffffffffffffffffffffffffff168473ffffffffffffffffffffffffffffffffffffffff161480611e3657508373ffffffffffffffffffffffffffffffffffffffff16611e1e84610879565b73ffffffffffffffffffffffffffffffffffffffff16145b80611e465750611e468185611b40565b949350505050565b8273ffffffffffffffffffffffffffffffffffffffff16611e6e82611137565b73ffffffffffffffffffffffffffffffffffffffff1614611ebb576040517f08c379a00000000000000000000000000000000000000000000000000000000081526004016108ba906152d8565b73ffffffffffffffffffffffffffffffffffffffff8216611f08576040517f08c379a00000000000000000000000000000000000000000000000000000000081526004016108ba90614e95565b611f138383836109fa565b611f1e600082611cdb565b73ffffffffffffffffffffffffffffffffffffffff83166000908152606860205260408120805460019290611f54908490615593565b909155505073ffffffffffffffffffffffffffffffffffffffff82166000908152606860205260408120805460019290611f8f90849061550b565b909155505060008181526067602052604080822080547fffffffffffffffffffffffff00000000000000000000000000000000000000001673ffffffffffffffffffffffffffffffffffffffff86811691821790925591518493918716917fddf252ad1be2c89b69c2b068fc378daa952ba7f163c4a11628f55a4df523b3ef91a4505050565b61201f828261186a565b610dd0576120448173ffffffffffffffffffffffffffffffffffffffff166014613a19565b61204f836020613a19565b604051602001612060929190614bdd565b604080517fffffffffffffffffffffffffffffffffffffffffffffffffffffffffffffffe0818403018152908290527f08c379a00000000000000000000000000000000000000000000000000000000082526108ba91600401614d0f565b6120c8828261186a565b610dd057600082815260c96020908152604080832073ffffffffffffffffffffffffffffffffffffffff85168452909152902080547fffffffffffffffffffffffffffffffffffffffffffffffffffffffffffffff0016600117905561212c611cd7565b73ffffffffffffffffffffffffffffffffffffffff168173ffffffffffffffffffffffffffffffffffffffff16837f2f8788117e7eff1d82e926ec794901d17c78024a50270940304540a733656f0d60405160405180910390a45050565b61012d6040518060a00160405280858152602001848152602001600163ffffffff16815260200160001515815260200161013054426121c9919061550b565b63ffffffff16905281546001810183556000928352602092839020825180519394600390930290910192612200928492019061473f565b506020828101518051612219926001850192019061473f565b50604082015160029091018054606084015160809094015163ffffffff90811665010000000000027fffffffffffffffffffffffffffffffffffffffffffffff00000000ffffffffff951515640100000000027fffffffffffffffffffffffffffffffffffffffffffffffffffffff00ffffffff929095167fffffffffffffffffffffffffffffffffffffffffffffffffffffffff000000009093169290921716929092179290921617905561012d546000906122d890600190615593565b33600090815261013360205260409020549091506122f790600161550b565b33600090815261013360209081526040808320939093556101348152828220805460018101825581845282842001859055548483526101359091529190208190556123428383613cf6565b7fbf200eca38efc7da05aaa9f947a53ffa67f4c4dd806d653af58cb328a25825bc828686604051612375939291906154e0565b60405180910390a16000856040516020016123909190614b92565b6040516020818303038152906040528051906020012090507fb5085a3cea164d12591f48051604fb6d1066acdee2e5155a1c7abd79ed8c8da08114156123f7576123f2836040518060600160405280602481526020016159ea60249139613d10565b612975565b7f9d3bf7124b61e82d689b373eb2aed8de9e41ba276be203dd1988ab3eb1048d60811415612441576123f2836040518060600160405280602a8152602001615a0e602a9139613d10565b7f80b5f3e5d0f36dabd4517a670e8057f64f1ae8b983a7083ba22d66e1e0385bd481141561248b576123f283604051806060016040528060288152602001615a3860289139613d10565b7fd1c29cb2362f39ba94b762d92660109d3e3f9e284a77edbf7f4fc677b7e897be8114156124d5576123f2836040518060600160405280602481526020016158bc60249139613d10565b7f08dfc263c9f31976ce2b0fb96af4b28cc9e205524c6d3fc0f8d6d0c4c8e93df681141561251f576123f28360405180606001604052806028815260200161590360289139613d10565b7f17697b5ac6233ad82fcaea85cde0449661dfb6a46fc90e9eb2bd9ede1f222395811415612569576123f28360405180606001604052806023815260200161597760239139613d10565b7f2e20b925246d87c08ef56062ec5e5bbd3e08482af31d1301611de7031137a5258114156125b3576123f28360405180606001604052806025815260200161595260259139613d10565b7f4e6d2957f40df34a7f1c697666e4eded550198566120df69be271a5bd1aae63f8114156125fd576123f2836040518060600160405280602981526020016157fa60299139613d10565b7f28e7b4a4a8763ea53c43a807cd4f225ba29bc3791af442baf8317499f93ba92f811415612647576123f28360405180606001604052806024815260200161576860249139613d10565b7f255e9aed028ea420cf34759a966e2bf2bb65cb34b55f813d20d908f97f14b6fc811415612691576123f28360405180606001604052806027815260200161586c60279139613d10565b7f1578734913fa43b4a2ae0d5b00e23f40d01f19adb4ef4de7355e631933705fc38114156126db576123f28360405180606001604052806025815260200161578c60259139613d10565b7f84211f64f45951f1abd04d6da254ef593327bc081113d61185f2575c5bbda11e811415612725576123f28360405180606001604052806029815260200161599a60299139613d10565b7fdfaabb4b545b074af3e76a9ba37721ec8aacdf88d39ed47997d18ebc72f96d7381141561276f576123f2836040518060600160405280602381526020016158e060239139613d10565b7f15eef5bfea8da92e7e8fec353cef8b538633489b095e0b71a9d2a347f67036bd8114156127b9576123f28360405180606001604052806025815260200161582360259139613d10565b7f5b0082918b71b8b6d2ba97ae588314febc79a1233c8755a6d1086ae454e8d927811415612803576123f2836040518060600160405280602781526020016159c360279139613d10565b7fc2df6c4418b48daeff88f0a66ac5c8729ad66f0cd1532195d52f8e7a51c24b2c81141561284d576123f28360405180606001604052806029815260200161589360299139613d10565b7f05611ac011f4c8af2adf5f5b850fe4359224029d343b8627d112910fc1943e18811415612897576123f28360405180606001604052806024815260200161584860249139613d10565b7f0d8a0d0eff50bd638af0b084ca8c4b8ce2c9cabd8bc17c0a94b53fe5b6d34d638114156128e1576123f2836040518060600160405280602681526020016157b160269139613d10565b7f068216cf7f4d43effb14325a9dabdbdac4827e0c1cd74825ab4c4380812df4bf81141561292b576123f2836040518060600160405280602381526020016157d760239139613d10565b7fb07a59ad74d8f488aad7c28c0525aa39a0bdd9cb110dd630981c3f9652dac3e7811415612975576129758360405180606001604052806027815260200161592b60279139613d10565b505050505050565b612987828261186a565b15610dd057600082815260c96020908152604080832073ffffffffffffffffffffffffffffffffffffffff85168452909152902080547fffffffffffffffffffffffffffffffffffffffffffffffffffffffffffffff001690556129e9611cd7565b73ffffffffffffffffffffffffffffffffffffffff168173ffffffffffffffffffffffffffffffffffffffff16837ff6391f5c32d9c69d2a47ea670b442974b53935d1edc7fd64eb21e047a839171b60405160405180910390a45050565b6115b581613d6e565b61013054612a5e904261550b565b8160020160056101000a81548163ffffffff021916908363ffffffff16021790555050565b6097805473ffffffffffffffffffffffffffffffffffffffff8381167fffffffffffffffffffffffff0000000000000000000000000000000000000000831681179093556040519116919082907f8be0079c531659141344cd1fd0a4f28419497f9722a3daafe3b4186f6b6457e090600090a35050565b600054610100900460ff1680612b13575060005460ff16155b612b49576040517f08c379a00000000000000000000000000000000000000000000000000000000081526004016108ba90615157565b600054610100900460ff16158015612baf57600080547fffffffffffffffffffffffffffffffffffffffffffffffffffffffffffffff007fffffffffffffffffffffffffffffffffffffffffffffffffffffffffffff00ff909116610100171660011790555b612bb7613dae565b612bbf613dae565b612bc98383613e93565b80156109fa57600080547fffffffffffffffffffffffffffffffffffffffffffffffffffffffffffff00ff169055505050565b600054610100900460ff1680612c15575060005460ff16155b612c4b576040517f08c379a00000000000000000000000000000000000000000000000000000000081526004016108ba90615157565b600054610100900460ff16158015612cb157600080547fffffffffffffffffffffffffffffffffffffffffffffffffffffffffffffff007fffffffffffffffffffffffffffffffffffffffffffffffffffffffffffff00ff909116610100171660011790555b612cb9613dae565b612cc1613dae565b612cc9613dae565b80156115b557600080547fffffffffffffffffffffffffffffffffffffffffffffffffffffffffffff00ff16905550565b600054610100900460ff1680612d13575060005460ff16155b612d49576040517f08c379a00000000000000000000000000000000000000000000000000000000081526004016108ba90615157565b600054610100900460ff16158015612daf57600080547fffffffffffffffffffffffffffffffffffffffffffffffffffffffffffffff007fffffffffffffffffffffffffffffffffffffffffffffffffffffffffffff00ff909116610100171660011790555b612db7613dae565b612cc9613fa3565b610dd082826120be565b612dd4848484611e4e565b612de084848484614068565b611a43576040517f08c379a00000000000000000000000000000000000000000000000000000000081526004016108ba90614da4565b73ffffffffffffffffffffffffffffffffffffffff811660009081526101336020526040902054600411612e4957600080fd5b73ffffffffffffffffffffffffffffffffffffffff81163314612e6b57600080fd5b6060806000612e78614206565b90506103e68110612eef57604080518082018252600581527f6a61736f6e0000000000000000000000000000000000000000000000000000006020918201528151808301909252600682527f6d79746869630000000000000000000000000000000000000000000000000000908201529250613839565b6103e48110612f6457604080518082018252600b81527f6469736369706c696e65720000000000000000000000000000000000000000006020918201528151808301909252600682527f6d79746869630000000000000000000000000000000000000000000000000000908201529250613839565b6103e2811115612fda57604080518082018252600981527f6e696768746d61726500000000000000000000000000000000000000000000006020918201528151808301909252600682527f6d79746869630000000000000000000000000000000000000000000000000000908201529250613839565b6103df811115613059576040518060400160405280600581526020017f736172676500000000000000000000000000000000000000000000000000000081525092506040518060400160405280600981526020017f6c6567656e6461727900000000000000000000000000000000000000000000008152509150613839565b6103db8111156130d8576040518060400160405280600981526020017f6d6173746572736565000000000000000000000000000000000000000000000081525092506040518060400160405280600981526020017f6c6567656e6461727900000000000000000000000000000000000000000000008152509150613839565b6103d8811115613157576040518060400160405280600481526020017f6c6f6b690000000000000000000000000000000000000000000000000000000081525092506040518060400160405280600981526020017f6c6567656e6461727900000000000000000000000000000000000000000000008152509150613839565b6103b68111156131d6576040518060400160405280600681526020017f6a6167756172000000000000000000000000000000000000000000000000000081525092506040518060400160405280600481526020017f72617265000000000000000000000000000000000000000000000000000000008152509150613839565b6103a2811115613255576040518060400160405280600a81526020017f706973746f6c706574650000000000000000000000000000000000000000000081525092506040518060400160405280600481526020017f72617265000000000000000000000000000000000000000000000000000000008152509150613839565b61038e8111156132d4576040518060400160405280600581526020017f667265796100000000000000000000000000000000000000000000000000000081525092506040518060400160405280600481526020017f72617265000000000000000000000000000000000000000000000000000000008152509150613839565b61037a811115613353576040518060400160405280600881526020017f6561676c6565796500000000000000000000000000000000000000000000000081525092506040518060400160405280600481526020017f72617265000000000000000000000000000000000000000000000000000000008152509150613839565b6103668111156133d2576040518060400160405280600681526020017f72756d706c65000000000000000000000000000000000000000000000000000081525092506040518060400160405280600481526020017f72617265000000000000000000000000000000000000000000000000000000008152509150613839565b610352811115613451576040518060400160405280600a81526020017f746572726f727269636b0000000000000000000000000000000000000000000081525092506040518060400160405280600481526020017f72617265000000000000000000000000000000000000000000000000000000008152509150613839565b6102ee8111156134d0576040518060400160405280600481526020017f70756d700000000000000000000000000000000000000000000000000000000081525092506040518060400160405280600881526020017f556e636f6d6d6f6e0000000000000000000000000000000000000000000000008152509150613839565b61028a81111561354f576040518060400160405280600681526020017f616374696f6e000000000000000000000000000000000000000000000000000081525092506040518060400160405280600881526020017f556e636f6d6d6f6e0000000000000000000000000000000000000000000000008152509150613839565b6101f48111156135ce576040518060400160405280600881526020017f6a696d72696d626f00000000000000000000000000000000000000000000000081525092506040518060400160405280600881526020017f556e636f6d6d6f6e0000000000000000000000000000000000000000000000008152509150613839565b61019081111561364d576040518060400160405280600a81526020017f6b65697468757262616e0000000000000000000000000000000000000000000081525092506040518060400160405280600681526020017f436f6d6d6f6e00000000000000000000000000000000000000000000000000008152509150613839565b61012c8111156136cc576040518060400160405280600581526020017f737465766500000000000000000000000000000000000000000000000000000081525092506040518060400160405280600681526020017f436f6d6d6f6e00000000000000000000000000000000000000000000000000008152509150613839565b60c881111561374a576040518060400160405280600781526020017f776f6f647369650000000000000000000000000000000000000000000000000081525092506040518060400160405280600681526020017f436f6d6d6f6e00000000000000000000000000000000000000000000000000008152509150613839565b60648111156137c8576040518060400160405280600481526020017f7068696c0000000000000000000000000000000000000000000000000000000081525092506040518060400160405280600681526020017f436f6d6d6f6e00000000000000000000000000000000000000000000000000008152509150613839565b6040518060400160405280600881526020017f6261736963626f6200000000000000000000000000000000000000000000000081525092506040518060400160405280600681526020017f436f6d6d6f6e000000000000000000000000000000000000000000000000000081525091505b611a4383838661218a565b606061384f82611cad565b613885576040517f08c379a00000000000000000000000000000000000000000000000000000000081526004016108ba906151e9565b600082815260fb60205260408120805461389e9061560b565b80601f01602080910402602001604051908101604052809291908181526020018280546138ca9061560b565b80156139175780601f106138ec57610100808354040283529160200191613917565b820191906000526020600020905b8154815290600101906020018083116138fa57829003601f168201915b505050505090506000613928614248565b905080516000141561393c575090506107e2565b81511561396e578082604051602001613956929190614bae565b604051602081830303815290604052925050506107e2565b611e468461425a565b60007fffffffff0000000000000000000000000000000000000000000000000000000082167f80ac58cd000000000000000000000000000000000000000000000000000000001480613a0a57507fffffffff0000000000000000000000000000000000000000000000000000000082167f5b5e139f00000000000000000000000000000000000000000000000000000000145b806107df57506107df826142f6565b60606000613a28836002615556565b613a3390600261550b565b67ffffffffffffffff811115613a72577f4e487b7100000000000000000000000000000000000000000000000000000000600052604160045260246000fd5b6040519080825280601f01601f191660200182016040528015613a9c576020820181803683370190505b5090507f300000000000000000000000000000000000000000000000000000000000000081600081518110613afa577f4e487b7100000000000000000000000000000000000000000000000000000000600052603260045260246000fd5b60200101907effffffffffffffffffffffffffffffffffffffffffffffffffffffffffffff1916908160001a9053507f780000000000000000000000000000000000000000000000000000000000000081600181518110613b84577f4e487b7100000000000000000000000000000000000000000000000000000000600052603260045260246000fd5b60200101907effffffffffffffffffffffffffffffffffffffffffffffffffffffffffffff1916908160001a9053506000613bc0846002615556565b613bcb90600161550b565b90505b6001811115613cb6577f303132333435363738396162636465660000000000000000000000000000000085600f1660108110613c33577f4e487b7100000000000000000000000000000000000000000000000000000000600052603260045260246000fd5b1a60f81b828281518110613c70577f4e487b7100000000000000000000000000000000000000000000000000000000600052603260045260246000fd5b60200101907effffffffffffffffffffffffffffffffffffffffffffffffffffffffffffff1916908160001a90535060049490941c93613caf816155d6565b9050613bce565b508315613cef576040517f08c379a00000000000000000000000000000000000000000000000000000000081526004016108ba90614d6f565b9392505050565b610dd0828260405180602001604052806000815250614340565b613d1982611cad565b613d4f576040517f08c379a00000000000000000000000000000000000000000000000000000000081526004016108ba906150fa565b600082815260fb6020908152604090912082516109fa9284019061473f565b613d778161438d565b600081815260fb602052604090208054613d909061560b565b1590506115b557600081815260fb602052604081206115b5916147c3565b600054610100900460ff1680613dc7575060005460ff16155b613dfd576040517f08c379a00000000000000000000000000000000000000000000000000000000081526004016108ba90615157565b600054610100900460ff16158015612cc957600080547fffffffffffffffffffffffffffffffffffffffffffffffffffffffffffffff007fffffffffffffffffffffffffffffffffffffffffffffffffffffffffffff00ff9091166101001716600117905580156115b557600080547fffffffffffffffffffffffffffffffffffffffffffffffffffffffffffff00ff16905550565b600054610100900460ff1680613eac575060005460ff16155b613ee2576040517f08c379a00000000000000000000000000000000000000000000000000000000081526004016108ba90615157565b600054610100900460ff16158015613f4857600080547fffffffffffffffffffffffffffffffffffffffffffffffffffffffffffffff007fffffffffffffffffffffffffffffffffffffffffffffffffffffffffffff00ff909116610100171660011790555b8251613f5b90606590602086019061473f565b508151613f6f90606690602085019061473f565b5080156109fa57600080547fffffffffffffffffffffffffffffffffffffffffffffffffffffffffffff00ff169055505050565b600054610100900460ff1680613fbc575060005460ff16155b613ff2576040517f08c379a00000000000000000000000000000000000000000000000000000000081526004016108ba90615157565b600054610100900460ff1615801561405857600080547fffffffffffffffffffffffffffffffffffffffffffffffffffffffffffffff007fffffffffffffffffffffffffffffffffffffffffffffffffffffffffffff00ff909116610100171660011790555b612cc9614063611cd7565b612a83565b60006140898473ffffffffffffffffffffffffffffffffffffffff16614466565b156141fb578373ffffffffffffffffffffffffffffffffffffffff1663150b7a026140b2611cd7565b8786866040518563ffffffff1660e01b81526004016140d49493929190614cb2565b602060405180830381600087803b1580156140ee57600080fd5b505af192505050801561413c575060408051601f3d9081017fffffffffffffffffffffffffffffffffffffffffffffffffffffffffffffffe016820190925261413991810190614b0b565b60015b6141b0573d80801561416a576040519150601f19603f3d011682016040523d82523d6000602084013e61416f565b606091505b5080516141a8576040517f08c379a00000000000000000000000000000000000000000000000000000000081526004016108ba90614da4565b805181602001fd5b7fffffffff00000000000000000000000000000000000000000000000000000000167f150b7a0200000000000000000000000000000000000000000000000000000000149050611e46565b506001949350505050565b6000806103e8423360405160200161421f929190614c5e565b6040516020818303038152906040528051906020012060001c6142429190615698565b91505090565b60408051602081019091526000815290565b606061426582611cad565b61429b576040517f08c379a00000000000000000000000000000000000000000000000000000000081526004016108ba90615335565b60006142a5614248565b905060008151116142c55760405180602001604052806000815250613cef565b806142cf8461446c565b6040516020016142e0929190614bae565b6040516020818303038152906040529392505050565b7fffffffff0000000000000000000000000000000000000000000000000000000081167f01ffc9a70000000000000000000000000000000000000000000000000000000014919050565b61434a83836145ed565b6143576000848484614068565b6109fa576040517f08c379a00000000000000000000000000000000000000000000000000000000081526004016108ba90614da4565b600061439882611137565b90506143a6816000846109fa565b6143b1600083611cdb565b73ffffffffffffffffffffffffffffffffffffffff811660009081526068602052604081208054600192906143e7908490615593565b909155505060008281526067602052604080822080547fffffffffffffffffffffffff00000000000000000000000000000000000000001690555183919073ffffffffffffffffffffffffffffffffffffffff8416907fddf252ad1be2c89b69c2b068fc378daa952ba7f163c4a11628f55a4df523b3ef908390a45050565b3b151590565b6060816144ad575060408051808201909152600181527f300000000000000000000000000000000000000000000000000000000000000060208201526107e2565b8160005b81156144d757806144c18161565f565b91506144d09050600a83615542565b91506144b1565b60008167ffffffffffffffff811115614519577f4e487b7100000000000000000000000000000000000000000000000000000000600052604160045260246000fd5b6040519080825280601f01601f191660200182016040528015614543576020820181803683370190505b5090505b8415611e4657614558600183615593565b9150614565600a86615698565b61457090603061550b565b60f81b8183815181106145ac577f4e487b7100000000000000000000000000000000000000000000000000000000600052603260045260246000fd5b60200101907effffffffffffffffffffffffffffffffffffffffffffffffffffffffffffff1916908160001a9053506145e6600a86615542565b9450614547565b73ffffffffffffffffffffffffffffffffffffffff821661463a576040517f08c379a00000000000000000000000000000000000000000000000000000000081526004016108ba906151b4565b61464381611cad565b1561467a576040517f08c379a00000000000000000000000000000000000000000000000000000000081526004016108ba90614e5e565b614686600083836109fa565b73ffffffffffffffffffffffffffffffffffffffff821660009081526068602052604081208054600192906146bc90849061550b565b909155505060008181526067602052604080822080547fffffffffffffffffffffffff00000000000000000000000000000000000000001673ffffffffffffffffffffffffffffffffffffffff861690811790915590518392907fddf252ad1be2c89b69c2b068fc378daa952ba7f163c4a11628f55a4df523b3ef908290a45050565b82805461474b9061560b565b90600052602060002090601f01602090048101928261476d57600085556147b3565b82601f1061478657805160ff19168380011785556147b3565b828001600101855582156147b3579182015b828111156147b3578251825591602001919060010190614798565b506147bf9291506147fb565b5090565b5080546147cf9061560b565b6000825580601f106147e157506115b5565b601f0160209004906000526020600020908101906115b591905b5b808211156147bf57600081556001016147fc565b600067ffffffffffffffff8084111561482b5761482b61570a565b60405160207fffffffffffffffffffffffffffffffffffffffffffffffffffffffffffffffe0601f870116820101818110838211171561486d5761486d61570a565b60405284815291508183850186101561488557600080fd5b8484602083013760006020868301015250509392505050565b803573ffffffffffffffffffffffffffffffffffffffff811681146107e257600080fd5b600082601f8301126148d2578081fd5b613cef83833560208501614810565b6000602082840312156148f2578081fd5b613cef8261489e565b6000806040838503121561490d578081fd5b6149168361489e565b91506149246020840161489e565b90509250929050565b600080600060608486031215614941578081fd5b61494a8461489e565b92506149586020850161489e565b9150604084013590509250925092565b6000806000806080858703121561497d578081fd5b6149868561489e565b93506149946020860161489e565b925060408501359150606085013567ffffffffffffffff8111156149b6578182fd5b8501601f810187136149c6578182fd5b6149d587823560208401614810565b91505092959194509250565b600080604083850312156149f3578182fd5b6149fc8361489e565b915060208301358015158114614a10578182fd5b809150509250929050565b600080600060608486031215614a2f578283fd5b614a388461489e565b9250602084013567ffffffffffffffff80821115614a54578384fd5b614a60878388016148c2565b93506040860135915080821115614a75578283fd5b50614a82868287016148c2565b9150509250925092565b60008060408385031215614a9e578182fd5b614aa78361489e565b946020939093013593505050565b600060208284031215614ac6578081fd5b5035919050565b60008060408385031215614adf578182fd5b823591506149246020840161489e565b600060208284031215614b00578081fd5b8135613cef81615739565b600060208284031215614b1c578081fd5b8151613cef81615739565b60008060408385031215614b39578182fd5b50508035926020909101359150565b60008151808452614b608160208601602086016155aa565b601f017fffffffffffffffffffffffffffffffffffffffffffffffffffffffffffffffe0169290920160200192915050565b60008251614ba48184602087016155aa565b9190910192915050565b60008351614bc08184602088016155aa565b835190830190614bd48183602088016155aa565b01949350505050565b60007f416363657373436f6e74726f6c3a206163636f756e742000000000000000000082528351614c158160178501602088016155aa565b7f206973206d697373696e6720726f6c65200000000000000000000000000000006017918401918201528351614c528160288401602088016155aa565b01602801949350505050565b91825260601b7fffffffffffffffffffffffffffffffffffffffff00000000000000000000000016602082015260340190565b73ffffffffffffffffffffffffffffffffffffffff91909116815260200190565b600073ffffffffffffffffffffffffffffffffffffffff808716835280861660208401525083604083015260806060830152614cf16080830184614b48565b9695505050505050565b901515815260200190565b90815260200190565b600060208252613cef6020830184614b48565b600060a08252614d3560a0830188614b48565b8281036020840152614d478188614b48565b63ffffffff968716604085015294151560608401525050921660809092019190915292915050565b6020808252818101527f537472696e67733a20686578206c656e67746820696e73756666696369656e74604082015260600190565b60208082526032908201527f4552433732313a207472616e7366657220746f206e6f6e20455243373231526560408201527f63656976657220696d706c656d656e7465720000000000000000000000000000606082015260800190565b60208082526026908201527f4f776e61626c653a206e6577206f776e657220697320746865207a65726f206160408201527f6464726573730000000000000000000000000000000000000000000000000000606082015260800190565b6020808252601c908201527f4552433732313a20746f6b656e20616c7265616479206d696e74656400000000604082015260600190565b60208082526024908201527f4552433732313a207472616e7366657220746f20746865207a65726f2061646460408201527f7265737300000000000000000000000000000000000000000000000000000000606082015260800190565b60208082526019908201527f4552433732313a20617070726f766520746f2063616c6c657200000000000000604082015260600190565b60208082526026908201527f596f75206d75737420706179207468652066756c6c207072696365206f66207460408201527f6865204e46540000000000000000000000000000000000000000000000000000606082015260800190565b6020808252602c908201527f4552433732313a206f70657261746f7220717565727920666f72206e6f6e657860408201527f697374656e7420746f6b656e0000000000000000000000000000000000000000606082015260800190565b60208082526038908201527f4552433732313a20617070726f76652063616c6c6572206973206e6f74206f7760408201527f6e6572206e6f7220617070726f76656420666f7220616c6c0000000000000000606082015260800190565b6020808252602a908201527f4552433732313a2062616c616e636520717565727920666f7220746865207a6560408201527f726f206164647265737300000000000000000000000000000000000000000000606082015260800190565b60208082526029908201527f4552433732313a206f776e657220717565727920666f72206e6f6e657869737460408201527f656e7420746f6b656e0000000000000000000000000000000000000000000000606082015260800190565b6020808252602e908201527f45524337323155524953746f726167653a2055524920736574206f66206e6f6e60408201527f6578697374656e7420746f6b656e000000000000000000000000000000000000606082015260800190565b6020808252602e908201527f496e697469616c697a61626c653a20636f6e747261637420697320616c72656160408201527f647920696e697469616c697a6564000000000000000000000000000000000000606082015260800190565b6020808252818101527f4552433732313a206d696e7420746f20746865207a65726f2061646472657373604082015260600190565b60208082526031908201527f45524337323155524953746f726167653a2055524920717565727920666f722060408201527f6e6f6e6578697374656e7420746f6b656e000000000000000000000000000000606082015260800190565b6020808252602c908201527f4552433732313a20617070726f76656420717565727920666f72206e6f6e657860408201527f697374656e7420746f6b656e0000000000000000000000000000000000000000606082015260800190565b6020808252818101527f4f776e61626c653a2063616c6c6572206973206e6f7420746865206f776e6572604082015260600190565b60208082526029908201527f4552433732313a207472616e73666572206f6620746f6b656e2074686174206960408201527f73206e6f74206f776e0000000000000000000000000000000000000000000000606082015260800190565b6020808252602f908201527f4552433732314d657461646174613a2055524920717565727920666f72206e6f60408201527f6e6578697374656e7420746f6b656e0000000000000000000000000000000000606082015260800190565b6020808252600e908201527f4e6f742067616d652061646d696e000000000000000000000000000000000000604082015260600190565b60208082526021908201527f4552433732313a20617070726f76616c20746f2063757272656e74206f776e6560408201527f7200000000000000000000000000000000000000000000000000000000000000606082015260800190565b60208082526031908201527f4552433732313a207472616e736665722063616c6c6572206973206e6f74206f60408201527f776e6572206e6f7220617070726f766564000000000000000000000000000000606082015260800190565b6020808252602f908201527f416363657373436f6e74726f6c3a2063616e206f6e6c792072656e6f756e636560408201527f20726f6c657320666f722073656c660000000000000000000000000000000000606082015260800190565b6000848252606060208301526154f96060830185614b48565b8281036040840152614cf18185614b48565b6000821982111561551e5761551e6156ac565b500190565b600063ffffffff808316818516808303821115614bd457614bd46156ac565b600082615551576155516156db565b500490565b6000817fffffffffffffffffffffffffffffffffffffffffffffffffffffffffffffffff048311821515161561558e5761558e6156ac565b500290565b6000828210156155a5576155a56156ac565b500390565b60005b838110156155c55781810151838201526020016155ad565b83811115611a435750506000910152565b6000816155e5576155e56156ac565b507fffffffffffffffffffffffffffffffffffffffffffffffffffffffffffffffff0190565b60028104600182168061561f57607f821691505b60208210811415615659577f4e487b7100000000000000000000000000000000000000000000000000000000600052602260045260246000fd5b50919050565b60007fffffffffffffffffffffffffffffffffffffffffffffffffffffffffffffffff821415615691576156916156ac565b5060010190565b6000826156a7576156a76156db565b500690565b7f4e487b7100000000000000000000000000000000000000000000000000000000600052601160045260246000fd5b7f4e487b7100000000000000000000000000000000000000000000000000000000600052601260045260246000fd5b7f4e487b7100000000000000000000000000000000000000000000000000000000600052604160045260246000fd5b7fffffffff00000000000000000000000000000000000000000000000000000000811681146115b557600080fdfe68747470733a2f2f7777772e63727970746f67756e732e696f2f6a736f6e2f667265796168747470733a2f2f7777772e63727970746f67756e732e696f2f6a736f6e2f72756d706c6568747470733a2f2f7777772e63727970746f67756e732e696f2f6a736f6e2f776f6f6473696568747470733a2f2f7777772e63727970746f67756e732e696f2f6a736f6e2f7068696c68747470733a2f2f7777772e63727970746f67756e732e696f2f6a736f6e2f706973746f6c7065746568747470733a2f2f7777772e63727970746f67756e732e696f2f6a736f6e2f616374696f6e68747470733a2f2f7777772e63727970746f67756e732e696f2f6a736f6e2f737465766568747470733a2f2f7777772e63727970746f67756e732e696f2f6a736f6e2f6561676c6565796568747470733a2f2f7777772e63727970746f67756e732e696f2f6a736f6e2f6b65697468757262616e68747470733a2f2f7777772e63727970746f67756e732e696f2f6a736f6e2f736172676568747470733a2f2f7777772e63727970746f67756e732e696f2f6a736f6e2f70756d7068747470733a2f2f7777772e63727970746f67756e732e696f2f6a736f6e2f6d617374657273656568747470733a2f2f7777772e63727970746f67756e732e696f2f6a736f6e2f6261736963626f6268747470733a2f2f7777772e63727970746f67756e732e696f2f6a736f6e2f6a616775617268747470733a2f2f7777772e63727970746f67756e732e696f2f6a736f6e2f6c6f6b6968747470733a2f2f7777772e63727970746f67756e732e696f2f6a736f6e2f746572726f727269636b68747470733a2f2f7777772e63727970746f67756e732e696f2f6a736f6e2f6a696d72696d626f68747470733a2f2f7777772e63727970746f67756e732e696f2f6a736f6e2f6a61736f6e68747470733a2f2f7777772e63727970746f67756e732e696f2f6a736f6e2f6469736369706c696e657268747470733a2f2f7777772e63727970746f67756e732e696f2f6a736f6e2f6e696768746d617265a264697066735822122082e8028a16cb1e92bbb2a2d9b2801c80de65564601b260b90fe9618213350fa964736f6c63430008000033",
  "immutableReferences": {},
  "source": "// SPDX-License-Identifier: MIT\r\npragma solidity ^0.8.0;\r\n\r\nimport \"./safemath32.sol\";\r\nimport \"@openzeppelin/contracts-upgradeable/proxy/utils/Initializable.sol\";\r\nimport \"@openzeppelin/contracts-upgradeable/token/ERC721/ERC721Upgradeable.sol\";\r\nimport \"@openzeppelin/contracts-upgradeable/access/AccessControlUpgradeable.sol\";\r\nimport \"@openzeppelin/contracts-upgradeable/access/OwnableUpgradeable.sol\";\r\nimport \"@openzeppelin/contracts-upgradeable/token/ERC721/extensions/ERC721BurnableUpgradeable.sol\";\r\nimport \"@openzeppelin/contracts-upgradeable/token/ERC721/extensions/ERC721URIStorageUpgradeable.sol\";\r\nimport \"@openzeppelin/contracts-upgradeable/utils/AddressUpgradeable.sol\";\r\n\r\ncontract CryptoGuns is ERC721Upgradeable, OwnableUpgradeable, AccessControlUpgradeable, ERC721URIStorageUpgradeable  {\r\n  using AddressUpgradeable for address;\r\n  using SafeMath32 for uint32;\r\n  using SafeMath16 for uint16;\r\n\r\n  event NewSwat(uint swatId, string name, string rarity);\r\n    event Purchased(address buyer);\r\n\r\n  struct Swat {\r\n    string name;\r\n    string rarity;\r\n    uint32 level;\r\n    bool upgraded;\r\n    uint32 readyTime;\r\n  }\r\n\r\n\r\n  Swat[] public swats;\r\naddress  public _acceptedToken; //banana\r\n  uint swatPrice; // in banana\r\n    uint cooldownTime;\r\n    uint tokenPrice; //banana price\r\n    // for mainnet address bananaAdress = 0x603c7f932ed1fc6575303d8fb018fdcbb0f39a95;\r\n\r\n  //mappings\r\n  mapping (uint => address) public swatToOwner; //takes swatID and gives owner address\r\n  mapping (address => uint) public ownerSwatCount; //# of swat units in wallet\r\n  mapping(address => uint[]) public userOwnedSwats; //tokenID of swat units in wallet\r\n  mapping(uint => uint) public swatIsAtIndex; // index of the tokenID in the wallet\r\n  mapping (uint256 => uint256) private _tokenPrice;\r\n\r\n  modifier aboveLevel(uint _level, uint _swatId) {\r\n    require(swats[_swatId].level >= _level);\r\n    _;\r\n  }\r\n\r\n\r\n  function initialize() public initializer {\r\n     __ERC721_init(\"CryptoGuns Squad Members\", \"SquadMembers\");\r\n     __AccessControl_init();\r\n     __Ownable_init();\r\n     __ERC721URIStorage_init();\r\n\r\n     _setupRole(DEFAULT_ADMIN_ROLE, _msgSender());\r\n\r\n\r\n      cooldownTime = 1 days;\r\n\r\n\r\n\r\n  }\r\n//assigns URI to swat based on name & rarity. Unity Engine reads the URI to pull character attributes for in-game stats.\r\n  function _mintSwat(string memory _name, string memory _rarity, address _owner) internal {\r\n    swats.push(Swat(_name, _rarity, 1, false, uint32(block.timestamp + cooldownTime)));\r\n    uint id = swats.length - 1;\r\n    ownerSwatCount[msg.sender] = ownerSwatCount[msg.sender] + 1;\r\n    userOwnedSwats[msg.sender].push(id);\r\n    uint ownedSwatLength = userOwnedSwats[msg.sender].length;\r\n    swatIsAtIndex[id] = ownedSwatLength;\r\n    _safeMint(_owner, id);\r\n    emit NewSwat(id, _name, _rarity);\r\n    //bytes32 rarity = keccak256(abi.encodePacked(_rarity));\r\n    bytes32 swatName = keccak256(abi.encodePacked(_name));\r\n    if(swatName == keccak256(\"jason\")){\r\n      _setTokenURI(id,\"https://www.cryptoguns.io/json/jason\");\r\n    }\r\n      else if(swatName == keccak256(\"discipliner\")){\r\n      _setTokenURI(id,\"https://www.cryptoguns.io/json/discipliner\");\r\n    }\r\n      else if(swatName == keccak256(\"nightmare\")){\r\n      _setTokenURI(id,\"https://www.cryptoguns.io/json/nightmare\");\r\n      }\r\n      else if(swatName == keccak256(\"sarge\")){\r\n         _setTokenURI(id,\"https://www.cryptoguns.io/json/sarge\");\r\n       }\r\n       else if(swatName == keccak256(\"mastersee\")){\r\n         _setTokenURI(id,\"https://www.cryptoguns.io/json/mastersee\");\r\n       }\r\n       else if(swatName == keccak256(\"loki\")){\r\n         _setTokenURI(id,\"https://www.cryptoguns.io/json/loki\");\r\n       }\r\n          else if(swatName == keccak256(\"jaguar\")){\r\n        _setTokenURI(id,\"https://www.cryptoguns.io/json/jaguar\");\r\n      }\r\n      else if(swatName == keccak256(\"pistolpete.\")){\r\n        _setTokenURI(id,\"https://www.cryptoguns.io/json/pistolpete\");\r\n      }\r\n      else if(swatName == keccak256(\"freya\")){\r\n        _setTokenURI(id,\"https://www.cryptoguns.io/json/freya\");\r\n      }\r\n      else if(swatName == keccak256(\"eagleeye\")){\r\n        _setTokenURI(id,\"https://www.cryptoguns.io/json/eagleeye\");\r\n      }\r\n      else if(swatName == keccak256(\"rumple\")){\r\n        _setTokenURI(id,\"https://www.cryptoguns.io/json/rumple\");\r\n      }\r\n      else if(swatName == keccak256(\"terrorrick\")){\r\n      _setTokenURI(id,\"https://www.cryptoguns.io/json/terrorrick\");\r\n      }\r\n      else if(swatName == keccak256(\"pump\")){\r\n        _setTokenURI(id,\"https://www.cryptoguns.io/json/pump\");\r\n      }\r\n      else if(swatName == keccak256(\"action\")){\r\n        _setTokenURI(id,\"https://www.cryptoguns.io/json/action\");\r\n      }\r\n        else if(swatName == keccak256(\"jimrimbo\")){\r\n        _setTokenURI(id,\"https://www.cryptoguns.io/json/jimrimbo\");\r\n      }\r\n      else if(swatName == keccak256(\"keithurban\")){\r\n        _setTokenURI(id,\"https://www.cryptoguns.io/json/keithurban\");\r\n      }\r\n      else if(swatName == keccak256(\"steve\")){\r\n        _setTokenURI(id,\"https://www.cryptoguns.io/json/steve\");\r\n      }\r\n      else if(swatName == keccak256(\"woodsie\")){\r\n        _setTokenURI(id,\"https://www.cryptoguns.io/json/woodsie\");\r\n      }\r\n      else if(swatName == keccak256(\"phil\")){\r\n        _setTokenURI(id,\"https://www.cryptoguns.io/json/phil\");\r\n      }\r\n      else if(swatName == keccak256(\"basicbob\")){\r\n        _setTokenURI(id,\"https://www.cryptoguns.io/json/basicbob\");\r\n     }\r\n    }\r\n\r\n  function _rollrandom() internal view returns (uint) {\r\n    uint randomnumber = uint(keccak256(abi.encodePacked(block.timestamp, msg.sender))) % 1000;\r\n    return randomnumber;\r\n}\r\n\r\n//.6% chance for mythic, .1% for legendary , 15% for rare, 20% chance for uncommon, 40% chance uncommon\r\n  function mintRandomSwat(address _owner) internal {\r\n   require(ownerSwatCount[_owner] < 4);\r\n   require(_owner == msg.sender);\r\n    string memory randName;\r\n    string memory randRarity;\r\n\r\n    // .2% for mything, .7% for legendary, 10% for rare, 35% uncommon, rest Common\r\n    uint roll = _rollrandom();\r\n    if(roll >= 998) {\r\n    randName = \"jason\";\r\n    randName = \"mythic\";\r\n    }\r\n    else if(roll >= 996)\r\n    {randName = \"discipliner\";\r\n    randName = \"mythic\";}\r\n    else if(roll > 994)\r\n    {randName = \"nightmare\";\r\n    randName = \"mythic\";}\r\n\r\n    else if(roll > 991){\r\n    randName = \"sarge\";\r\n      randRarity = \"legendary\";}\r\n    else if(roll > 987){\r\n    randName = \"mastersee\";\r\n      randRarity = \"legendary\";}\r\n      else if(roll > 984){\r\n    randName = \"loki\";\r\n      randRarity = \"legendary\";}\r\n\r\n    else if(roll > 950){\r\n    randName = \"jaguar\";\r\n    randRarity = \"rare\";}\r\n    else if(roll > 930){\r\n    randName = \"pistolpete\";\r\n    randRarity = \"rare\";}\r\n    else if(roll > 910){\r\n    randName = \"freya\";\r\n    randRarity = \"rare\";}\r\n    else if(roll > 890){\r\n    randName = \"eagleeye\";\r\n    randRarity = \"rare\";}\r\n    else if(roll > 870){\r\n    randName = \"rumple\";\r\n    randRarity = \"rare\";}\r\n      else if(roll > 850){\r\n    randName = \"terrorrick\";\r\n    randRarity = \"rare\"; }\r\n\r\n      else if(roll > 750)\r\n    {randName = \"pump\";\r\n    randRarity = \"Uncommon\"; }\r\n      else if(roll > 650)\r\n    {randName = \"action\";\r\n    randRarity = \"Uncommon\"; }\r\n      else if(roll > 500){\r\n    randName = \"jimrimbo\";\r\n    randRarity = \"Uncommon\"; }\r\n\r\n      else if(roll > 400){\r\n    randName = \"keithurban\";\r\n    randRarity = \"Common\"; }\r\n      else if(roll > 300){\r\n    randName = \"steve\";\r\n    randRarity = \"Common\"; }\r\n      else if(roll > 200){\r\n    randName = \"woodsie\";\r\n    randRarity = \"Common\"; }\r\n      else if(roll > 100){\r\n    randName = \"phil\";\r\n    randRarity = \"Common\"; }\r\n      else {\r\n    randName = \"basicbob\";\r\n    randRarity = \"Common\"; }\r\n  _mintSwat(randName, randRarity, _owner);\r\n}\r\n\r\n//for promotions/giveaways/testing\r\nfunction mintSpecificSwat(address _owner, string memory _name, string memory _rarity) public onlyOwner{\r\n _mintSwat(_name, _rarity, _owner);\r\n}\r\n\r\nfunction _triggerCooldown(Swat storage _swat) internal {\r\n  _swat.readyTime = uint32(block.timestamp + cooldownTime);\r\n}\r\n\r\nfunction _isReady(Swat storage _swat) internal view returns (bool) {\r\n    return (_swat.readyTime <= block.timestamp);\r\n}\r\n\r\n//if owner has duplicates, can burn one to turn the first into \"upgraded\"\r\nfunction duplicateUpgrade(uint _swatId, uint _targetId) public{\r\n  require(ownerOf(_swatId) == msg.sender);\r\n  require(ownerOf(_targetId) == msg.sender);\r\n  Swat storage mySwat = swats[_swatId];\r\n  require(mySwat.upgraded == false);\r\n  mySwat.upgraded = true;\r\n  _burn(_targetId);\r\n  _triggerCooldown(mySwat);\r\n}\r\n\r\nmapping (uint => address) swatApprovals;\r\n\r\n//overrides duplicate functions begins here\r\n  function supportsInterface(bytes4 interfaceId) public view virtual override(ERC721Upgradeable, AccessControlUpgradeable) returns (bool) {\r\n          return super.supportsInterface(interfaceId);\r\n\r\n        }\r\n\r\n  function  _burn(uint256 tokenId) internal virtual override(ERC721Upgradeable, ERC721URIStorageUpgradeable) {\r\n          return super._burn(tokenId);\r\n  }\r\n\r\n\r\n  function tokenURI(uint256 tokenId) public view virtual override (ERC721Upgradeable, ERC721URIStorageUpgradeable) returns (string memory) {\r\n          return super.tokenURI(tokenId);\r\n  }\r\n//ends\r\n\r\n//level ups the swat\r\n  function levelUp(uint _swatId) public payable {\r\n    require(hasRole(DEFAULT_ADMIN_ROLE, msg.sender), \"Not game admin\");\r\n    swats[_swatId].level = swats[_swatId].level + 1;\r\n  }\r\n\r\n  //swat properities getters\r\n  function getLevel(uint _swatId) public view onlyOwner returns (uint) {\r\n    return swats[_swatId].level;\r\n  }\r\n\r\n  function getName(uint _swatId) public view onlyOwner returns (string memory) {\r\n    return swats[_swatId].name;\r\n  }\r\n\r\n\r\n  function getRarity(uint _swatId) public view onlyOwner returns (string memory) {\r\n    return swats[_swatId].rarity;\r\n  }\r\n\r\n  function getReadyTime(uint _swatId) public view onlyOwner returns (uint) {\r\n    return swats[_swatId].readyTime;\r\n  }\r\n\r\n  function getUpgraded(uint _swatId) public view onlyOwner returns (bool) {\r\n    return swats[_swatId].upgraded;\r\n  }\r\n\r\n  //BuyNFT functions\r\n\r\n  function setToken(address addr) public onlyOwner() {\r\n  //  require(_acceptedToken.isContract(), \"The accepted token address must be a deployed contract\");\r\n    _acceptedToken = addr;\r\n     }\r\n\r\n     function getTokenPrice(uint256 tokenId) public view returns (uint256) {\r\n         return _tokenPrice[tokenId];\r\n     }\r\n\r\n     function setSwatPrice(uint256 _price) public onlyOwner {\r\n       swatPrice = (tokenPrice * _price);\r\n       //mainnet\r\n       //swatPrice = (getTokenPrice(bananaAddress) * _price)\r\n     }\r\n//should require the message sender to be the buyer,  require the msg.value is greater than or equal to the swat token price, should transfer the token to the contract, should then mint a new swat unit to the msg sender.\r\n     function buyNFT(address _buyer) public payable {\r\n       require(msg.sender == _buyer);\r\n        require(msg.sender != address(0));\r\n        //require(_acceptedToken.balanceOf(_buyer) >= swatPrice, \"You do not have enough coins in your wallet.\");\r\n        require(msg.value >= swatPrice, \"You must pay the full price of the NFT\");\r\n        safeTransferFrom(msg.sender, address(this), swatPrice);\r\n            mintRandomSwat(msg.sender);\r\n            emit Purchased(msg.sender);\r\n         }\r\n\r\n}\r\n",
  "sourcePath": "C:\\Users\\accoo\\documents\\CGContractTest\\contracts\\CryptoGuns.sol",
  "compiler": {
    "name": "solc",
    "version": "0.8.0+commit.c7dfd78e.Emscripten.clang"
  },
  "schemaVersion": "3.4.2",
  "updatedAt": "2021-10-10T16:47:16.221Z",
  "networkType": "ethereum",
  "devdoc": {
    "kind": "dev",
    "methods": {
      "approve(address,uint256)": {
        "details": "See {IERC721-approve}."
      },
      "balanceOf(address)": {
        "details": "See {IERC721-balanceOf}."
      },
      "getApproved(uint256)": {
        "details": "See {IERC721-getApproved}."
      },
      "getRoleAdmin(bytes32)": {
        "details": "Returns the admin role that controls `role`. See {grantRole} and {revokeRole}. To change a role's admin, use {_setRoleAdmin}."
      },
      "grantRole(bytes32,address)": {
        "details": "Grants `role` to `account`. If `account` had not been already granted `role`, emits a {RoleGranted} event. Requirements: - the caller must have ``role``'s admin role."
      },
      "hasRole(bytes32,address)": {
        "details": "Returns `true` if `account` has been granted `role`."
      },
      "isApprovedForAll(address,address)": {
        "details": "See {IERC721-isApprovedForAll}."
      },
      "name()": {
        "details": "See {IERC721Metadata-name}."
      },
      "owner()": {
        "details": "Returns the address of the current owner."
      },
      "ownerOf(uint256)": {
        "details": "See {IERC721-ownerOf}."
      },
      "renounceOwnership()": {
        "details": "Leaves the contract without owner. It will not be possible to call `onlyOwner` functions anymore. Can only be called by the current owner. NOTE: Renouncing ownership will leave the contract without an owner, thereby removing any functionality that is only available to the owner."
      },
      "renounceRole(bytes32,address)": {
        "details": "Revokes `role` from the calling account. Roles are often managed via {grantRole} and {revokeRole}: this function's purpose is to provide a mechanism for accounts to lose their privileges if they are compromised (such as when a trusted device is misplaced). If the calling account had been granted `role`, emits a {RoleRevoked} event. Requirements: - the caller must be `account`."
      },
      "revokeRole(bytes32,address)": {
        "details": "Revokes `role` from `account`. If `account` had been granted `role`, emits a {RoleRevoked} event. Requirements: - the caller must have ``role``'s admin role."
      },
      "safeTransferFrom(address,address,uint256)": {
        "details": "See {IERC721-safeTransferFrom}."
      },
      "safeTransferFrom(address,address,uint256,bytes)": {
        "details": "See {IERC721-safeTransferFrom}."
      },
      "setApprovalForAll(address,bool)": {
        "details": "See {IERC721-setApprovalForAll}."
      },
      "symbol()": {
        "details": "See {IERC721Metadata-symbol}."
      },
      "transferFrom(address,address,uint256)": {
        "details": "See {IERC721-transferFrom}."
      },
      "transferOwnership(address)": {
        "details": "Transfers ownership of the contract to a new account (`newOwner`). Can only be called by the current owner."
      }
    },
    "version": 1
  },
  "userdoc": {
    "kind": "user",
    "methods": {},
    "version": 1
  }
}