{
  "contractName": "SwatOwnership",
  "abi": [
    {
      "constant": false,
      "inputs": [
        {
          "name": "_swatId",
          "type": "uint256"
        }
      ],
      "name": "levelUp",
      "outputs": [],
      "payable": true,
      "stateMutability": "payable",
      "type": "function"
    },
    {
      "constant": false,
      "inputs": [
        {
          "name": "_swatId",
          "type": "uint256"
        },
        {
          "name": "_kittyId",
          "type": "uint256"
        }
      ],
      "name": "feedOnKitty",
      "outputs": [],
      "payable": false,
      "stateMutability": "nonpayable",
      "type": "function"
    },
    {
      "constant": true,
      "inputs": [
        {
          "name": "_owner",
          "type": "address"
        }
      ],
      "name": "getSwatsByOwner",
      "outputs": [
        {
          "name": "",
          "type": "uint256[]"
        }
      ],
      "payable": false,
      "stateMutability": "view",
      "type": "function"
    },
    {
      "constant": false,
      "inputs": [
        {
          "name": "_address",
          "type": "address"
        }
      ],
      "name": "setKittyContractAddress",
      "outputs": [],
      "payable": false,
      "stateMutability": "nonpayable",
      "type": "function"
    },
    {
      "constant": false,
      "inputs": [
        {
          "name": "_swatId",
          "type": "uint256"
        },
        {
          "name": "_newDna",
          "type": "uint256"
        }
      ],
      "name": "changeDna",
      "outputs": [],
      "payable": false,
      "stateMutability": "nonpayable",
      "type": "function"
    },
    {
      "constant": false,
      "inputs": [],
      "name": "renounceOwnership",
      "outputs": [],
      "payable": false,
      "stateMutability": "nonpayable",
      "type": "function"
    },
    {
      "constant": true,
      "inputs": [
        {
          "name": "",
          "type": "uint256"
        }
      ],
      "name": "swats",
      "outputs": [
        {
          "name": "name",
          "type": "string"
        },
        {
          "name": "dna",
          "type": "uint256"
        },
        {
          "name": "level",
          "type": "uint32"
        },
        {
          "name": "readyTime",
          "type": "uint32"
        },
        {
          "name": "winCount",
          "type": "uint16"
        },
        {
          "name": "lossCount",
          "type": "uint16"
        }
      ],
      "payable": false,
      "stateMutability": "view",
      "type": "function"
    },
    {
      "constant": true,
      "inputs": [
        {
          "name": "",
          "type": "uint256"
        }
      ],
      "name": "swatToOwner",
      "outputs": [
        {
          "name": "",
          "type": "address"
        }
      ],
      "payable": false,
      "stateMutability": "view",
      "type": "function"
    },
    {
      "constant": true,
      "inputs": [],
      "name": "owner",
      "outputs": [
        {
          "name": "",
          "type": "address"
        }
      ],
      "payable": false,
      "stateMutability": "view",
      "type": "function"
    },
    {
      "constant": true,
      "inputs": [],
      "name": "isOwner",
      "outputs": [
        {
          "name": "",
          "type": "bool"
        }
      ],
      "payable": false,
      "stateMutability": "view",
      "type": "function"
    },
    {
      "constant": false,
      "inputs": [
        {
          "name": "_name",
          "type": "string"
        }
      ],
      "name": "createRandomSwat",
      "outputs": [],
      "payable": false,
      "stateMutability": "nonpayable",
      "type": "function"
    },
    {
      "constant": false,
      "inputs": [
        {
          "name": "_fee",
          "type": "uint256"
        }
      ],
      "name": "setLevelUpFee",
      "outputs": [],
      "payable": false,
      "stateMutability": "nonpayable",
      "type": "function"
    },
    {
      "constant": false,
      "inputs": [
        {
          "name": "_swatId",
          "type": "uint256"
        },
        {
          "name": "_targetId",
          "type": "uint256"
        }
      ],
      "name": "attack",
      "outputs": [],
      "payable": false,
      "stateMutability": "nonpayable",
      "type": "function"
    },
    {
      "constant": false,
      "inputs": [
        {
          "name": "newOwner",
          "type": "address"
        }
      ],
      "name": "transferOwnership",
      "outputs": [],
      "payable": false,
      "stateMutability": "nonpayable",
      "type": "function"
    },
    {
      "anonymous": false,
      "inputs": [
        {
          "indexed": true,
          "name": "_from",
          "type": "address"
        },
        {
          "indexed": true,
          "name": "_to",
          "type": "address"
        },
        {
          "indexed": true,
          "name": "_tokenId",
          "type": "uint256"
        }
      ],
      "name": "Transfer",
      "type": "event"
    },
    {
      "anonymous": false,
      "inputs": [
        {
          "indexed": true,
          "name": "_owner",
          "type": "address"
        },
        {
          "indexed": true,
          "name": "_approved",
          "type": "address"
        },
        {
          "indexed": true,
          "name": "_tokenId",
          "type": "uint256"
        }
      ],
      "name": "Approval",
      "type": "event"
    },
    {
      "anonymous": false,
      "inputs": [
        {
          "indexed": false,
          "name": "swatId",
          "type": "uint256"
        },
        {
          "indexed": false,
          "name": "name",
          "type": "string"
        },
        {
          "indexed": false,
          "name": "dna",
          "type": "uint256"
        }
      ],
      "name": "NewSwat",
      "type": "event"
    },
    {
      "anonymous": false,
      "inputs": [
        {
          "indexed": true,
          "name": "previousOwner",
          "type": "address"
        },
        {
          "indexed": true,
          "name": "newOwner",
          "type": "address"
        }
      ],
      "name": "OwnershipTransferred",
      "type": "event"
    },
    {
      "constant": true,
      "inputs": [
        {
          "name": "_owner",
          "type": "address"
        }
      ],
      "name": "balanceOf",
      "outputs": [
        {
          "name": "",
          "type": "uint256"
        }
      ],
      "payable": false,
      "stateMutability": "view",
      "type": "function"
    },
    {
      "constant": true,
      "inputs": [
        {
          "name": "_tokenId",
          "type": "uint256"
        }
      ],
      "name": "ownerOf",
      "outputs": [
        {
          "name": "",
          "type": "address"
        }
      ],
      "payable": false,
      "stateMutability": "view",
      "type": "function"
    },
    {
      "constant": false,
      "inputs": [
        {
          "name": "_from",
          "type": "address"
        },
        {
          "name": "_to",
          "type": "address"
        },
        {
          "name": "_tokenId",
          "type": "uint256"
        }
      ],
      "name": "transferFrom",
      "outputs": [],
      "payable": true,
      "stateMutability": "payable",
      "type": "function"
    },
    {
      "constant": false,
      "inputs": [
        {
          "name": "_approved",
          "type": "address"
        },
        {
          "name": "_tokenId",
          "type": "uint256"
        }
      ],
      "name": "approve",
      "outputs": [],
      "payable": true,
      "stateMutability": "payable",
      "type": "function"
    }
  ],
  "bytecode": "0x60806040526010600155600154600a0a6002556201518060035566038d7ea4c6800060085560006009556046600a55336000806101000a81548173ffffffffffffffffffffffffffffffffffffffff021916908373ffffffffffffffffffffffffffffffffffffffff1602179055506000809054906101000a900473ffffffffffffffffffffffffffffffffffffffff1673ffffffffffffffffffffffffffffffffffffffff16600073ffffffffffffffffffffffffffffffffffffffff167f8be0079c531659141344cd1fd0a4f28419497f9722a3daafe3b4186f6b6457e060405160405180910390a3611f83806100f96000396000f3fe6080604052600436106101095760003560e01c8063715018a6116100955780638f32d59b116100645780638f32d59b14610641578063a7b7aadf14610670578063ccf670f814610738578063e1fa763814610773578063f2fde38b146107b857610109565b8063715018a6146104595780638429c57a14610470578063875bd33f1461056f5780638da5cb5b146105ea57610109565b806323b872dd116100dc57806323b872dd146102755780635f4623f1146102e35780635faf2880146103345780636352211e1461037957806370a08231146103f457610109565b8063095ea7b31461010e5780630ce90ec21461015c57806317a7f4cc1461018a578063210cb2ca146101cf575b600080fd5b61015a6004803603604081101561012457600080fd5b81019080803573ffffffffffffffffffffffffffffffffffffffff16906020019092919080359060200190929190505050610809565b005b6101886004803603602081101561017257600080fd5b8101908080359060200190929190505050610929565b005b34801561019657600080fd5b506101cd600480360360408110156101ad57600080fd5b8101908080359060200190929190803590602001909291905050506109c4565b005b3480156101db57600080fd5b5061021e600480360360208110156101f257600080fd5b81019080803573ffffffffffffffffffffffffffffffffffffffff169060200190929190505050610b4f565b6040518080602001828103825283818151815260200191508051906020019060200280838360005b83811015610261578082015181840152602081019050610246565b505050509050019250505060405180910390f35b6102e16004803603606081101561028b57600080fd5b81019080803573ffffffffffffffffffffffffffffffffffffffff169060200190929190803573ffffffffffffffffffffffffffffffffffffffff16906020019092919080359060200190929190505050610c80565b005b3480156102ef57600080fd5b506103326004803603602081101561030657600080fd5b81019080803573ffffffffffffffffffffffffffffffffffffffff169060200190929190505050610d66565b005b34801561034057600080fd5b506103776004803603604081101561035757600080fd5b810190808035906020019092919080359060200190929190505050610dbd565b005b34801561038557600080fd5b506103b26004803603602081101561039c57600080fd5b8101908080359060200190929190505050610e9f565b604051808273ffffffffffffffffffffffffffffffffffffffff1673ffffffffffffffffffffffffffffffffffffffff16815260200191505060405180910390f35b34801561040057600080fd5b506104436004803603602081101561041757600080fd5b81019080803573ffffffffffffffffffffffffffffffffffffffff169060200190929190505050610edc565b6040518082815260200191505060405180910390f35b34801561046557600080fd5b5061046e610f25565b005b34801561047c57600080fd5b506104a96004803603602081101561049357600080fd5b8101908080359060200190929190505050610ff7565b60405180806020018781526020018663ffffffff1663ffffffff1681526020018563ffffffff1663ffffffff1681526020018461ffff1661ffff1681526020018361ffff1661ffff168152602001828103825288818151815260200191508051906020019080838360005b8381101561052f578082015181840152602081019050610514565b50505050905090810190601f16801561055c5780820380516001836020036101000a031916815260200191505b5097505050505050505060405180910390f35b34801561057b57600080fd5b506105a86004803603602081101561059257600080fd5b8101908080359060200190929190505050611116565b604051808273ffffffffffffffffffffffffffffffffffffffff1673ffffffffffffffffffffffffffffffffffffffff16815260200191505060405180910390f35b3480156105f657600080fd5b506105ff611149565b604051808273ffffffffffffffffffffffffffffffffffffffff1673ffffffffffffffffffffffffffffffffffffffff16815260200191505060405180910390f35b34801561064d57600080fd5b50610656611172565b604051808215151515815260200191505060405180910390f35b34801561067c57600080fd5b506107366004803603602081101561069357600080fd5b81019080803590602001906401000000008111156106b057600080fd5b8201836020820111156106c257600080fd5b803590602001918460018302840111640100000000831117156106e457600080fd5b91908080601f016020809104026020016040519081016040528093929190818152602001838380828437600081840152601f19601f8201169050808301925050505050505091929192905050506111c9565b005b34801561074457600080fd5b506107716004803603602081101561075b57600080fd5b8101908080359060200190929190505050611243565b005b34801561077f57600080fd5b506107b66004803603604081101561079657600080fd5b810190808035906020019092919080359060200190929190505050611260565b005b3480156107c457600080fd5b50610807600480360360208110156107db57600080fd5b81019080803573ffffffffffffffffffffffffffffffffffffffff1690602001909291905050506114f4565b005b806005600082815260200190815260200160002060009054906101000a900473ffffffffffffffffffffffffffffffffffffffff1673ffffffffffffffffffffffffffffffffffffffff163373ffffffffffffffffffffffffffffffffffffffff1614151561087757600080fd5b82600b600084815260200190815260200160002060006101000a81548173ffffffffffffffffffffffffffffffffffffffff021916908373ffffffffffffffffffffffffffffffffffffffff160217905550818373ffffffffffffffffffffffffffffffffffffffff163373ffffffffffffffffffffffffffffffffffffffff167f8c5be1e5ebec7d5bd14f71427d1e84f3dd0314c0f7b2291e5b200ac8c7c3b92560405160405180910390a4505050565b6008543414151561093957600080fd5b610983600160048381548110151561094d57fe5b906000526020600020906003020160020160009054906101000a900463ffffffff1663ffffffff1661151390919063ffffffff16565b60048281548110151561099257fe5b906000526020600020906003020160020160006101000a81548163ffffffff021916908363ffffffff16021790555050565b6000600760009054906101000a900473ffffffffffffffffffffffffffffffffffffffff1673ffffffffffffffffffffffffffffffffffffffff1663e98b7f4d836040518263ffffffff1660e01b8152600401808281526020019150506101406040518083038186803b158015610a3a57600080fd5b505afa158015610a4e573d6000803e3d6000fd5b505050506040513d610140811015610a6557600080fd5b810190808051906020019092919080519060200190929190805190602001909291908051906020019092919080519060200190929190805190602001909291908051906020019092919080519060200190929190805190602001909291908051906020019092919050505090919293949596979850909192939495969750909192939495965090919293949550909192939450909192935090919250909150905080915050610b4a83826040518060400160405280600581526020017f6b6974747900000000000000000000000000000000000000000000000000000081525061153d565b505050565b606080600660008473ffffffffffffffffffffffffffffffffffffffff1673ffffffffffffffffffffffffffffffffffffffff16815260200190815260200160002054604051908082528060200260200182016040528015610bc05781602001602082028038833980820191505090505b509050600080905060008090505b600480549050811015610c75578473ffffffffffffffffffffffffffffffffffffffff166005600083815260200190815260200160002060009054906101000a900473ffffffffffffffffffffffffffffffffffffffff1673ffffffffffffffffffffffffffffffffffffffff161415610c6857808383815181101515610c5157fe5b906020019060200201818152505081806001019250505b8080600101915050610bce565b508192505050919050565b3373ffffffffffffffffffffffffffffffffffffffff166005600083815260200190815260200160002060009054906101000a900473ffffffffffffffffffffffffffffffffffffffff1673ffffffffffffffffffffffffffffffffffffffff161480610d4b57503373ffffffffffffffffffffffffffffffffffffffff16600b600083815260200190815260200160002060009054906101000a900473ffffffffffffffffffffffffffffffffffffffff1673ffffffffffffffffffffffffffffffffffffffff16145b1515610d5657600080fd5b610d6183838361172d565b505050565b610d6e611172565b1515610d7957600080fd5b80600760006101000a81548173ffffffffffffffffffffffffffffffffffffffff021916908373ffffffffffffffffffffffffffffffffffffffff16021790555050565b60148281600482815481101515610dd057fe5b906000526020600020906003020160020160009054906101000a900463ffffffff1663ffffffff1610151515610e0557600080fd5b836005600082815260200190815260200160002060009054906101000a900473ffffffffffffffffffffffffffffffffffffffff1673ffffffffffffffffffffffffffffffffffffffff163373ffffffffffffffffffffffffffffffffffffffff16141515610e7357600080fd5b83600486815481101515610e8357fe5b9060005260206000209060030201600101819055505050505050565b60006005600083815260200190815260200160002060009054906101000a900473ffffffffffffffffffffffffffffffffffffffff169050919050565b6000600660008373ffffffffffffffffffffffffffffffffffffffff1673ffffffffffffffffffffffffffffffffffffffff168152602001908152602001600020549050919050565b610f2d611172565b1515610f3857600080fd5b600073ffffffffffffffffffffffffffffffffffffffff166000809054906101000a900473ffffffffffffffffffffffffffffffffffffffff1673ffffffffffffffffffffffffffffffffffffffff167f8be0079c531659141344cd1fd0a4f28419497f9722a3daafe3b4186f6b6457e060405160405180910390a360008060006101000a81548173ffffffffffffffffffffffffffffffffffffffff021916908373ffffffffffffffffffffffffffffffffffffffff160217905550565b60048181548110151561100657fe5b9060005260206000209060030201600091509050806000018054600181600116156101000203166002900480601f0160208091040260200160405190810160405280929190818152602001828054600181600116156101000203166002900480156110b25780601f10611087576101008083540402835291602001916110b2565b820191906000526020600020905b81548152906001019060200180831161109557829003601f168201915b5050505050908060010154908060020160009054906101000a900463ffffffff16908060020160049054906101000a900463ffffffff16908060020160089054906101000a900461ffff169080600201600a9054906101000a900461ffff16905086565b60056020528060005260406000206000915054906101000a900473ffffffffffffffffffffffffffffffffffffffff1681565b60008060009054906101000a900473ffffffffffffffffffffffffffffffffffffffff16905090565b60008060009054906101000a900473ffffffffffffffffffffffffffffffffffffffff1673ffffffffffffffffffffffffffffffffffffffff163373ffffffffffffffffffffffffffffffffffffffff1614905090565b6004600660003373ffffffffffffffffffffffffffffffffffffffff1673ffffffffffffffffffffffffffffffffffffffff1681526020019081526020016000205410151561121757600080fd5b60006112228261190b565b905060648181151561123057fe5b068103905061123f828261199d565b5050565b61124b611172565b151561125657600080fd5b8060088190555050565b816005600082815260200190815260200160002060009054906101000a900473ffffffffffffffffffffffffffffffffffffffff1673ffffffffffffffffffffffffffffffffffffffff163373ffffffffffffffffffffffffffffffffffffffff161415156112ce57600080fd5b60006004848154811015156112df57fe5b90600052602060002090600302019050600060048481548110151561130057fe5b90600052602060002090600302019050600061131c6064611c6f565b9050600a54811115156114525761135360018460020160089054906101000a900461ffff1661ffff16611d0a90919063ffffffff16565b8360020160086101000a81548161ffff021916908361ffff16021790555061139f60018460020160009054906101000a900463ffffffff1663ffffffff1661151390919063ffffffff16565b8360020160006101000a81548163ffffffff021916908363ffffffff1602179055506113eb600183600201600a9054906101000a900461ffff1661ffff16611d0a90919063ffffffff16565b82600201600a6101000a81548161ffff021916908361ffff16021790555061144d8683600101546040518060400160405280600481526020017f737761740000000000000000000000000000000000000000000000000000000081525061153d565b6114ec565b61147c600184600201600a9054906101000a900461ffff1661ffff16611d0a90919063ffffffff16565b83600201600a6101000a81548161ffff021916908361ffff1602179055506114c460018360020160089054906101000a900461ffff1661ffff16611d0a90919063ffffffff16565b8260020160086101000a81548161ffff021916908361ffff1602179055506114eb83611d30565b5b505050505050565b6114fc611172565b151561150757600080fd5b61151081611d5a565b50565b60008082840190508363ffffffff168163ffffffff161015151561153357fe5b8091505092915050565b826005600082815260200190815260200160002060009054906101000a900473ffffffffffffffffffffffffffffffffffffffff1673ffffffffffffffffffffffffffffffffffffffff163373ffffffffffffffffffffffffffffffffffffffff161415156115ab57600080fd5b60006004858154811015156115bc57fe5b906000526020600020906003020190506115d581611e54565b15156115e057600080fd5b600254848115156115ed57fe5b069350600060028583600101540181151561160457fe5b04905060405160200180807f6b69747479000000000000000000000000000000000000000000000000000000815250600501905060405160208183030381529060405280519060200120846040516020018082805190602001908083835b6020831015156116875780518252602082019150602081019050602083039250611662565b6001836020036101000a0380198251168184511680821785525050505050509050019150506040516020818303038152906040528051906020012014156116dd5760636064828115156116d657fe5b0682030190505b61171c6040518060400160405280600681526020017f4e6f4e616d6500000000000000000000000000000000000000000000000000008152508261199d565b61172582611d30565b505050505050565b6117806001600660008573ffffffffffffffffffffffffffffffffffffffff1673ffffffffffffffffffffffffffffffffffffffff16815260200190815260200160002054611e7b90919063ffffffff16565b600660008473ffffffffffffffffffffffffffffffffffffffff1673ffffffffffffffffffffffffffffffffffffffff168152602001908152602001600020819055506118166001600660003373ffffffffffffffffffffffffffffffffffffffff1673ffffffffffffffffffffffffffffffffffffffff16815260200190815260200160002054611e9990919063ffffffff16565b600660003373ffffffffffffffffffffffffffffffffffffffff1673ffffffffffffffffffffffffffffffffffffffff16815260200190815260200160002081905550816005600083815260200190815260200160002060006101000a81548173ffffffffffffffffffffffffffffffffffffffff021916908373ffffffffffffffffffffffffffffffffffffffff160217905550808273ffffffffffffffffffffffffffffffffffffffff168473ffffffffffffffffffffffffffffffffffffffff167fddf252ad1be2c89b69c2b068fc378daa952ba7f163c4a11628f55a4df523b3ef60405160405180910390a4505050565b600080826040516020018082805190602001908083835b6020831015156119475780518252602082019150602081019050602083039250611922565b6001836020036101000a0380198251168184511680821785525050505050509050019150506040516020818303038152906040528051906020012060001c90506002548181151561199457fe5b06915050919050565b6000600160046040518060c00160405280868152602001858152602001600163ffffffff168152602001600354420163ffffffff168152602001600061ffff168152602001600061ffff16815250908060018154018082558091505090600182039060005260206000209060030201600090919290919091506000820151816000019080519060200190611a32929190611eb2565b506020820151816001015560408201518160020160006101000a81548163ffffffff021916908363ffffffff16021790555060608201518160020160046101000a81548163ffffffff021916908363ffffffff16021790555060808201518160020160086101000a81548161ffff021916908361ffff16021790555060a082015181600201600a6101000a81548161ffff021916908361ffff1602179055505050039050336005600083815260200190815260200160002060006101000a81548173ffffffffffffffffffffffffffffffffffffffff021916908373ffffffffffffffffffffffffffffffffffffffff160217905550611b7b6001600660003373ffffffffffffffffffffffffffffffffffffffff1673ffffffffffffffffffffffffffffffffffffffff16815260200190815260200160002054611e7b90919063ffffffff16565b600660003373ffffffffffffffffffffffffffffffffffffffff1673ffffffffffffffffffffffffffffffffffffffff168152602001908152602001600020819055507fdd9bd228d176b3333962e18a7084b2e83e1e1105f8bf057fa380d91d75cf94558184846040518084815260200180602001838152602001828103825284818151815260200191508051906020019080838360005b83811015611c2e578082015181840152602081019050611c13565b50505050905090810190601f168015611c5b5780820380516001836020036101000a031916815260200191505b5094505050505060405180910390a1505050565b6000611c876001600954611e7b90919063ffffffff16565b600981905550814233600954604051602001808481526020018373ffffffffffffffffffffffffffffffffffffffff1673ffffffffffffffffffffffffffffffffffffffff1660601b815260140182815260200193505050506040516020818303038152906040528051906020012060001c811515611d0257fe5b069050919050565b60008082840190508361ffff168161ffff1610151515611d2657fe5b8091505092915050565b60035442018160020160046101000a81548163ffffffff021916908363ffffffff16021790555050565b600073ffffffffffffffffffffffffffffffffffffffff168173ffffffffffffffffffffffffffffffffffffffff1614151515611d9657600080fd5b8073ffffffffffffffffffffffffffffffffffffffff166000809054906101000a900473ffffffffffffffffffffffffffffffffffffffff1673ffffffffffffffffffffffffffffffffffffffff167f8be0079c531659141344cd1fd0a4f28419497f9722a3daafe3b4186f6b6457e060405160405180910390a3806000806101000a81548173ffffffffffffffffffffffffffffffffffffffff021916908373ffffffffffffffffffffffffffffffffffffffff16021790555050565b6000428260020160049054906101000a900463ffffffff1663ffffffff1611159050919050565b6000808284019050838110151515611e8f57fe5b8091505092915050565b6000828211151515611ea757fe5b818303905092915050565b828054600181600116156101000203166002900490600052602060002090601f016020900481019282601f10611ef357805160ff1916838001178555611f21565b82800160010185558215611f21579182015b82811115611f20578251825591602001919060010190611f05565b5b509050611f2e9190611f32565b5090565b611f5491905b80821115611f50576000816000905550600101611f38565b5090565b9056fea165627a7a72305820a6fd0b0f99fe19aaf1241db2e813cd4f302916fd448113009e3196418ecfdcae0029",
  "source": "pragma solidity >=0.5.0 <0.6.0;\r\n\r\nimport \"./swatattack.sol\";\r\nimport \"./erc721.sol\";\r\nimport \"./safemath.sol\";\r\n\r\ncontract SwatOwnership is SwatAttack, ERC721 {\r\n\r\n  using SafeMath for uint256;\r\n\r\n  mapping (uint => address) swatApprovals;\r\n\r\n  function balanceOf(address _owner) external view returns (uint256) {\r\n    return ownerSwatCount[_owner];\r\n  }\r\n\r\n  function ownerOf(uint256 _tokenId) external view returns (address) {\r\n    return swatToOwner[_tokenId];\r\n  }\r\n\r\n  function _transfer(address _from, address _to, uint256 _tokenId) private {\r\n    ownerSwatCount[_to] = ownerSwatCount[_to].add(1);\r\n    ownerSwatCount[msg.sender] = ownerSwatCount[msg.sender].sub(1);\r\n    swatToOwner[_tokenId] = _to;\r\n    emit Transfer(_from, _to, _tokenId);\r\n  }\r\n\r\n  function transferFrom(address _from, address _to, uint256 _tokenId) external payable {\r\n      require (swatToOwner[_tokenId] == msg.sender || swatApprovals[_tokenId] == msg.sender);\r\n      _transfer(_from, _to, _tokenId);\r\n    }\r\n\r\n  function approve(address _approved, uint256 _tokenId) external payable onlyOwnerOf(_tokenId) {\r\n      swatApprovals[_tokenId] = _approved;\r\n      emit Approval(msg.sender, _approved, _tokenId);\r\n    }\r\n\r\n}\r\n",
  "sourcePath": "C:\\Users\\accoo\\documents\\CGContractTest\\contracts\\swatownership.sol",
  "compiler": {
    "name": "solc",
    "version": "0.5.5+commit.47a71e8f.Emscripten.clang"
  },
  "schemaVersion": "3.4.2",
  "updatedAt": "2021-09-24T22:46:07.706Z",
  "devdoc": {
    "methods": {
      "isOwner()": {
        "return": "true if `msg.sender` is the owner of the contract.\r"
      },
      "owner()": {
        "return": "the address of the owner.\r"
      },
      "renounceOwnership()": {
        "details": "Allows the current owner to relinquish control of the contract.\r"
      },
      "transferOwnership(address)": {
        "details": "Allows the current owner to transfer control of the contract to a newOwner.\r",
        "params": {
          "newOwner": "The address to transfer ownership to.\r"
        }
      }
    }
  },
  "userdoc": {
    "methods": {
      "attack(uint256,uint256)": {
        "notice": "if player wins, increase win count by 1, level by 1, enemy loss count by 1, runs feed and multiply; else player loss count goes up 1"
      },
      "renounceOwnership()": {
        "notice": "Renouncing to ownership will leave the contract without an owner.\r It will not be possible to call the functions with the `onlyOwner`\r modifier anymore.\r"
      }
    }
  }
}