{
  "contractName": "SwatAttack",
  "abi": [
    {
      "constant": false,
      "inputs": [
        {
          "name": "_swatId",
          "type": "uint256"
        }
      ],
      "name": "levelUp",
      "outputs": [],
      "payable": true,
      "stateMutability": "payable",
      "type": "function"
    },
    {
      "constant": false,
      "inputs": [
        {
          "name": "_swatId",
          "type": "uint256"
        },
        {
          "name": "_kittyId",
          "type": "uint256"
        }
      ],
      "name": "feedOnKitty",
      "outputs": [],
      "payable": false,
      "stateMutability": "nonpayable",
      "type": "function"
    },
    {
      "constant": true,
      "inputs": [
        {
          "name": "_owner",
          "type": "address"
        }
      ],
      "name": "getSwatsByOwner",
      "outputs": [
        {
          "name": "",
          "type": "uint256[]"
        }
      ],
      "payable": false,
      "stateMutability": "view",
      "type": "function"
    },
    {
      "constant": false,
      "inputs": [
        {
          "name": "_address",
          "type": "address"
        }
      ],
      "name": "setKittyContractAddress",
      "outputs": [],
      "payable": false,
      "stateMutability": "nonpayable",
      "type": "function"
    },
    {
      "constant": false,
      "inputs": [
        {
          "name": "_swatId",
          "type": "uint256"
        },
        {
          "name": "_newDna",
          "type": "uint256"
        }
      ],
      "name": "changeDna",
      "outputs": [],
      "payable": false,
      "stateMutability": "nonpayable",
      "type": "function"
    },
    {
      "constant": false,
      "inputs": [],
      "name": "renounceOwnership",
      "outputs": [],
      "payable": false,
      "stateMutability": "nonpayable",
      "type": "function"
    },
    {
      "constant": true,
      "inputs": [
        {
          "name": "",
          "type": "uint256"
        }
      ],
      "name": "swats",
      "outputs": [
        {
          "name": "name",
          "type": "string"
        },
        {
          "name": "dna",
          "type": "uint256"
        },
        {
          "name": "level",
          "type": "uint32"
        },
        {
          "name": "readyTime",
          "type": "uint32"
        },
        {
          "name": "winCount",
          "type": "uint16"
        },
        {
          "name": "lossCount",
          "type": "uint16"
        }
      ],
      "payable": false,
      "stateMutability": "view",
      "type": "function"
    },
    {
      "constant": true,
      "inputs": [
        {
          "name": "",
          "type": "uint256"
        }
      ],
      "name": "swatToOwner",
      "outputs": [
        {
          "name": "",
          "type": "address"
        }
      ],
      "payable": false,
      "stateMutability": "view",
      "type": "function"
    },
    {
      "constant": true,
      "inputs": [],
      "name": "owner",
      "outputs": [
        {
          "name": "",
          "type": "address"
        }
      ],
      "payable": false,
      "stateMutability": "view",
      "type": "function"
    },
    {
      "constant": true,
      "inputs": [],
      "name": "isOwner",
      "outputs": [
        {
          "name": "",
          "type": "bool"
        }
      ],
      "payable": false,
      "stateMutability": "view",
      "type": "function"
    },
    {
      "constant": false,
      "inputs": [
        {
          "name": "_name",
          "type": "string"
        }
      ],
      "name": "createRandomSwat",
      "outputs": [],
      "payable": false,
      "stateMutability": "nonpayable",
      "type": "function"
    },
    {
      "constant": false,
      "inputs": [
        {
          "name": "_fee",
          "type": "uint256"
        }
      ],
      "name": "setLevelUpFee",
      "outputs": [],
      "payable": false,
      "stateMutability": "nonpayable",
      "type": "function"
    },
    {
      "constant": false,
      "inputs": [
        {
          "name": "newOwner",
          "type": "address"
        }
      ],
      "name": "transferOwnership",
      "outputs": [],
      "payable": false,
      "stateMutability": "nonpayable",
      "type": "function"
    },
    {
      "anonymous": false,
      "inputs": [
        {
          "indexed": false,
          "name": "swatId",
          "type": "uint256"
        },
        {
          "indexed": false,
          "name": "name",
          "type": "string"
        },
        {
          "indexed": false,
          "name": "dna",
          "type": "uint256"
        }
      ],
      "name": "NewSwat",
      "type": "event"
    },
    {
      "anonymous": false,
      "inputs": [
        {
          "indexed": true,
          "name": "previousOwner",
          "type": "address"
        },
        {
          "indexed": true,
          "name": "newOwner",
          "type": "address"
        }
      ],
      "name": "OwnershipTransferred",
      "type": "event"
    },
    {
      "constant": false,
      "inputs": [
        {
          "name": "_swatId",
          "type": "uint256"
        },
        {
          "name": "_targetId",
          "type": "uint256"
        }
      ],
      "name": "attack",
      "outputs": [],
      "payable": false,
      "stateMutability": "nonpayable",
      "type": "function"
    }
  ],
  "bytecode": "0x60806040526010600155600154600a0a6002556201518060035566038d7ea4c6800060085560006009556046600a55336000806101000a81548173ffffffffffffffffffffffffffffffffffffffff021916908373ffffffffffffffffffffffffffffffffffffffff1602179055506000809054906101000a900473ffffffffffffffffffffffffffffffffffffffff1673ffffffffffffffffffffffffffffffffffffffff16600073ffffffffffffffffffffffffffffffffffffffff167f8be0079c531659141344cd1fd0a4f28419497f9722a3daafe3b4186f6b6457e060405160405180910390a3611938806100f96000396000f3fe6080604052600436106100dd5760003560e01c8063875bd33f1161007f578063a7b7aadf11610059578063a7b7aadf146104a8578063ccf670f814610570578063e1fa7638146105ab578063f2fde38b146105f0576100dd565b8063875bd33f146103a75780638da5cb5b146104225780638f32d59b14610479576100dd565b80635f4623f1116100bb5780635f4623f1146101fb5780635faf28801461024c578063715018a6146102915780638429c57a146102a8576100dd565b80630ce90ec2146100e257806317a7f4cc14610110578063210cb2ca14610155575b600080fd5b61010e600480360360208110156100f857600080fd5b8101908080359060200190929190505050610641565b005b34801561011c57600080fd5b506101536004803603604081101561013357600080fd5b8101908080359060200190929190803590602001909291905050506106dc565b005b34801561016157600080fd5b506101a46004803603602081101561017857600080fd5b81019080803573ffffffffffffffffffffffffffffffffffffffff169060200190929190505050610867565b6040518080602001828103825283818151815260200191508051906020019060200280838360005b838110156101e75780820151818401526020810190506101cc565b505050509050019250505060405180910390f35b34801561020757600080fd5b5061024a6004803603602081101561021e57600080fd5b81019080803573ffffffffffffffffffffffffffffffffffffffff169060200190929190505050610998565b005b34801561025857600080fd5b5061028f6004803603604081101561026f57600080fd5b8101908080359060200190929190803590602001909291905050506109ef565b005b34801561029d57600080fd5b506102a6610ad1565b005b3480156102b457600080fd5b506102e1600480360360208110156102cb57600080fd5b8101908080359060200190929190505050610ba3565b60405180806020018781526020018663ffffffff1663ffffffff1681526020018563ffffffff1663ffffffff1681526020018461ffff1661ffff1681526020018361ffff1661ffff168152602001828103825288818151815260200191508051906020019080838360005b8381101561036757808201518184015260208101905061034c565b50505050905090810190601f1680156103945780820380516001836020036101000a031916815260200191505b5097505050505050505060405180910390f35b3480156103b357600080fd5b506103e0600480360360208110156103ca57600080fd5b8101908080359060200190929190505050610cc2565b604051808273ffffffffffffffffffffffffffffffffffffffff1673ffffffffffffffffffffffffffffffffffffffff16815260200191505060405180910390f35b34801561042e57600080fd5b50610437610cf5565b604051808273ffffffffffffffffffffffffffffffffffffffff1673ffffffffffffffffffffffffffffffffffffffff16815260200191505060405180910390f35b34801561048557600080fd5b5061048e610d1e565b604051808215151515815260200191505060405180910390f35b3480156104b457600080fd5b5061056e600480360360208110156104cb57600080fd5b81019080803590602001906401000000008111156104e857600080fd5b8201836020820111156104fa57600080fd5b8035906020019184600183028401116401000000008311171561051c57600080fd5b91908080601f016020809104026020016040519081016040528093929190818152602001838380828437600081840152601f19601f820116905080830192505050505050509192919290505050610d75565b005b34801561057c57600080fd5b506105a96004803603602081101561059357600080fd5b8101908080359060200190929190505050610def565b005b3480156105b757600080fd5b506105ee600480360360408110156105ce57600080fd5b810190808035906020019092919080359060200190929190505050610e0c565b005b3480156105fc57600080fd5b5061063f6004803603602081101561061357600080fd5b81019080803573ffffffffffffffffffffffffffffffffffffffff1690602001909291905050506110a0565b005b6008543414151561065157600080fd5b61069b600160048381548110151561066557fe5b906000526020600020906003020160020160009054906101000a900463ffffffff1663ffffffff166110bf90919063ffffffff16565b6004828154811015156106aa57fe5b906000526020600020906003020160020160006101000a81548163ffffffff021916908363ffffffff16021790555050565b6000600760009054906101000a900473ffffffffffffffffffffffffffffffffffffffff1673ffffffffffffffffffffffffffffffffffffffff1663e98b7f4d836040518263ffffffff1660e01b8152600401808281526020019150506101406040518083038186803b15801561075257600080fd5b505afa158015610766573d6000803e3d6000fd5b505050506040513d61014081101561077d57600080fd5b81019080805190602001909291908051906020019092919080519060200190929190805190602001909291908051906020019092919080519060200190929190805190602001909291908051906020019092919080519060200190929190805190602001909291905050509091929394959697985090919293949596975090919293949596509091929394955090919293945090919293509091925090915090508091505061086283826040518060400160405280600581526020017f6b697474790000000000000000000000000000000000000000000000000000008152506110e9565b505050565b606080600660008473ffffffffffffffffffffffffffffffffffffffff1673ffffffffffffffffffffffffffffffffffffffff168152602001908152602001600020546040519080825280602002602001820160405280156108d85781602001602082028038833980820191505090505b509050600080905060008090505b60048054905081101561098d578473ffffffffffffffffffffffffffffffffffffffff166005600083815260200190815260200160002060009054906101000a900473ffffffffffffffffffffffffffffffffffffffff1673ffffffffffffffffffffffffffffffffffffffff1614156109805780838381518110151561096957fe5b906020019060200201818152505081806001019250505b80806001019150506108e6565b508192505050919050565b6109a0610d1e565b15156109ab57600080fd5b80600760006101000a81548173ffffffffffffffffffffffffffffffffffffffff021916908373ffffffffffffffffffffffffffffffffffffffff16021790555050565b60148281600482815481101515610a0257fe5b906000526020600020906003020160020160009054906101000a900463ffffffff1663ffffffff1610151515610a3757600080fd5b836005600082815260200190815260200160002060009054906101000a900473ffffffffffffffffffffffffffffffffffffffff1673ffffffffffffffffffffffffffffffffffffffff163373ffffffffffffffffffffffffffffffffffffffff16141515610aa557600080fd5b83600486815481101515610ab557fe5b9060005260206000209060030201600101819055505050505050565b610ad9610d1e565b1515610ae457600080fd5b600073ffffffffffffffffffffffffffffffffffffffff166000809054906101000a900473ffffffffffffffffffffffffffffffffffffffff1673ffffffffffffffffffffffffffffffffffffffff167f8be0079c531659141344cd1fd0a4f28419497f9722a3daafe3b4186f6b6457e060405160405180910390a360008060006101000a81548173ffffffffffffffffffffffffffffffffffffffff021916908373ffffffffffffffffffffffffffffffffffffffff160217905550565b600481815481101515610bb257fe5b9060005260206000209060030201600091509050806000018054600181600116156101000203166002900480601f016020809104026020016040519081016040528092919081815260200182805460018160011615610100020316600290048015610c5e5780601f10610c3357610100808354040283529160200191610c5e565b820191906000526020600020905b815481529060010190602001808311610c4157829003601f168201915b5050505050908060010154908060020160009054906101000a900463ffffffff16908060020160049054906101000a900463ffffffff16908060020160089054906101000a900461ffff169080600201600a9054906101000a900461ffff16905086565b60056020528060005260406000206000915054906101000a900473ffffffffffffffffffffffffffffffffffffffff1681565b60008060009054906101000a900473ffffffffffffffffffffffffffffffffffffffff16905090565b60008060009054906101000a900473ffffffffffffffffffffffffffffffffffffffff1673ffffffffffffffffffffffffffffffffffffffff163373ffffffffffffffffffffffffffffffffffffffff1614905090565b6004600660003373ffffffffffffffffffffffffffffffffffffffff1673ffffffffffffffffffffffffffffffffffffffff16815260200190815260200160002054101515610dc357600080fd5b6000610dce826112d9565b9050606481811515610ddc57fe5b0681039050610deb828261136b565b5050565b610df7610d1e565b1515610e0257600080fd5b8060088190555050565b816005600082815260200190815260200160002060009054906101000a900473ffffffffffffffffffffffffffffffffffffffff1673ffffffffffffffffffffffffffffffffffffffff163373ffffffffffffffffffffffffffffffffffffffff16141515610e7a57600080fd5b6000600484815481101515610e8b57fe5b906000526020600020906003020190506000600484815481101515610eac57fe5b906000526020600020906003020190506000610ec8606461163d565b9050600a5481111515610ffe57610eff60018460020160089054906101000a900461ffff1661ffff166116d890919063ffffffff16565b8360020160086101000a81548161ffff021916908361ffff160217905550610f4b60018460020160009054906101000a900463ffffffff1663ffffffff166110bf90919063ffffffff16565b8360020160006101000a81548163ffffffff021916908363ffffffff160217905550610f97600183600201600a9054906101000a900461ffff1661ffff166116d890919063ffffffff16565b82600201600a6101000a81548161ffff021916908361ffff160217905550610ff98683600101546040518060400160405280600481526020017f73776174000000000000000000000000000000000000000000000000000000008152506110e9565b611098565b611028600184600201600a9054906101000a900461ffff1661ffff166116d890919063ffffffff16565b83600201600a6101000a81548161ffff021916908361ffff16021790555061107060018360020160089054906101000a900461ffff1661ffff166116d890919063ffffffff16565b8260020160086101000a81548161ffff021916908361ffff160217905550611097836116fe565b5b505050505050565b6110a8610d1e565b15156110b357600080fd5b6110bc81611728565b50565b60008082840190508363ffffffff168163ffffffff16101515156110df57fe5b8091505092915050565b826005600082815260200190815260200160002060009054906101000a900473ffffffffffffffffffffffffffffffffffffffff1673ffffffffffffffffffffffffffffffffffffffff163373ffffffffffffffffffffffffffffffffffffffff1614151561115757600080fd5b600060048581548110151561116857fe5b9060005260206000209060030201905061118181611822565b151561118c57600080fd5b6002548481151561119957fe5b06935060006002858360010154018115156111b057fe5b04905060405160200180807f6b69747479000000000000000000000000000000000000000000000000000000815250600501905060405160208183030381529060405280519060200120846040516020018082805190602001908083835b602083101515611233578051825260208201915060208101905060208303925061120e565b6001836020036101000a03801982511681845116808217855250505050505090500191505060405160208183030381529060405280519060200120141561128957606360648281151561128257fe5b0682030190505b6112c86040518060400160405280600681526020017f4e6f4e616d6500000000000000000000000000000000000000000000000000008152508261136b565b6112d1826116fe565b505050505050565b600080826040516020018082805190602001908083835b60208310151561131557805182526020820191506020810190506020830392506112f0565b6001836020036101000a0380198251168184511680821785525050505050509050019150506040516020818303038152906040528051906020012060001c90506002548181151561136257fe5b06915050919050565b6000600160046040518060c00160405280868152602001858152602001600163ffffffff168152602001600354420163ffffffff168152602001600061ffff168152602001600061ffff16815250908060018154018082558091505090600182039060005260206000209060030201600090919290919091506000820151816000019080519060200190611400929190611867565b506020820151816001015560408201518160020160006101000a81548163ffffffff021916908363ffffffff16021790555060608201518160020160046101000a81548163ffffffff021916908363ffffffff16021790555060808201518160020160086101000a81548161ffff021916908361ffff16021790555060a082015181600201600a6101000a81548161ffff021916908361ffff1602179055505050039050336005600083815260200190815260200160002060006101000a81548173ffffffffffffffffffffffffffffffffffffffff021916908373ffffffffffffffffffffffffffffffffffffffff1602179055506115496001600660003373ffffffffffffffffffffffffffffffffffffffff1673ffffffffffffffffffffffffffffffffffffffff1681526020019081526020016000205461184990919063ffffffff16565b600660003373ffffffffffffffffffffffffffffffffffffffff1673ffffffffffffffffffffffffffffffffffffffff168152602001908152602001600020819055507fdd9bd228d176b3333962e18a7084b2e83e1e1105f8bf057fa380d91d75cf94558184846040518084815260200180602001838152602001828103825284818151815260200191508051906020019080838360005b838110156115fc5780820151818401526020810190506115e1565b50505050905090810190601f1680156116295780820380516001836020036101000a031916815260200191505b5094505050505060405180910390a1505050565b6000611655600160095461184990919063ffffffff16565b600981905550814233600954604051602001808481526020018373ffffffffffffffffffffffffffffffffffffffff1673ffffffffffffffffffffffffffffffffffffffff1660601b815260140182815260200193505050506040516020818303038152906040528051906020012060001c8115156116d057fe5b069050919050565b60008082840190508361ffff168161ffff16101515156116f457fe5b8091505092915050565b60035442018160020160046101000a81548163ffffffff021916908363ffffffff16021790555050565b600073ffffffffffffffffffffffffffffffffffffffff168173ffffffffffffffffffffffffffffffffffffffff161415151561176457600080fd5b8073ffffffffffffffffffffffffffffffffffffffff166000809054906101000a900473ffffffffffffffffffffffffffffffffffffffff1673ffffffffffffffffffffffffffffffffffffffff167f8be0079c531659141344cd1fd0a4f28419497f9722a3daafe3b4186f6b6457e060405160405180910390a3806000806101000a81548173ffffffffffffffffffffffffffffffffffffffff021916908373ffffffffffffffffffffffffffffffffffffffff16021790555050565b6000428260020160049054906101000a900463ffffffff1663ffffffff1611159050919050565b600080828401905083811015151561185d57fe5b8091505092915050565b828054600181600116156101000203166002900490600052602060002090601f016020900481019282601f106118a857805160ff19168380011785556118d6565b828001600101855582156118d6579182015b828111156118d55782518255916020019190600101906118ba565b5b5090506118e391906118e7565b5090565b61190991905b808211156119055760008160009055506001016118ed565b5090565b9056fea165627a7a72305820742fb09f8a5acf580dc94e0cda5c380f3c1190159aed8558c530a34543ee20ea0029",
  "source": "pragma solidity >=0.5.0 <0.6.0;\r\n\r\nimport \"./swathelper.sol\";\r\n\r\ncontract SwatAttack is SwatHelper {\r\n  uint randNonce = 0;\r\n  uint attackVictoryProbability = 70;\r\n\r\n  function randMod(uint _modulus) internal returns(uint) {\r\n    randNonce = randNonce.add(1);\r\n    return uint(keccak256(abi.encodePacked(now, msg.sender, randNonce))) % _modulus;\r\n  }\r\n///if player wins, increase win count by 1, level by 1, enemy loss count by 1, runs feed and multiply; else player loss count goes up 1\r\n  function attack(uint _swatId, uint _targetId) external onlyOwnerOf(_swatId) {\r\n    Swat storage mySwat = swats[_swatId];\r\n    Swat storage enemySwat = swats[_targetId];\r\n    uint rand = randMod(100);\r\n    if (rand <= attackVictoryProbability) {\r\n      mySwat.winCount = mySwat.winCount.add(1);\r\n      mySwat.level = mySwat.level.add(1);\r\n      enemySwat.lossCount = enemySwat.lossCount.add(1);\r\n      feedAndMultiply(_swatId, enemySwat.dna, \"swat\");\r\n    } else {\r\n      mySwat.lossCount = mySwat.lossCount.add(1);\r\n      enemySwat.winCount = enemySwat.winCount.add(1);\r\n      _triggerCooldown(mySwat);\r\n    }\r\n  }\r\n}\r\n",
  "sourcePath": "C:\\Users\\accoo\\documents\\CGContractTest\\contracts\\swatattack.sol",
  "compiler": {
    "name": "solc",
    "version": "0.5.5+commit.47a71e8f.Emscripten.clang"
  },
  "schemaVersion": "3.4.2",
  "updatedAt": "2021-09-24T22:46:07.698Z",
  "devdoc": {
    "methods": {
      "isOwner()": {
        "return": "true if `msg.sender` is the owner of the contract.\r"
      },
      "owner()": {
        "return": "the address of the owner.\r"
      },
      "renounceOwnership()": {
        "details": "Allows the current owner to relinquish control of the contract.\r"
      },
      "transferOwnership(address)": {
        "details": "Allows the current owner to transfer control of the contract to a newOwner.\r",
        "params": {
          "newOwner": "The address to transfer ownership to.\r"
        }
      }
    }
  },
  "userdoc": {
    "methods": {
      "attack(uint256,uint256)": {
        "notice": "if player wins, increase win count by 1, level by 1, enemy loss count by 1, runs feed and multiply; else player loss count goes up 1"
      },
      "renounceOwnership()": {
        "notice": "Renouncing to ownership will leave the contract without an owner.\r It will not be possible to call the functions with the `onlyOwner`\r modifier anymore.\r"
      }
    }
  }
}